No.     Time           Source                Destination           Protocol Length Info
1672253 6510.438722    host                  1.9.0                 USB      36     GET DESCRIPTOR Request DEVICE

Frame 1672253: 36 bytes on wire (288 bits), 36 bytes captured (288 bits) on interface \\.\USBPcap1, id 0
USB URB
    [Source: host]
    [Destination: 1.9.0]
    USBPcap pseudoheader length: 28
    IRP ID: 0xffff830310c5da20
    IRP USBD_STATUS: USBD_STATUS_SUCCESS (0x00000000)
    URB Function: URB_FUNCTION_GET_DESCRIPTOR_FROM_DEVICE (0x000b)
    IRP information: 0x00, Direction: FDO -> PDO
        0000 000. = Reserved: 0x00
        .... ...0 = Direction: FDO -> PDO (0x0)
    URB bus id: 1
    Device address: 9
    Endpoint: 0x80, Direction: IN
        1... .... = Direction: IN (1)
        .... 0000 = Endpoint number: 0
    URB transfer type: URB_CONTROL (0x02)
    Packet Data Length: 8
    [Response in: 1672254]
    Control transfer stage: Setup (0)
Setup Data
    bmRequestType: 0x80
        1... .... = Direction: Device-to-host
        .00. .... = Type: Standard (0x0)
        ...0 0000 = Recipient: Device (0x00)
    bRequest: GET DESCRIPTOR (6)
    Descriptor Index: 0x00
    bDescriptorType: DEVICE (0x01)
    Language Id: no language specified (0x0000)
    wLength: 18

0000  1c 00 20 da c5 10 03 83 ff ff 00 00 00 00 0b 00   .. .............
0010  00 01 00 09 00 80 02 08 00 00 00 00 80 06 00 01   ................
0020  00 00 12 00                                       ....

No.     Time           Source                Destination           Protocol Length Info
1672254 6510.438896    1.9.0                 host                  USB      46     GET DESCRIPTOR Response DEVICE

Frame 1672254: 46 bytes on wire (368 bits), 46 bytes captured (368 bits) on interface \\.\USBPcap1, id 0
USB URB
    [Source: 1.9.0]
    [Destination: host]
    USBPcap pseudoheader length: 28
    IRP ID: 0xffff830310c5da20
    IRP USBD_STATUS: USBD_STATUS_SUCCESS (0x00000000)
    URB Function: URB_FUNCTION_CONTROL_TRANSFER (0x0008)
    IRP information: 0x01, Direction: PDO -> FDO
        0000 000. = Reserved: 0x00
        .... ...1 = Direction: PDO -> FDO (0x1)
    URB bus id: 1
    Device address: 9
    Endpoint: 0x80, Direction: IN
        1... .... = Direction: IN (1)
        .... 0000 = Endpoint number: 0
    URB transfer type: URB_CONTROL (0x02)
    Packet Data Length: 18
    [Request in: 1672253]
    [Time from request: 0.000174000 seconds]
    Control transfer stage: Complete (3)
DEVICE DESCRIPTOR
    bLength: 18
    bDescriptorType: 0x01 (DEVICE)
    bcdUSB: 0x0200
    bDeviceClass: Device (0x00)
    bDeviceSubClass: 0
    bDeviceProtocol: 0 (Use class code info from Interface Descriptors)
    bMaxPacketSize0: 64
    idVendor: Cooler Master Co., Ltd. (0x2516)
    idProduct: Unknown (0x012d)
    bcdDevice: 0x0720
    iManufacturer: 3
    iProduct: 1
    iSerialNumber: 0
    bNumConfigurations: 1

0000  1c 00 20 da c5 10 03 83 ff ff 00 00 00 00 08 00   .. .............
0010  01 01 00 09 00 80 02 12 00 00 00 03 12 01 00 02   ................
0020  00 00 00 40 16 25 2d 01 20 07 03 01 00 01         ...@.%-. .....

No.     Time           Source                Destination           Protocol Length Info
1672255 6510.438935    host                  1.9.0                 USB      36     GET DESCRIPTOR Request CONFIGURATION

Frame 1672255: 36 bytes on wire (288 bits), 36 bytes captured (288 bits) on interface \\.\USBPcap1, id 0
USB URB
    [Source: host]
    [Destination: 1.9.0]
    USBPcap pseudoheader length: 28
    IRP ID: 0xffff830311d8ba20
    IRP USBD_STATUS: USBD_STATUS_SUCCESS (0x00000000)
    URB Function: URB_FUNCTION_GET_DESCRIPTOR_FROM_DEVICE (0x000b)
    IRP information: 0x00, Direction: FDO -> PDO
        0000 000. = Reserved: 0x00
        .... ...0 = Direction: FDO -> PDO (0x0)
    URB bus id: 1
    Device address: 9
    Endpoint: 0x80, Direction: IN
        1... .... = Direction: IN (1)
        .... 0000 = Endpoint number: 0
    URB transfer type: URB_CONTROL (0x02)
    Packet Data Length: 8
    [Response in: 1672256]
    Control transfer stage: Setup (0)
Setup Data
    bmRequestType: 0x80
        1... .... = Direction: Device-to-host
        .00. .... = Type: Standard (0x0)
        ...0 0000 = Recipient: Device (0x00)
    bRequest: GET DESCRIPTOR (6)
    Descriptor Index: 0x00
    bDescriptorType: CONFIGURATION (0x02)
    Language Id: no language specified (0x0000)
    wLength: 9

0000  1c 00 20 ba d8 11 03 83 ff ff 00 00 00 00 0b 00   .. .............
0010  00 01 00 09 00 80 02 08 00 00 00 00 80 06 00 02   ................
0020  00 00 09 00                                       ....

No.     Time           Source                Destination           Protocol Length Info
1672256 6510.439025    1.9.0                 host                  USB      37     GET DESCRIPTOR Response CONFIGURATION

Frame 1672256: 37 bytes on wire (296 bits), 37 bytes captured (296 bits) on interface \\.\USBPcap1, id 0
USB URB
    [Source: 1.9.0]
    [Destination: host]
    USBPcap pseudoheader length: 28
    IRP ID: 0xffff830311d8ba20
    IRP USBD_STATUS: USBD_STATUS_SUCCESS (0x00000000)
    URB Function: URB_FUNCTION_CONTROL_TRANSFER (0x0008)
    IRP information: 0x01, Direction: PDO -> FDO
        0000 000. = Reserved: 0x00
        .... ...1 = Direction: PDO -> FDO (0x1)
    URB bus id: 1
    Device address: 9
    Endpoint: 0x80, Direction: IN
        1... .... = Direction: IN (1)
        .... 0000 = Endpoint number: 0
    URB transfer type: URB_CONTROL (0x02)
    Packet Data Length: 9
    [Request in: 1672255]
    [Time from request: 0.000090000 seconds]
    Control transfer stage: Complete (3)
CONFIGURATION DESCRIPTOR
    bLength: 9
    bDescriptorType: 0x02 (CONFIGURATION)
    wTotalLength: 91
    bNumInterfaces: 3
    bConfigurationValue: 1
    iConfiguration: 0
    Configuration bmAttributes: 0xa0  NOT SELF-POWERED  REMOTE-WAKEUP
    bMaxPower: 50  (100mA)

0000  1c 00 20 ba d8 11 03 83 ff ff 00 00 00 00 08 00   .. .............
0010  01 01 00 09 00 80 02 09 00 00 00 03 09 02 5b 00   ..............[.
0020  03 01 00 a0 32                                    ....2

No.     Time           Source                Destination           Protocol Length Info
1672257 6510.439038    host                  1.9.0                 USB      36     GET DESCRIPTOR Request CONFIGURATION

Frame 1672257: 36 bytes on wire (288 bits), 36 bytes captured (288 bits) on interface \\.\USBPcap1, id 0
USB URB
    [Source: host]
    [Destination: 1.9.0]
    USBPcap pseudoheader length: 28
    IRP ID: 0xffff830311d8ba20
    IRP USBD_STATUS: USBD_STATUS_SUCCESS (0x00000000)
    URB Function: URB_FUNCTION_GET_DESCRIPTOR_FROM_DEVICE (0x000b)
    IRP information: 0x00, Direction: FDO -> PDO
        0000 000. = Reserved: 0x00
        .... ...0 = Direction: FDO -> PDO (0x0)
    URB bus id: 1
    Device address: 9
    Endpoint: 0x80, Direction: IN
        1... .... = Direction: IN (1)
        .... 0000 = Endpoint number: 0
    URB transfer type: URB_CONTROL (0x02)
    Packet Data Length: 8
    [Response in: 1672258]
    Control transfer stage: Setup (0)
Setup Data
    bmRequestType: 0x80
        1... .... = Direction: Device-to-host
        .00. .... = Type: Standard (0x0)
        ...0 0000 = Recipient: Device (0x00)
    bRequest: GET DESCRIPTOR (6)
    Descriptor Index: 0x00
    bDescriptorType: CONFIGURATION (0x02)
    Language Id: no language specified (0x0000)
    wLength: 91

0000  1c 00 20 ba d8 11 03 83 ff ff 00 00 00 00 0b 00   .. .............
0010  00 01 00 09 00 80 02 08 00 00 00 00 80 06 00 02   ................
0020  00 00 5b 00                                       ..[.

No.     Time           Source                Destination           Protocol Length Info
1672258 6510.439286    1.9.0                 host                  USB      119    GET DESCRIPTOR Response CONFIGURATION

Frame 1672258: 119 bytes on wire (952 bits), 119 bytes captured (952 bits) on interface \\.\USBPcap1, id 0
USB URB
    [Source: 1.9.0]
    [Destination: host]
    USBPcap pseudoheader length: 28
    IRP ID: 0xffff830311d8ba20
    IRP USBD_STATUS: USBD_STATUS_SUCCESS (0x00000000)
    URB Function: URB_FUNCTION_CONTROL_TRANSFER (0x0008)
    IRP information: 0x01, Direction: PDO -> FDO
        0000 000. = Reserved: 0x00
        .... ...1 = Direction: PDO -> FDO (0x1)
    URB bus id: 1
    Device address: 9
    Endpoint: 0x80, Direction: IN
        1... .... = Direction: IN (1)
        .... 0000 = Endpoint number: 0
    URB transfer type: URB_CONTROL (0x02)
    Packet Data Length: 91
    [Request in: 1672257]
    [Time from request: 0.000248000 seconds]
    Control transfer stage: Complete (3)
CONFIGURATION DESCRIPTOR
    bLength: 9
    bDescriptorType: 0x02 (CONFIGURATION)
    wTotalLength: 91
    bNumInterfaces: 3
    bConfigurationValue: 1
    iConfiguration: 0
    Configuration bmAttributes: 0xa0  NOT SELF-POWERED  REMOTE-WAKEUP
    bMaxPower: 50  (100mA)
INTERFACE DESCRIPTOR (0.0): class HID
    bLength: 9
    bDescriptorType: 0x04 (INTERFACE)
    bInterfaceNumber: 0
    bAlternateSetting: 0
    bNumEndpoints: 1
    bInterfaceClass: HID (0x03)
    bInterfaceSubClass: Boot Interface (0x01)
    bInterfaceProtocol: Keyboard (0x01)
    iInterface: 0
HID DESCRIPTOR
ENDPOINT DESCRIPTOR
    bLength: 7
    bDescriptorType: 0x05 (ENDPOINT)
    bEndpointAddress: 0x81  IN  Endpoint:1
    bmAttributes: 0x03
    wMaxPacketSize: 8
    bInterval: 1
INTERFACE DESCRIPTOR (1.0): class HID
    bLength: 9
    bDescriptorType: 0x04 (INTERFACE)
    bInterfaceNumber: 1
    bAlternateSetting: 0
    bNumEndpoints: 2
    bInterfaceClass: HID (0x03)
    bInterfaceSubClass: No Subclass (0x00)
    bInterfaceProtocol: 0x00
    iInterface: 2
HID DESCRIPTOR
ENDPOINT DESCRIPTOR
    bLength: 7
    bDescriptorType: 0x05 (ENDPOINT)
    bEndpointAddress: 0x83  IN  Endpoint:3
    bmAttributes: 0x03
    wMaxPacketSize: 64
    bInterval: 1
ENDPOINT DESCRIPTOR
    bLength: 7
    bDescriptorType: 0x05 (ENDPOINT)
    bEndpointAddress: 0x04  OUT  Endpoint:4
    bmAttributes: 0x03
    wMaxPacketSize: 64
    bInterval: 1
INTERFACE DESCRIPTOR (2.0): class HID
    bLength: 9
    bDescriptorType: 0x04 (INTERFACE)
    bInterfaceNumber: 2
    bAlternateSetting: 0
    bNumEndpoints: 1
    bInterfaceClass: HID (0x03)
    bInterfaceSubClass: No Subclass (0x00)
    bInterfaceProtocol: 0x00
    iInterface: 0
HID DESCRIPTOR
ENDPOINT DESCRIPTOR
    bLength: 7
    bDescriptorType: 0x05 (ENDPOINT)
    bEndpointAddress: 0x82  IN  Endpoint:2
    bmAttributes: 0x03
    wMaxPacketSize: 64
    bInterval: 1

0000  1c 00 20 ba d8 11 03 83 ff ff 00 00 00 00 08 00   .. .............
0010  01 01 00 09 00 80 02 5b 00 00 00 03 09 02 5b 00   .......[......[.
0020  03 01 00 a0 32 09 04 00 00 01 03 01 01 00 09 21   ....2..........!
0030  11 01 00 01 22 40 00 07 05 81 03 08 00 01 09 04   ...."@..........
0040  01 00 02 03 00 00 02 09 21 11 01 00 01 22 22 00   ........!...."".
0050  07 05 83 03 40 00 01 07 05 04 03 40 00 01 09 04   ....@......@....
0060  02 00 01 03 00 00 00 09 21 11 01 00 01 22 cb 00   ........!...."..
0070  07 05 82 03 40 00 01                              ....@..

No.     Time           Source                Destination           Protocol Length Info
1672259 6510.444043    host                  1.9.0                 USB      36     SET CONFIGURATION Request

Frame 1672259: 36 bytes on wire (288 bits), 36 bytes captured (288 bits) on interface \\.\USBPcap1, id 0
USB URB
    [Source: host]
    [Destination: 1.9.0]
    USBPcap pseudoheader length: 28
    IRP ID: 0xffff830311d8ba20
    IRP USBD_STATUS: USBD_STATUS_SUCCESS (0x00000000)
    URB Function: URB_FUNCTION_SELECT_CONFIGURATION (0x0000)
    IRP information: 0x00, Direction: FDO -> PDO
        0000 000. = Reserved: 0x00
        .... ...0 = Direction: FDO -> PDO (0x0)
    URB bus id: 1
    Device address: 9
    Endpoint: 0x00, Direction: OUT
        0... .... = Direction: OUT (0)
        .... 0000 = Endpoint number: 0
    URB transfer type: URB_CONTROL (0x02)
    Packet Data Length: 8
    [Response in: 1672260]
    Control transfer stage: Setup (0)
Setup Data
    bmRequestType: 0x00
        0... .... = Direction: Host-to-device
        .00. .... = Type: Standard (0x0)
        ...0 0000 = Recipient: Device (0x00)
    bRequest: SET CONFIGURATION (9)
    bConfigurationValue: 1
    wIndex: 0 (0x0000)
    wLength: 0

0000  1c 00 20 ba d8 11 03 83 ff ff 00 00 00 00 00 00   .. .............
0010  00 01 00 09 00 00 02 08 00 00 00 00 00 09 01 00   ................
0020  00 00 00 00                                       ....

No.     Time           Source                Destination           Protocol Length Info
1672260 6510.444656    1.9.0                 host                  USB      28     SET CONFIGURATION Response

Frame 1672260: 28 bytes on wire (224 bits), 28 bytes captured (224 bits) on interface \\.\USBPcap1, id 0
USB URB
    [Source: 1.9.0]
    [Destination: host]
    USBPcap pseudoheader length: 28
    IRP ID: 0xffff830311d8ba20
    IRP USBD_STATUS: USBD_STATUS_SUCCESS (0x00000000)
    URB Function: URB_FUNCTION_SELECT_CONFIGURATION (0x0000)
    IRP information: 0x01, Direction: PDO -> FDO
        0000 000. = Reserved: 0x00
        .... ...1 = Direction: PDO -> FDO (0x1)
    URB bus id: 1
    Device address: 9
    Endpoint: 0x00, Direction: OUT
        0... .... = Direction: OUT (0)
        .... 0000 = Endpoint number: 0
    URB transfer type: URB_CONTROL (0x02)
    Packet Data Length: 0
    [Request in: 1672259]
    [Time from request: 0.000613000 seconds]
    Control transfer stage: Complete (3)

0000  1c 00 20 ba d8 11 03 83 ff ff 00 00 00 00 00 00   .. .............
0010  01 01 00 09 00 00 02 00 00 00 00 03               ............

No.     Time           Source                Destination           Protocol Length Info
1672261 6510.444817    host                  1.9.0                 USB      27     Unknown type 7f

Frame 1672261: 27 bytes on wire (216 bits), 27 bytes captured (216 bits) on interface \\.\USBPcap1, id 0
USB URB
    [Source: host]
    [Destination: 1.9.0]
    USBPcap pseudoheader length: 27
    IRP ID: 0xffff830310c5da20
    IRP USBD_STATUS: USBD_STATUS_SUCCESS (0x00000000)
    URB Function: URB_FUNCTION_GET_MS_FEATURE_DESCRIPTOR (0x002a)
    IRP information: 0x00, Direction: FDO -> PDO
        0000 000. = Reserved: 0x00
        .... ...0 = Direction: FDO -> PDO (0x0)
    URB bus id: 1
    Device address: 9
    Endpoint: 0x00, Direction: OUT
        0... .... = Direction: OUT (0)
        .... 0000 = Endpoint number: 0
    URB transfer type: Unknown (0xff)
    Packet Data Length: 0
    [Response in: 1672262]

0000  1b 00 20 da c5 10 03 83 ff ff 00 00 00 00 2a 00   .. ...........*.
0010  00 01 00 09 00 00 ff 00 00 00 00                  ...........

No.     Time           Source                Destination           Protocol Length Info
1672262 6510.444824    1.9.0                 host                  USB      27     Unknown type 7f

Frame 1672262: 27 bytes on wire (216 bits), 27 bytes captured (216 bits) on interface \\.\USBPcap1, id 0
USB URB
    [Source: 1.9.0]
    [Destination: host]
    USBPcap pseudoheader length: 27
    IRP ID: 0xffff830310c5da20
    IRP USBD_STATUS: USBD_STATUS_SUCCESS (0x00000000)
    URB Function: URB_FUNCTION_GET_MS_FEATURE_DESCRIPTOR (0x002a)
    IRP information: 0x01, Direction: PDO -> FDO
        0000 000. = Reserved: 0x00
        .... ...1 = Direction: PDO -> FDO (0x1)
    URB bus id: 1
    Device address: 9
    Endpoint: 0x00, Direction: OUT
        0... .... = Direction: OUT (0)
        .... 0000 = Endpoint number: 0
    URB transfer type: Unknown (0xff)
    Packet Data Length: 0
    [Request in: 1672261]
    [Time from request: 0.000007000 seconds]

0000  1b 00 20 da c5 10 03 83 ff ff 00 00 00 00 2a 00   .. ...........*.
0010  01 01 00 09 00 00 ff 00 00 00 00                  ...........

No.     Time           Source                Destination           Protocol Length Info
1672263 6510.444834    host                  1.9.0                 USB      27     Unknown type 7f

Frame 1672263: 27 bytes on wire (216 bits), 27 bytes captured (216 bits) on interface \\.\USBPcap1, id 0
USB URB
    [Source: host]
    [Destination: 1.9.0]
    USBPcap pseudoheader length: 27
    IRP ID: 0xffff830310c5da20
    IRP USBD_STATUS: USBD_STATUS_SUCCESS (0x00000000)
    URB Function: URB_FUNCTION_GET_MS_FEATURE_DESCRIPTOR (0x002a)
    IRP information: 0x00, Direction: FDO -> PDO
        0000 000. = Reserved: 0x00
        .... ...0 = Direction: FDO -> PDO (0x0)
    URB bus id: 1
    Device address: 9
    Endpoint: 0x00, Direction: OUT
        0... .... = Direction: OUT (0)
        .... 0000 = Endpoint number: 0
    URB transfer type: Unknown (0xff)
    Packet Data Length: 0
    [Response in: 1672264]

0000  1b 00 20 da c5 10 03 83 ff ff 00 00 00 00 2a 00   .. ...........*.
0010  00 01 00 09 00 00 ff 00 00 00 00                  ...........

No.     Time           Source                Destination           Protocol Length Info
1672264 6510.445008    1.9.0                 host                  USB      44     GET STATUS Response

Frame 1672264: 44 bytes on wire (352 bits), 44 bytes captured (352 bits) on interface \\.\USBPcap1, id 0
USB URB
    [Source: 1.9.0]
    [Destination: host]
    USBPcap pseudoheader length: 28
    IRP ID: 0xffff830310c5da20
    IRP USBD_STATUS: USBD_STATUS_SUCCESS (0x00000000)
    URB Function: URB_FUNCTION_CONTROL_TRANSFER (0x0008)
    IRP information: 0x01, Direction: PDO -> FDO
        0000 000. = Reserved: 0x00
        .... ...1 = Direction: PDO -> FDO (0x1)
    URB bus id: 1
    Device address: 9
    Endpoint: 0x80, Direction: IN
        1... .... = Direction: IN (1)
        .... 0000 = Endpoint number: 0
    URB transfer type: URB_CONTROL (0x02)
    Packet Data Length: 16
    [Request in: 1672263]
    [Time from request: 0.000174000 seconds]
    Control transfer stage: Complete (3)
wStatus: 0x0028
Leftover Capture Data: 0000000104000100000000000000

0000  1c 00 20 da c5 10 03 83 ff ff 00 00 00 00 08 00   .. .............
0010  01 01 00 09 00 80 02 10 00 00 00 03 28 00 00 00   ............(...
0020  00 01 04 00 01 00 00 00 00 00 00 00               ............

No.     Time           Source                Destination           Protocol Length Info
1672265 6510.445038    host                  1.9.0                 USB      27     Unknown type 7f

Frame 1672265: 27 bytes on wire (216 bits), 27 bytes captured (216 bits) on interface \\.\USBPcap1, id 0
USB URB
    [Source: host]
    [Destination: 1.9.0]
    USBPcap pseudoheader length: 27
    IRP ID: 0xffff83030b3d8a20
    IRP USBD_STATUS: USBD_STATUS_SUCCESS (0x00000000)
    URB Function: URB_FUNCTION_GET_MS_FEATURE_DESCRIPTOR (0x002a)
    IRP information: 0x00, Direction: FDO -> PDO
        0000 000. = Reserved: 0x00
        .... ...0 = Direction: FDO -> PDO (0x0)
    URB bus id: 1
    Device address: 9
    Endpoint: 0x00, Direction: OUT
        0... .... = Direction: OUT (0)
        .... 0000 = Endpoint number: 0
    URB transfer type: Unknown (0xff)
    Packet Data Length: 0
    [Response in: 1672266]

0000  1b 00 20 8a 3d 0b 03 83 ff ff 00 00 00 00 2a 00   .. .=.........*.
0010  00 01 00 09 00 00 ff 00 00 00 00                  ...........

No.     Time           Source                Destination           Protocol Length Info
1672266 6510.445198    1.9.0                 host                  USB      68     GET STATUS Response

Frame 1672266: 68 bytes on wire (544 bits), 68 bytes captured (544 bits) on interface \\.\USBPcap1, id 0
USB URB
    [Source: 1.9.0]
    [Destination: host]
    USBPcap pseudoheader length: 28
    IRP ID: 0xffff83030b3d8a20
    IRP USBD_STATUS: USBD_STATUS_SUCCESS (0x00000000)
    URB Function: URB_FUNCTION_CONTROL_TRANSFER (0x0008)
    IRP information: 0x01, Direction: PDO -> FDO
        0000 000. = Reserved: 0x00
        .... ...1 = Direction: PDO -> FDO (0x1)
    URB bus id: 1
    Device address: 9
    Endpoint: 0x80, Direction: IN
        1... .... = Direction: IN (1)
        .... 0000 = Endpoint number: 0
    URB transfer type: URB_CONTROL (0x02)
    Packet Data Length: 40
    [Request in: 1672265]
    [Time from request: 0.000160000 seconds]
    Control transfer stage: Complete (3)
wStatus: 0x0028
Leftover Capture Data: 0000000104000100000000000000030158555342313000000000000000000000000000000000

0000  1c 00 20 8a 3d 0b 03 83 ff ff 00 00 00 00 08 00   .. .=...........
0010  01 01 00 09 00 80 02 28 00 00 00 03 28 00 00 00   .......(....(...
0020  00 01 04 00 01 00 00 00 00 00 00 00 03 01 58 55   ..............XU
0030  53 42 31 30 00 00 00 00 00 00 00 00 00 00 00 00   SB10............
0040  00 00 00 00                                       ....

No.     Time           Source                Destination           Protocol Length Info
1672267 6510.448487    host                  1.9.0                 USB      36     GET DESCRIPTOR Request STRING

Frame 1672267: 36 bytes on wire (288 bits), 36 bytes captured (288 bits) on interface \\.\USBPcap1, id 0
USB URB
    [Source: host]
    [Destination: 1.9.0]
    USBPcap pseudoheader length: 28
    IRP ID: 0xffff83030b3d8a20
    IRP USBD_STATUS: USBD_STATUS_SUCCESS (0x00000000)
    URB Function: URB_FUNCTION_GET_DESCRIPTOR_FROM_DEVICE (0x000b)
    IRP information: 0x00, Direction: FDO -> PDO
        0000 000. = Reserved: 0x00
        .... ...0 = Direction: FDO -> PDO (0x0)
    URB bus id: 1
    Device address: 9
    Endpoint: 0x80, Direction: IN
        1... .... = Direction: IN (1)
        .... 0000 = Endpoint number: 0
    URB transfer type: URB_CONTROL (0x02)
    Packet Data Length: 8
    [Response in: 1672268]
    Control transfer stage: Setup (0)
Setup Data
    bmRequestType: 0x80
        1... .... = Direction: Device-to-host
        .00. .... = Type: Standard (0x0)
        ...0 0000 = Recipient: Device (0x00)
    bRequest: GET DESCRIPTOR (6)
    Descriptor Index: 0x01
    bDescriptorType: STRING (0x03)
    Language Id: English (United States) (0x0409)
    wLength: 4

0000  1c 00 20 8a 3d 0b 03 83 ff ff 00 00 00 00 0b 00   .. .=...........
0010  00 01 00 09 00 80 02 08 00 00 00 00 80 06 01 03   ................
0020  09 04 04 00                                       ....

No.     Time           Source                Destination           Protocol Length Info
1672268 6510.448658    1.9.0                 host                  USB      32     GET DESCRIPTOR Response STRING

Frame 1672268: 32 bytes on wire (256 bits), 32 bytes captured (256 bits) on interface \\.\USBPcap1, id 0
USB URB
    [Source: 1.9.0]
    [Destination: host]
    USBPcap pseudoheader length: 28
    IRP ID: 0xffff83030b3d8a20
    IRP USBD_STATUS: USBD_STATUS_SUCCESS (0x00000000)
    URB Function: URB_FUNCTION_CONTROL_TRANSFER (0x0008)
    IRP information: 0x01, Direction: PDO -> FDO
        0000 000. = Reserved: 0x00
        .... ...1 = Direction: PDO -> FDO (0x1)
    URB bus id: 1
    Device address: 9
    Endpoint: 0x80, Direction: IN
        1... .... = Direction: IN (1)
        .... 0000 = Endpoint number: 0
    URB transfer type: URB_CONTROL (0x02)
    Packet Data Length: 4
    [Request in: 1672267]
    [Time from request: 0.000171000 seconds]
    Control transfer stage: Complete (3)
STRING DESCRIPTOR
    bLength: 42
    bDescriptorType: 0x03 (STRING)
    bString: C

0000  1c 00 20 8a 3d 0b 03 83 ff ff 00 00 00 00 08 00   .. .=...........
0010  01 01 00 09 00 80 02 04 00 00 00 03 2a 03 43 00   ............*.C.

No.     Time           Source                Destination           Protocol Length Info
1672269 6510.448690    host                  1.9.0                 USB      36     GET DESCRIPTOR Request STRING

Frame 1672269: 36 bytes on wire (288 bits), 36 bytes captured (288 bits) on interface \\.\USBPcap1, id 0
USB URB
    [Source: host]
    [Destination: 1.9.0]
    USBPcap pseudoheader length: 28
    IRP ID: 0xffff83030b3d8a20
    IRP USBD_STATUS: USBD_STATUS_SUCCESS (0x00000000)
    URB Function: URB_FUNCTION_GET_DESCRIPTOR_FROM_DEVICE (0x000b)
    IRP information: 0x00, Direction: FDO -> PDO
        0000 000. = Reserved: 0x00
        .... ...0 = Direction: FDO -> PDO (0x0)
    URB bus id: 1
    Device address: 9
    Endpoint: 0x80, Direction: IN
        1... .... = Direction: IN (1)
        .... 0000 = Endpoint number: 0
    URB transfer type: URB_CONTROL (0x02)
    Packet Data Length: 8
    [Response in: 1672270]
    Control transfer stage: Setup (0)
Setup Data
    bmRequestType: 0x80
        1... .... = Direction: Device-to-host
        .00. .... = Type: Standard (0x0)
        ...0 0000 = Recipient: Device (0x00)
    bRequest: GET DESCRIPTOR (6)
    Descriptor Index: 0x01
    bDescriptorType: STRING (0x03)
    Language Id: English (United States) (0x0409)
    wLength: 42

0000  1c 00 20 8a 3d 0b 03 83 ff ff 00 00 00 00 0b 00   .. .=...........
0010  00 01 00 09 00 80 02 08 00 00 00 00 80 06 01 03   ................
0020  09 04 2a 00                                       ..*.

No.     Time           Source                Destination           Protocol Length Info
1672270 6510.448848    1.9.0                 host                  USB      70     GET DESCRIPTOR Response STRING

Frame 1672270: 70 bytes on wire (560 bits), 70 bytes captured (560 bits) on interface \\.\USBPcap1, id 0
USB URB
    [Source: 1.9.0]
    [Destination: host]
    USBPcap pseudoheader length: 28
    IRP ID: 0xffff83030b3d8a20
    IRP USBD_STATUS: USBD_STATUS_SUCCESS (0x00000000)
    URB Function: URB_FUNCTION_CONTROL_TRANSFER (0x0008)
    IRP information: 0x01, Direction: PDO -> FDO
        0000 000. = Reserved: 0x00
        .... ...1 = Direction: PDO -> FDO (0x1)
    URB bus id: 1
    Device address: 9
    Endpoint: 0x80, Direction: IN
        1... .... = Direction: IN (1)
        .... 0000 = Endpoint number: 0
    URB transfer type: URB_CONTROL (0x02)
    Packet Data Length: 42
    [Request in: 1672269]
    [Time from request: 0.000158000 seconds]
    Control transfer stage: Complete (3)
STRING DESCRIPTOR
    bLength: 42
    bDescriptorType: 0x03 (STRING)
    bString: Controlpad (Gateron)

0000  1c 00 20 8a 3d 0b 03 83 ff ff 00 00 00 00 08 00   .. .=...........
0010  01 01 00 09 00 80 02 2a 00 00 00 03 2a 03 43 00   .......*....*.C.
0020  6f 00 6e 00 74 00 72 00 6f 00 6c 00 70 00 61 00   o.n.t.r.o.l.p.a.
0030  64 00 20 00 28 00 47 00 61 00 74 00 65 00 72 00   d. .(.G.a.t.e.r.
0040  6f 00 6e 00 29 00                                 o.n.).

No.     Time           Source                Destination           Protocol Length Info
1672271 6510.452962    host                  1.9.0                 USB      36     GET DESCRIPTOR Request STRING

Frame 1672271: 36 bytes on wire (288 bits), 36 bytes captured (288 bits) on interface \\.\USBPcap1, id 0
USB URB
    [Source: host]
    [Destination: 1.9.0]
    USBPcap pseudoheader length: 28
    IRP ID: 0xffff83030b3d8a20
    IRP USBD_STATUS: USBD_STATUS_SUCCESS (0x00000000)
    URB Function: URB_FUNCTION_GET_DESCRIPTOR_FROM_DEVICE (0x000b)
    IRP information: 0x00, Direction: FDO -> PDO
        0000 000. = Reserved: 0x00
        .... ...0 = Direction: FDO -> PDO (0x0)
    URB bus id: 1
    Device address: 9
    Endpoint: 0x80, Direction: IN
        1... .... = Direction: IN (1)
        .... 0000 = Endpoint number: 0
    URB transfer type: URB_CONTROL (0x02)
    Packet Data Length: 8
    [Response in: 1672272]
    Control transfer stage: Setup (0)
Setup Data
    bmRequestType: 0x80
        1... .... = Direction: Device-to-host
        .00. .... = Type: Standard (0x0)
        ...0 0000 = Recipient: Device (0x00)
    bRequest: GET DESCRIPTOR (6)
    Descriptor Index: 0x02
    bDescriptorType: STRING (0x03)
    Language Id: English (United States) (0x0409)
    wLength: 4

0000  1c 00 20 8a 3d 0b 03 83 ff ff 00 00 00 00 0b 00   .. .=...........
0010  00 01 00 09 00 80 02 08 00 00 00 00 80 06 02 03   ................
0020  09 04 04 00                                       ....

No.     Time           Source                Destination           Protocol Length Info
1672272 6510.453174    1.9.0                 host                  USB      32     GET DESCRIPTOR Response STRING

Frame 1672272: 32 bytes on wire (256 bits), 32 bytes captured (256 bits) on interface \\.\USBPcap1, id 0
USB URB
    [Source: 1.9.0]
    [Destination: host]
    USBPcap pseudoheader length: 28
    IRP ID: 0xffff83030b3d8a20
    IRP USBD_STATUS: USBD_STATUS_SUCCESS (0x00000000)
    URB Function: URB_FUNCTION_CONTROL_TRANSFER (0x0008)
    IRP information: 0x01, Direction: PDO -> FDO
        0000 000. = Reserved: 0x00
        .... ...1 = Direction: PDO -> FDO (0x1)
    URB bus id: 1
    Device address: 9
    Endpoint: 0x80, Direction: IN
        1... .... = Direction: IN (1)
        .... 0000 = Endpoint number: 0
    URB transfer type: URB_CONTROL (0x02)
    Packet Data Length: 4
    [Request in: 1672271]
    [Time from request: 0.000212000 seconds]
    Control transfer stage: Complete (3)
STRING DESCRIPTOR
    bLength: 38
    bDescriptorType: 0x03 (STRING)
    bString: C

0000  1c 00 20 8a 3d 0b 03 83 ff ff 00 00 00 00 08 00   .. .=...........
0010  01 01 00 09 00 80 02 04 00 00 00 03 26 03 43 00   ............&.C.

No.     Time           Source                Destination           Protocol Length Info
1672273 6510.453206    host                  1.9.0                 USB      36     GET DESCRIPTOR Request STRING

Frame 1672273: 36 bytes on wire (288 bits), 36 bytes captured (288 bits) on interface \\.\USBPcap1, id 0
USB URB
    [Source: host]
    [Destination: 1.9.0]
    USBPcap pseudoheader length: 28
    IRP ID: 0xffff830311d8ba20
    IRP USBD_STATUS: USBD_STATUS_SUCCESS (0x00000000)
    URB Function: URB_FUNCTION_GET_DESCRIPTOR_FROM_DEVICE (0x000b)
    IRP information: 0x00, Direction: FDO -> PDO
        0000 000. = Reserved: 0x00
        .... ...0 = Direction: FDO -> PDO (0x0)
    URB bus id: 1
    Device address: 9
    Endpoint: 0x80, Direction: IN
        1... .... = Direction: IN (1)
        .... 0000 = Endpoint number: 0
    URB transfer type: URB_CONTROL (0x02)
    Packet Data Length: 8
    [Response in: 1672274]
    Control transfer stage: Setup (0)
Setup Data
    bmRequestType: 0x80
        1... .... = Direction: Device-to-host
        .00. .... = Type: Standard (0x0)
        ...0 0000 = Recipient: Device (0x00)
    bRequest: GET DESCRIPTOR (6)
    Descriptor Index: 0x02
    bDescriptorType: STRING (0x03)
    Language Id: English (United States) (0x0409)
    wLength: 38

0000  1c 00 20 ba d8 11 03 83 ff ff 00 00 00 00 0b 00   .. .............
0010  00 01 00 09 00 80 02 08 00 00 00 00 80 06 02 03   ................
0020  09 04 26 00                                       ..&.

No.     Time           Source                Destination           Protocol Length Info
1672274 6510.453366    1.9.0                 host                  USB      66     GET DESCRIPTOR Response STRING

Frame 1672274: 66 bytes on wire (528 bits), 66 bytes captured (528 bits) on interface \\.\USBPcap1, id 0
USB URB
    [Source: 1.9.0]
    [Destination: host]
    USBPcap pseudoheader length: 28
    IRP ID: 0xffff830311d8ba20
    IRP USBD_STATUS: USBD_STATUS_SUCCESS (0x00000000)
    URB Function: URB_FUNCTION_CONTROL_TRANSFER (0x0008)
    IRP information: 0x01, Direction: PDO -> FDO
        0000 000. = Reserved: 0x00
        .... ...1 = Direction: PDO -> FDO (0x1)
    URB bus id: 1
    Device address: 9
    Endpoint: 0x80, Direction: IN
        1... .... = Direction: IN (1)
        .... 0000 = Endpoint number: 0
    URB transfer type: URB_CONTROL (0x02)
    Packet Data Length: 38
    [Request in: 1672273]
    [Time from request: 0.000160000 seconds]
    Control transfer stage: Complete (3)
STRING DESCRIPTOR
    bLength: 38
    bDescriptorType: 0x03 (STRING)
    bString: CY040338016A0700 G

0000  1c 00 20 ba d8 11 03 83 ff ff 00 00 00 00 08 00   .. .............
0010  01 01 00 09 00 80 02 26 00 00 00 03 26 03 43 00   .......&....&.C.
0020  59 00 30 00 34 00 30 00 33 00 33 00 38 00 30 00   Y.0.4.0.3.3.8.0.
0030  31 00 36 00 41 00 30 00 37 00 30 00 30 00 20 00   1.6.A.0.7.0.0. .
0040  47 00                                             G.

No.     Time           Source                Destination           Protocol Length Info
1672275 6510.456274    host                  1.9.0                 USB      36     GET DESCRIPTOR Request STRING

Frame 1672275: 36 bytes on wire (288 bits), 36 bytes captured (288 bits) on interface \\.\USBPcap1, id 0
USB URB
    [Source: host]
    [Destination: 1.9.0]
    USBPcap pseudoheader length: 28
    IRP ID: 0xffff830311d8ba20
    IRP USBD_STATUS: USBD_STATUS_SUCCESS (0x00000000)
    URB Function: URB_FUNCTION_GET_DESCRIPTOR_FROM_DEVICE (0x000b)
    IRP information: 0x00, Direction: FDO -> PDO
        0000 000. = Reserved: 0x00
        .... ...0 = Direction: FDO -> PDO (0x0)
    URB bus id: 1
    Device address: 9
    Endpoint: 0x80, Direction: IN
        1... .... = Direction: IN (1)
        .... 0000 = Endpoint number: 0
    URB transfer type: URB_CONTROL (0x02)
    Packet Data Length: 8
    [Response in: 1672276]
    Control transfer stage: Setup (0)
Setup Data
    bmRequestType: 0x80
        1... .... = Direction: Device-to-host
        .00. .... = Type: Standard (0x0)
        ...0 0000 = Recipient: Device (0x00)
    bRequest: GET DESCRIPTOR (6)
    Descriptor Index: 0x01
    bDescriptorType: STRING (0x03)
    Language Id: English (United States) (0x0409)
    wLength: 4

0000  1c 00 20 ba d8 11 03 83 ff ff 00 00 00 00 0b 00   .. .............
0010  00 01 00 09 00 80 02 08 00 00 00 00 80 06 01 03   ................
0020  09 04 04 00                                       ....

No.     Time           Source                Destination           Protocol Length Info
1672276 6510.456426    1.9.0                 host                  USB      32     GET DESCRIPTOR Response STRING

Frame 1672276: 32 bytes on wire (256 bits), 32 bytes captured (256 bits) on interface \\.\USBPcap1, id 0
USB URB
    [Source: 1.9.0]
    [Destination: host]
    USBPcap pseudoheader length: 28
    IRP ID: 0xffff830311d8ba20
    IRP USBD_STATUS: USBD_STATUS_SUCCESS (0x00000000)
    URB Function: URB_FUNCTION_CONTROL_TRANSFER (0x0008)
    IRP information: 0x01, Direction: PDO -> FDO
        0000 000. = Reserved: 0x00
        .... ...1 = Direction: PDO -> FDO (0x1)
    URB bus id: 1
    Device address: 9
    Endpoint: 0x80, Direction: IN
        1... .... = Direction: IN (1)
        .... 0000 = Endpoint number: 0
    URB transfer type: URB_CONTROL (0x02)
    Packet Data Length: 4
    [Request in: 1672275]
    [Time from request: 0.000152000 seconds]
    Control transfer stage: Complete (3)
STRING DESCRIPTOR
    bLength: 42
    bDescriptorType: 0x03 (STRING)
    bString: C

0000  1c 00 20 ba d8 11 03 83 ff ff 00 00 00 00 08 00   .. .............
0010  01 01 00 09 00 80 02 04 00 00 00 03 2a 03 43 00   ............*.C.

No.     Time           Source                Destination           Protocol Length Info
1672277 6510.456442    host                  1.9.0                 USB      36     GET DESCRIPTOR Request STRING

Frame 1672277: 36 bytes on wire (288 bits), 36 bytes captured (288 bits) on interface \\.\USBPcap1, id 0
USB URB
    [Source: host]
    [Destination: 1.9.0]
    USBPcap pseudoheader length: 28
    IRP ID: 0xffff830311d8ba20
    IRP USBD_STATUS: USBD_STATUS_SUCCESS (0x00000000)
    URB Function: URB_FUNCTION_GET_DESCRIPTOR_FROM_DEVICE (0x000b)
    IRP information: 0x00, Direction: FDO -> PDO
        0000 000. = Reserved: 0x00
        .... ...0 = Direction: FDO -> PDO (0x0)
    URB bus id: 1
    Device address: 9
    Endpoint: 0x80, Direction: IN
        1... .... = Direction: IN (1)
        .... 0000 = Endpoint number: 0
    URB transfer type: URB_CONTROL (0x02)
    Packet Data Length: 8
    [Response in: 1672278]
    Control transfer stage: Setup (0)
Setup Data
    bmRequestType: 0x80
        1... .... = Direction: Device-to-host
        .00. .... = Type: Standard (0x0)
        ...0 0000 = Recipient: Device (0x00)
    bRequest: GET DESCRIPTOR (6)
    Descriptor Index: 0x01
    bDescriptorType: STRING (0x03)
    Language Id: English (United States) (0x0409)
    wLength: 42

0000  1c 00 20 ba d8 11 03 83 ff ff 00 00 00 00 0b 00   .. .............
0010  00 01 00 09 00 80 02 08 00 00 00 00 80 06 01 03   ................
0020  09 04 2a 00                                       ..*.

No.     Time           Source                Destination           Protocol Length Info
1672278 6510.456591    1.9.0                 host                  USB      70     GET DESCRIPTOR Response STRING

Frame 1672278: 70 bytes on wire (560 bits), 70 bytes captured (560 bits) on interface \\.\USBPcap1, id 0
USB URB
    [Source: 1.9.0]
    [Destination: host]
    USBPcap pseudoheader length: 28
    IRP ID: 0xffff830311d8ba20
    IRP USBD_STATUS: USBD_STATUS_SUCCESS (0x00000000)
    URB Function: URB_FUNCTION_CONTROL_TRANSFER (0x0008)
    IRP information: 0x01, Direction: PDO -> FDO
        0000 000. = Reserved: 0x00
        .... ...1 = Direction: PDO -> FDO (0x1)
    URB bus id: 1
    Device address: 9
    Endpoint: 0x80, Direction: IN
        1... .... = Direction: IN (1)
        .... 0000 = Endpoint number: 0
    URB transfer type: URB_CONTROL (0x02)
    Packet Data Length: 42
    [Request in: 1672277]
    [Time from request: 0.000149000 seconds]
    Control transfer stage: Complete (3)
STRING DESCRIPTOR
    bLength: 42
    bDescriptorType: 0x03 (STRING)
    bString: Controlpad (Gateron)

0000  1c 00 20 ba d8 11 03 83 ff ff 00 00 00 00 08 00   .. .............
0010  01 01 00 09 00 80 02 2a 00 00 00 03 2a 03 43 00   .......*....*.C.
0020  6f 00 6e 00 74 00 72 00 6f 00 6c 00 70 00 61 00   o.n.t.r.o.l.p.a.
0030  64 00 20 00 28 00 47 00 61 00 74 00 65 00 72 00   d. .(.G.a.t.e.r.
0040  6f 00 6e 00 29 00                                 o.n.).

No.     Time           Source                Destination           Protocol Length Info
1672279 6510.459733    host                  1.9.0                 USBHID   36     SET_IDLE Request

Frame 1672279: 36 bytes on wire (288 bits), 36 bytes captured (288 bits) on interface \\.\USBPcap1, id 0
USB URB
    [Source: host]
    [Destination: 1.9.0]
    USBPcap pseudoheader length: 28
    IRP ID: 0xffff83031193aa20
    IRP USBD_STATUS: USBD_STATUS_SUCCESS (0x00000000)
    URB Function: URB_FUNCTION_CLASS_INTERFACE (0x001b)
    IRP information: 0x00, Direction: FDO -> PDO
        0000 000. = Reserved: 0x00
        .... ...0 = Direction: FDO -> PDO (0x0)
    URB bus id: 1
    Device address: 9
    Endpoint: 0x00, Direction: OUT
        0... .... = Direction: OUT (0)
        .... 0000 = Endpoint number: 0
    URB transfer type: URB_CONTROL (0x02)
    Packet Data Length: 8
    [Response in: 1672280]
    Control transfer stage: Setup (0)
    [bInterfaceClass: HID (0x03)]
Setup Data
    bmRequestType: 0x21
        0... .... = Direction: Host-to-device
        .01. .... = Type: Class (0x1)
        ...0 0001 = Recipient: Interface (0x01)
    bRequest: SET_IDLE (0x0a)
    wValue: 0x0000
    wIndex: 0
    wLength: 0

0000  1c 00 20 aa 93 11 03 83 ff ff 00 00 00 00 1b 00   .. .............
0010  00 01 00 09 00 00 02 08 00 00 00 00 21 0a 00 00   ............!...
0020  00 00 00 00                                       ....

No.     Time           Source                Destination           Protocol Length Info
1672280 6510.459851    1.9.0                 host                  USBHID   28     SET_IDLE Response

Frame 1672280: 28 bytes on wire (224 bits), 28 bytes captured (224 bits) on interface \\.\USBPcap1, id 0
USB URB
    [Source: 1.9.0]
    [Destination: host]
    USBPcap pseudoheader length: 28
    IRP ID: 0xffff83031193aa20
    IRP USBD_STATUS: USBD_STATUS_SUCCESS (0x00000000)
    URB Function: URB_FUNCTION_CONTROL_TRANSFER (0x0008)
    IRP information: 0x01, Direction: PDO -> FDO
        0000 000. = Reserved: 0x00
        .... ...1 = Direction: PDO -> FDO (0x1)
    URB bus id: 1
    Device address: 9
    Endpoint: 0x00, Direction: OUT
        0... .... = Direction: OUT (0)
        .... 0000 = Endpoint number: 0
    URB transfer type: URB_CONTROL (0x02)
    Packet Data Length: 0
    [Request in: 1672279]
    [Time from request: 0.000118000 seconds]
    Control transfer stage: Complete (3)
    [bInterfaceClass: HID (0x03)]

0000  1c 00 20 aa 93 11 03 83 ff ff 00 00 00 00 08 00   .. .............
0010  01 01 00 09 00 00 02 00 00 00 00 03               ............

No.     Time           Source                Destination           Protocol Length Info
1672281 6510.460011    host                  1.9.0                 USBHID   36     GET DESCRIPTOR Request HID Report

Frame 1672281: 36 bytes on wire (288 bits), 36 bytes captured (288 bits) on interface \\.\USBPcap1, id 0
USB URB
    [Source: host]
    [Destination: 1.9.0]
    USBPcap pseudoheader length: 28
    IRP ID: 0xffff83031089ea20
    IRP USBD_STATUS: USBD_STATUS_SUCCESS (0x00000000)
    URB Function: URB_FUNCTION_GET_DESCRIPTOR_FROM_INTERFACE (0x0028)
    IRP information: 0x00, Direction: FDO -> PDO
        0000 000. = Reserved: 0x00
        .... ...0 = Direction: FDO -> PDO (0x0)
    URB bus id: 1
    Device address: 9
    Endpoint: 0x80, Direction: IN
        1... .... = Direction: IN (1)
        .... 0000 = Endpoint number: 0
    URB transfer type: URB_CONTROL (0x02)
    Packet Data Length: 8
    [Response in: 1672282]
    Control transfer stage: Setup (0)
    [bInterfaceClass: HID (0x03)]
Setup Data
    bmRequestType: 0x81
        1... .... = Direction: Device-to-host
        .00. .... = Type: Standard (0x0)
        ...0 0001 = Recipient: Interface (0x01)
    bDescriptorIndex: 0x00
    bDescriptorType: HID Report (0x22)
    wInterfaceNumber: 0
    wDescriptorLength: 128

0000  1c 00 20 ea 89 10 03 83 ff ff 00 00 00 00 28 00   .. ...........(.
0010  00 01 00 09 00 80 02 08 00 00 00 00 81 06 00 22   ..............."
0020  00 00 80 00                                       ....

No.     Time           Source                Destination           Protocol Length Info
1672282 6510.460229    1.9.0                 host                  USBHID   92     GET DESCRIPTOR Response HID Report

Frame 1672282: 92 bytes on wire (736 bits), 92 bytes captured (736 bits) on interface \\.\USBPcap1, id 0
USB URB
    [Source: 1.9.0]
    [Destination: host]
    USBPcap pseudoheader length: 28
    IRP ID: 0xffff83031089ea20
    IRP USBD_STATUS: USBD_STATUS_SUCCESS (0x00000000)
    URB Function: URB_FUNCTION_CONTROL_TRANSFER (0x0008)
    IRP information: 0x01, Direction: PDO -> FDO
        0000 000. = Reserved: 0x00
        .... ...1 = Direction: PDO -> FDO (0x1)
    URB bus id: 1
    Device address: 9
    Endpoint: 0x80, Direction: IN
        1... .... = Direction: IN (1)
        .... 0000 = Endpoint number: 0
    URB transfer type: URB_CONTROL (0x02)
    Packet Data Length: 64
    [Request in: 1672281]
    [Time from request: 0.000218000 seconds]
    Control transfer stage: Complete (3)
    [bInterfaceClass: HID (0x03)]
HID Report

0000  1c 00 20 ea 89 10 03 83 ff ff 00 00 00 00 08 00   .. .............
0010  01 01 00 09 00 80 02 40 00 00 00 03 05 01 09 06   .......@........
0020  a1 01 05 07 19 e0 29 e7 15 00 25 01 75 01 95 08   ......)...%.u...
0030  81 02 95 01 75 08 81 03 95 03 75 01 05 08 19 01   ....u.....u.....
0040  29 03 91 02 95 01 75 05 91 03 95 06 75 08 15 00   ).....u.....u...
0050  26 a4 00 05 07 19 00 29 a4 81 00 c0               &......)....

No.     Time           Source                Destination           Protocol Length Info
1672283 6510.463694    host                  1.9.1                 USB      27     URB_INTERRUPT in

Frame 1672283: 27 bytes on wire (216 bits), 27 bytes captured (216 bits) on interface \\.\USBPcap1, id 0
USB URB
    [Source: host]
    [Destination: 1.9.1]
    USBPcap pseudoheader length: 27
    IRP ID: 0xffff83030f8cda20
    IRP USBD_STATUS: USBD_STATUS_SUCCESS (0x00000000)
    URB Function: URB_FUNCTION_BULK_OR_INTERRUPT_TRANSFER (0x0009)
    IRP information: 0x00, Direction: FDO -> PDO
        0000 000. = Reserved: 0x00
        .... ...0 = Direction: FDO -> PDO (0x0)
    URB bus id: 1
    Device address: 9
    Endpoint: 0x81, Direction: IN
        1... .... = Direction: IN (1)
        .... 0001 = Endpoint number: 1
    URB transfer type: URB_INTERRUPT (0x01)
    Packet Data Length: 0
    [Response in: 1672314]
    [bInterfaceClass: HID (0x03)]

0000  1b 00 20 da 8c 0f 03 83 ff ff 00 00 00 00 09 00   .. .............
0010  00 01 00 09 00 81 01 00 00 00 00                  ...........

No.     Time           Source                Destination           Protocol Length Info
1672284 6510.463742    host                  1.9.1                 USB      27     URB_INTERRUPT in

Frame 1672284: 27 bytes on wire (216 bits), 27 bytes captured (216 bits) on interface \\.\USBPcap1, id 0
USB URB
    [Source: host]
    [Destination: 1.9.1]
    USBPcap pseudoheader length: 27
    IRP ID: 0xffff83030e6dfa20
    IRP USBD_STATUS: USBD_STATUS_SUCCESS (0x00000000)
    URB Function: URB_FUNCTION_BULK_OR_INTERRUPT_TRANSFER (0x0009)
    IRP information: 0x00, Direction: FDO -> PDO
        0000 000. = Reserved: 0x00
        .... ...0 = Direction: FDO -> PDO (0x0)
    URB bus id: 1
    Device address: 9
    Endpoint: 0x81, Direction: IN
        1... .... = Direction: IN (1)
        .... 0001 = Endpoint number: 1
    URB transfer type: URB_INTERRUPT (0x01)
    Packet Data Length: 0
    [bInterfaceClass: HID (0x03)]

0000  1b 00 20 fa 6d 0e 03 83 ff ff 00 00 00 00 09 00   .. .m...........
0010  00 01 00 09 00 81 01 00 00 00 00                  ...........

No.     Time           Source                Destination           Protocol Length Info
1672285 6510.466146    host                  1.9.0                 USBHID   36     SET_IDLE Request

Frame 1672285: 36 bytes on wire (288 bits), 36 bytes captured (288 bits) on interface \\.\USBPcap1, id 0
USB URB
    [Source: host]
    [Destination: 1.9.0]
    USBPcap pseudoheader length: 28
    IRP ID: 0xffff83030ed78a30
    IRP USBD_STATUS: USBD_STATUS_SUCCESS (0x00000000)
    URB Function: URB_FUNCTION_CLASS_INTERFACE (0x001b)
    IRP information: 0x00, Direction: FDO -> PDO
        0000 000. = Reserved: 0x00
        .... ...0 = Direction: FDO -> PDO (0x0)
    URB bus id: 1
    Device address: 9
    Endpoint: 0x00, Direction: OUT
        0... .... = Direction: OUT (0)
        .... 0000 = Endpoint number: 0
    URB transfer type: URB_CONTROL (0x02)
    Packet Data Length: 8
    [Response in: 1672286]
    Control transfer stage: Setup (0)
    [bInterfaceClass: HID (0x03)]
Setup Data
    bmRequestType: 0x21
        0... .... = Direction: Host-to-device
        .01. .... = Type: Class (0x1)
        ...0 0001 = Recipient: Interface (0x01)
    bRequest: SET_IDLE (0x0a)
    wValue: 0x0000
    wIndex: 1
    wLength: 0

0000  1c 00 30 8a d7 0e 03 83 ff ff 00 00 00 00 1b 00   ..0.............
0010  00 01 00 09 00 00 02 08 00 00 00 00 21 0a 00 00   ............!...
0020  01 00 00 00                                       ....

No.     Time           Source                Destination           Protocol Length Info
1672286 6510.466274    1.9.0                 host                  USBHID   28     SET_IDLE Response

Frame 1672286: 28 bytes on wire (224 bits), 28 bytes captured (224 bits) on interface \\.\USBPcap1, id 0
USB URB
    [Source: 1.9.0]
    [Destination: host]
    USBPcap pseudoheader length: 28
    IRP ID: 0xffff83030ed78a30
    IRP USBD_STATUS: USBD_STATUS_STALL_PID (0xc0000004)
    URB Function: URB_FUNCTION_CONTROL_TRANSFER (0x0008)
    IRP information: 0x01, Direction: PDO -> FDO
        0000 000. = Reserved: 0x00
        .... ...1 = Direction: PDO -> FDO (0x1)
    URB bus id: 1
    Device address: 9
    Endpoint: 0x00, Direction: OUT
        0... .... = Direction: OUT (0)
        .... 0000 = Endpoint number: 0
    URB transfer type: URB_CONTROL (0x02)
    Packet Data Length: 0
    [Request in: 1672285]
    [Time from request: 0.000128000 seconds]
    Control transfer stage: Complete (3)
    [bInterfaceClass: HID (0x03)]

0000  1c 00 30 8a d7 0e 03 83 ff ff 04 00 00 c0 08 00   ..0.............
0010  01 01 00 09 00 00 02 00 00 00 00 03               ............

No.     Time           Source                Destination           Protocol Length Info
1672287 6510.466525    host                  1.9.0                 USBHID   36     GET DESCRIPTOR Request HID Report

Frame 1672287: 36 bytes on wire (288 bits), 36 bytes captured (288 bits) on interface \\.\USBPcap1, id 0
USB URB
    [Source: host]
    [Destination: 1.9.0]
    USBPcap pseudoheader length: 28
    IRP ID: 0xffff830310891a30
    IRP USBD_STATUS: USBD_STATUS_SUCCESS (0x00000000)
    URB Function: URB_FUNCTION_GET_DESCRIPTOR_FROM_INTERFACE (0x0028)
    IRP information: 0x00, Direction: FDO -> PDO
        0000 000. = Reserved: 0x00
        .... ...0 = Direction: FDO -> PDO (0x0)
    URB bus id: 1
    Device address: 9
    Endpoint: 0x80, Direction: IN
        1... .... = Direction: IN (1)
        .... 0000 = Endpoint number: 0
    URB transfer type: URB_CONTROL (0x02)
    Packet Data Length: 8
    [Response in: 1672288]
    Control transfer stage: Setup (0)
    [bInterfaceClass: HID (0x03)]
Setup Data
    bmRequestType: 0x81
        1... .... = Direction: Device-to-host
        .00. .... = Type: Standard (0x0)
        ...0 0001 = Recipient: Interface (0x01)
    bDescriptorIndex: 0x00
    bDescriptorType: HID Report (0x22)
    wInterfaceNumber: 1
    wDescriptorLength: 98

0000  1c 00 30 1a 89 10 03 83 ff ff 00 00 00 00 28 00   ..0...........(.
0010  00 01 00 09 00 80 02 08 00 00 00 00 81 06 00 22   ..............."
0020  01 00 62 00                                       ..b.

No.     Time           Source                Destination           Protocol Length Info
1672288 6510.466671    1.9.0                 host                  USBHID   62     GET DESCRIPTOR Response HID Report

Frame 1672288: 62 bytes on wire (496 bits), 62 bytes captured (496 bits) on interface \\.\USBPcap1, id 0
USB URB
    [Source: 1.9.0]
    [Destination: host]
    USBPcap pseudoheader length: 28
    IRP ID: 0xffff830310891a30
    IRP USBD_STATUS: USBD_STATUS_SUCCESS (0x00000000)
    URB Function: URB_FUNCTION_CONTROL_TRANSFER (0x0008)
    IRP information: 0x01, Direction: PDO -> FDO
        0000 000. = Reserved: 0x00
        .... ...1 = Direction: PDO -> FDO (0x1)
    URB bus id: 1
    Device address: 9
    Endpoint: 0x80, Direction: IN
        1... .... = Direction: IN (1)
        .... 0000 = Endpoint number: 0
    URB transfer type: URB_CONTROL (0x02)
    Packet Data Length: 34
    [Request in: 1672287]
    [Time from request: 0.000146000 seconds]
    Control transfer stage: Complete (3)
    [bInterfaceClass: HID (0x03)]
HID Report

0000  1c 00 30 1a 89 10 03 83 ff ff 00 00 00 00 08 00   ..0.............
0010  01 01 00 09 00 80 02 22 00 00 00 03 06 00 ff 09   ......."........
0020  01 a1 01 09 02 15 00 26 ff 00 75 08 95 40 81 02   .......&..u..@..
0030  09 03 15 00 26 ff 00 75 08 95 40 91 02 c0         ....&..u..@...

No.     Time           Source                Destination           Protocol Length Info
1672289 6510.470034    host                  1.9.3                 USB      27     URB_INTERRUPT in

Frame 1672289: 27 bytes on wire (216 bits), 27 bytes captured (216 bits) on interface \\.\USBPcap1, id 0
USB URB
    [Source: host]
    [Destination: 1.9.3]
    USBPcap pseudoheader length: 27
    IRP ID: 0xffff83030ea1fa20
    IRP USBD_STATUS: USBD_STATUS_SUCCESS (0x00000000)
    URB Function: URB_FUNCTION_BULK_OR_INTERRUPT_TRANSFER (0x0009)
    IRP information: 0x00, Direction: FDO -> PDO
        0000 000. = Reserved: 0x00
        .... ...0 = Direction: FDO -> PDO (0x0)
    URB bus id: 1
    Device address: 9
    Endpoint: 0x83, Direction: IN
        1... .... = Direction: IN (1)
        .... 0011 = Endpoint number: 3
    URB transfer type: URB_INTERRUPT (0x01)
    Packet Data Length: 0
    [Response in: 1672391]
    [bInterfaceClass: HID (0x03)]

0000  1b 00 20 fa a1 0e 03 83 ff ff 00 00 00 00 09 00   .. .............
0010  00 01 00 09 00 83 01 00 00 00 00                  ...........

No.     Time           Source                Destination           Protocol Length Info
1672290 6510.470074    host                  1.9.3                 USB      27     URB_INTERRUPT in

Frame 1672290: 27 bytes on wire (216 bits), 27 bytes captured (216 bits) on interface \\.\USBPcap1, id 0
USB URB
    [Source: host]
    [Destination: 1.9.3]
    USBPcap pseudoheader length: 27
    IRP ID: 0xffff830311dc2a20
    IRP USBD_STATUS: USBD_STATUS_SUCCESS (0x00000000)
    URB Function: URB_FUNCTION_BULK_OR_INTERRUPT_TRANSFER (0x0009)
    IRP information: 0x00, Direction: FDO -> PDO
        0000 000. = Reserved: 0x00
        .... ...0 = Direction: FDO -> PDO (0x0)
    URB bus id: 1
    Device address: 9
    Endpoint: 0x83, Direction: IN
        1... .... = Direction: IN (1)
        .... 0011 = Endpoint number: 3
    URB transfer type: URB_INTERRUPT (0x01)
    Packet Data Length: 0
    [Response in: 1672395]
    [bInterfaceClass: HID (0x03)]

0000  1b 00 20 2a dc 11 03 83 ff ff 00 00 00 00 09 00   .. *............
0010  00 01 00 09 00 83 01 00 00 00 00                  ...........

No.     Time           Source                Destination           Protocol Length Info
1672291 6510.472082    host                  1.9.0                 USBHID   36     SET_IDLE Request

Frame 1672291: 36 bytes on wire (288 bits), 36 bytes captured (288 bits) on interface \\.\USBPcap1, id 0
USB URB
    [Source: host]
    [Destination: 1.9.0]
    USBPcap pseudoheader length: 28
    IRP ID: 0xffff83030ec99a30
    IRP USBD_STATUS: USBD_STATUS_SUCCESS (0x00000000)
    URB Function: URB_FUNCTION_CLASS_INTERFACE (0x001b)
    IRP information: 0x00, Direction: FDO -> PDO
        0000 000. = Reserved: 0x00
        .... ...0 = Direction: FDO -> PDO (0x0)
    URB bus id: 1
    Device address: 9
    Endpoint: 0x00, Direction: OUT
        0... .... = Direction: OUT (0)
        .... 0000 = Endpoint number: 0
    URB transfer type: URB_CONTROL (0x02)
    Packet Data Length: 8
    [Response in: 1672292]
    Control transfer stage: Setup (0)
    [bInterfaceClass: HID (0x03)]
Setup Data
    bmRequestType: 0x21
        0... .... = Direction: Host-to-device
        .01. .... = Type: Class (0x1)
        ...0 0001 = Recipient: Interface (0x01)
    bRequest: SET_IDLE (0x0a)
    wValue: 0x0000
    wIndex: 2
    wLength: 0

0000  1c 00 30 9a c9 0e 03 83 ff ff 00 00 00 00 1b 00   ..0.............
0010  00 01 00 09 00 00 02 08 00 00 00 00 21 0a 00 00   ............!...
0020  02 00 00 00                                       ....

No.     Time           Source                Destination           Protocol Length Info
1672292 6510.472207    1.9.0                 host                  USBHID   28     SET_IDLE Response

Frame 1672292: 28 bytes on wire (224 bits), 28 bytes captured (224 bits) on interface \\.\USBPcap1, id 0
USB URB
    [Source: 1.9.0]
    [Destination: host]
    USBPcap pseudoheader length: 28
    IRP ID: 0xffff83030ec99a30
    IRP USBD_STATUS: USBD_STATUS_STALL_PID (0xc0000004)
    URB Function: URB_FUNCTION_CONTROL_TRANSFER (0x0008)
    IRP information: 0x01, Direction: PDO -> FDO
        0000 000. = Reserved: 0x00
        .... ...1 = Direction: PDO -> FDO (0x1)
    URB bus id: 1
    Device address: 9
    Endpoint: 0x00, Direction: OUT
        0... .... = Direction: OUT (0)
        .... 0000 = Endpoint number: 0
    URB transfer type: URB_CONTROL (0x02)
    Packet Data Length: 0
    [Request in: 1672291]
    [Time from request: 0.000125000 seconds]
    Control transfer stage: Complete (3)
    [bInterfaceClass: HID (0x03)]

0000  1c 00 30 9a c9 0e 03 83 ff ff 04 00 00 c0 08 00   ..0.............
0010  01 01 00 09 00 00 02 00 00 00 00 03               ............

No.     Time           Source                Destination           Protocol Length Info
1672293 6510.472390    host                  1.9.0                 USBHID   36     GET DESCRIPTOR Request HID Report

Frame 1672293: 36 bytes on wire (288 bits), 36 bytes captured (288 bits) on interface \\.\USBPcap1, id 0
USB URB
    [Source: host]
    [Destination: 1.9.0]
    USBPcap pseudoheader length: 28
    IRP ID: 0xffff8303117cf460
    IRP USBD_STATUS: USBD_STATUS_SUCCESS (0x00000000)
    URB Function: URB_FUNCTION_GET_DESCRIPTOR_FROM_INTERFACE (0x0028)
    IRP information: 0x00, Direction: FDO -> PDO
        0000 000. = Reserved: 0x00
        .... ...0 = Direction: FDO -> PDO (0x0)
    URB bus id: 1
    Device address: 9
    Endpoint: 0x80, Direction: IN
        1... .... = Direction: IN (1)
        .... 0000 = Endpoint number: 0
    URB transfer type: URB_CONTROL (0x02)
    Packet Data Length: 8
    [Response in: 1672294]
    Control transfer stage: Setup (0)
    [bInterfaceClass: HID (0x03)]
Setup Data
    bmRequestType: 0x81
        1... .... = Direction: Device-to-host
        .00. .... = Type: Standard (0x0)
        ...0 0001 = Recipient: Interface (0x01)
    bDescriptorIndex: 0x00
    bDescriptorType: HID Report (0x22)
    wInterfaceNumber: 2
    wDescriptorLength: 267

0000  1c 00 60 f4 7c 11 03 83 ff ff 00 00 00 00 28 00   ..`.|.........(.
0010  00 01 00 09 00 80 02 08 00 00 00 00 81 06 00 22   ..............."
0020  02 00 0b 01                                       ....

No.     Time           Source                Destination           Protocol Length Info
1672294 6510.472814    1.9.0                 host                  USBHID   231    GET DESCRIPTOR Response HID Report

Frame 1672294: 231 bytes on wire (1848 bits), 231 bytes captured (1848 bits) on interface \\.\USBPcap1, id 0
USB URB
    [Source: 1.9.0]
    [Destination: host]
    USBPcap pseudoheader length: 28
    IRP ID: 0xffff8303117cf460
    IRP USBD_STATUS: USBD_STATUS_SUCCESS (0x00000000)
    URB Function: URB_FUNCTION_CONTROL_TRANSFER (0x0008)
    IRP information: 0x01, Direction: PDO -> FDO
        0000 000. = Reserved: 0x00
        .... ...1 = Direction: PDO -> FDO (0x1)
    URB bus id: 1
    Device address: 9
    Endpoint: 0x80, Direction: IN
        1... .... = Direction: IN (1)
        .... 0000 = Endpoint number: 0
    URB transfer type: URB_CONTROL (0x02)
    Packet Data Length: 203
    [Request in: 1672293]
    [Time from request: 0.000424000 seconds]
    Control transfer stage: Complete (3)
    [bInterfaceClass: HID (0x03)]
HID Report

0000  1c 00 60 f4 7c 11 03 83 ff ff 00 00 00 00 08 00   ..`.|...........
0010  01 01 00 09 00 80 02 cb 00 00 00 03 05 01 09 80   ................
0020  a1 01 85 01 19 81 29 83 15 00 25 01 95 03 75 01   ......)...%...u.
0030  81 02 95 01 75 05 81 01 c0 05 0c 09 01 a1 01 85   ....u...........
0040  02 15 00 25 01 95 12 75 01 0a 83 01 0a 8a 01 0a   ...%...u........
0050  92 01 0a 94 01 09 cd 09 b7 09 b6 09 b5 09 e2 09   ................
0060  ea 09 e9 0a 21 02 0a 23 02 0a 24 02 0a 25 02 0a   ....!..#..$..%..
0070  26 02 0a 27 02 0a 2a 02 81 02 95 01 75 0e 81 01   &..'..*.....u...
0080  c0 05 01 09 02 a1 01 09 01 a1 00 85 03 05 09 19   ................
0090  01 29 08 15 00 25 01 75 01 95 08 81 02 05 01 09   .)...%.u........
00a0  30 09 31 16 01 80 26 ff 7f 75 10 95 02 81 06 09   0.1...&..u......
00b0  38 15 81 25 7f 75 08 95 01 81 06 05 0c 0a 38 02   8..%.u........8.
00c0  95 01 81 06 c0 c0 05 01 09 06 a1 01 85 04 05 07   ................
00d0  95 01 75 08 81 03 95 e8 75 01 15 00 25 01 05 07   ..u.....u...%...
00e0  19 00 29 e7 81 00 c0                              ..)....

No.     Time           Source                Destination           Protocol Length Info
1672295 6510.477016    host                  1.9.2                 USB      27     URB_INTERRUPT in

Frame 1672295: 27 bytes on wire (216 bits), 27 bytes captured (216 bits) on interface \\.\USBPcap1, id 0
USB URB
    [Source: host]
    [Destination: 1.9.2]
    USBPcap pseudoheader length: 27
    IRP ID: 0xffff830310cc9a20
    IRP USBD_STATUS: USBD_STATUS_SUCCESS (0x00000000)
    URB Function: URB_FUNCTION_BULK_OR_INTERRUPT_TRANSFER (0x0009)
    IRP information: 0x00, Direction: FDO -> PDO
        0000 000. = Reserved: 0x00
        .... ...0 = Direction: FDO -> PDO (0x0)
    URB bus id: 1
    Device address: 9
    Endpoint: 0x82, Direction: IN
        1... .... = Direction: IN (1)
        .... 0010 = Endpoint number: 2
    URB transfer type: URB_INTERRUPT (0x01)
    Packet Data Length: 0
    [bInterfaceClass: HID (0x03)]

0000  1b 00 20 9a cc 10 03 83 ff ff 00 00 00 00 09 00   .. .............
0010  00 01 00 09 00 82 01 00 00 00 00                  ...........

No.     Time           Source                Destination           Protocol Length Info
1672296 6510.477098    host                  1.9.2                 USB      27     URB_INTERRUPT in

Frame 1672296: 27 bytes on wire (216 bits), 27 bytes captured (216 bits) on interface \\.\USBPcap1, id 0
USB URB
    [Source: host]
    [Destination: 1.9.2]
    USBPcap pseudoheader length: 27
    IRP ID: 0xffff83030b8aca20
    IRP USBD_STATUS: USBD_STATUS_SUCCESS (0x00000000)
    URB Function: URB_FUNCTION_BULK_OR_INTERRUPT_TRANSFER (0x0009)
    IRP information: 0x00, Direction: FDO -> PDO
        0000 000. = Reserved: 0x00
        .... ...0 = Direction: FDO -> PDO (0x0)
    URB bus id: 1
    Device address: 9
    Endpoint: 0x82, Direction: IN
        1... .... = Direction: IN (1)
        .... 0010 = Endpoint number: 2
    URB transfer type: URB_INTERRUPT (0x01)
    Packet Data Length: 0
    [bInterfaceClass: HID (0x03)]

0000  1b 00 20 ca 8a 0b 03 83 ff ff 00 00 00 00 09 00   .. .............
0010  00 01 00 09 00 82 01 00 00 00 00                  ...........

No.     Time           Source                Destination           Protocol Length Info
1672301 6510.490291    host                  1.9.0                 USB      36     GET DESCRIPTOR Request STRING

Frame 1672301: 36 bytes on wire (288 bits), 36 bytes captured (288 bits) on interface \\.\USBPcap1, id 0
USB URB
    [Source: host]
    [Destination: 1.9.0]
    USBPcap pseudoheader length: 28
    IRP ID: 0xffff830310a8da60
    IRP USBD_STATUS: USBD_STATUS_SUCCESS (0x00000000)
    URB Function: URB_FUNCTION_GET_DESCRIPTOR_FROM_DEVICE (0x000b)
    IRP information: 0x00, Direction: FDO -> PDO
        0000 000. = Reserved: 0x00
        .... ...0 = Direction: FDO -> PDO (0x0)
    URB bus id: 1
    Device address: 9
    Endpoint: 0x80, Direction: IN
        1... .... = Direction: IN (1)
        .... 0000 = Endpoint number: 0
    URB transfer type: URB_CONTROL (0x02)
    Packet Data Length: 8
    [Response in: 1672302]
    Control transfer stage: Setup (0)
Setup Data
    bmRequestType: 0x80
        1... .... = Direction: Device-to-host
        .00. .... = Type: Standard (0x0)
        ...0 0000 = Recipient: Device (0x00)
    bRequest: GET DESCRIPTOR (6)
    Descriptor Index: 0x03
    bDescriptorType: STRING (0x03)
    Language Id: English (United States) (0x0409)
    wLength: 1026

0000  1c 00 60 da a8 10 03 83 ff ff 00 00 00 00 0b 00   ..`.............
0010  00 01 00 09 00 80 02 08 00 00 00 00 80 06 03 03   ................
0020  09 04 02 04                                       ....

No.     Time           Source                Destination           Protocol Length Info
1672302 6510.490498    1.9.0                 host                  USB      88     GET DESCRIPTOR Response STRING

Frame 1672302: 88 bytes on wire (704 bits), 88 bytes captured (704 bits) on interface \\.\USBPcap1, id 0
USB URB
    [Source: 1.9.0]
    [Destination: host]
    USBPcap pseudoheader length: 28
    IRP ID: 0xffff830310a8da60
    IRP USBD_STATUS: USBD_STATUS_SUCCESS (0x00000000)
    URB Function: URB_FUNCTION_CONTROL_TRANSFER (0x0008)
    IRP information: 0x01, Direction: PDO -> FDO
        0000 000. = Reserved: 0x00
        .... ...1 = Direction: PDO -> FDO (0x1)
    URB bus id: 1
    Device address: 9
    Endpoint: 0x80, Direction: IN
        1... .... = Direction: IN (1)
        .... 0000 = Endpoint number: 0
    URB transfer type: URB_CONTROL (0x02)
    Packet Data Length: 60
    [Request in: 1672301]
    [Time from request: 0.000207000 seconds]
    Control transfer stage: Complete (3)
STRING DESCRIPTOR
    bLength: 60
    bDescriptorType: 0x03 (STRING)
    bString: Cooler Master Technology Inc.

0000  1c 00 60 da a8 10 03 83 ff ff 00 00 00 00 08 00   ..`.............
0010  01 01 00 09 00 80 02 3c 00 00 00 03 3c 03 43 00   .......<....<.C.
0020  6f 00 6f 00 6c 00 65 00 72 00 20 00 4d 00 61 00   o.o.l.e.r. .M.a.
0030  73 00 74 00 65 00 72 00 20 00 54 00 65 00 63 00   s.t.e.r. .T.e.c.
0040  68 00 6e 00 6f 00 6c 00 6f 00 67 00 79 00 20 00   h.n.o.l.o.g.y. .
0050  49 00 6e 00 63 00 2e 00                           I.n.c...

No.     Time           Source                Destination           Protocol Length Info
1672303 6510.490571    host                  1.9.0                 USB      36     GET DESCRIPTOR Request STRING

Frame 1672303: 36 bytes on wire (288 bits), 36 bytes captured (288 bits) on interface \\.\USBPcap1, id 0
USB URB
    [Source: host]
    [Destination: 1.9.0]
    USBPcap pseudoheader length: 28
    IRP ID: 0xffff83030ba93460
    IRP USBD_STATUS: USBD_STATUS_SUCCESS (0x00000000)
    URB Function: URB_FUNCTION_GET_DESCRIPTOR_FROM_DEVICE (0x000b)
    IRP information: 0x00, Direction: FDO -> PDO
        0000 000. = Reserved: 0x00
        .... ...0 = Direction: FDO -> PDO (0x0)
    URB bus id: 1
    Device address: 9
    Endpoint: 0x80, Direction: IN
        1... .... = Direction: IN (1)
        .... 0000 = Endpoint number: 0
    URB transfer type: URB_CONTROL (0x02)
    Packet Data Length: 8
    [Response in: 1672304]
    Control transfer stage: Setup (0)
Setup Data
    bmRequestType: 0x80
        1... .... = Direction: Device-to-host
        .00. .... = Type: Standard (0x0)
        ...0 0000 = Recipient: Device (0x00)
    bRequest: GET DESCRIPTOR (6)
    Descriptor Index: 0x01
    bDescriptorType: STRING (0x03)
    Language Id: English (United States) (0x0409)
    wLength: 1026

0000  1c 00 60 34 a9 0b 03 83 ff ff 00 00 00 00 0b 00   ..`4............
0010  00 01 00 09 00 80 02 08 00 00 00 00 80 06 01 03   ................
0020  09 04 02 04                                       ....

No.     Time           Source                Destination           Protocol Length Info
1672304 6510.490803    1.9.0                 host                  USB      70     GET DESCRIPTOR Response STRING

Frame 1672304: 70 bytes on wire (560 bits), 70 bytes captured (560 bits) on interface \\.\USBPcap1, id 0
USB URB
    [Source: 1.9.0]
    [Destination: host]
    USBPcap pseudoheader length: 28
    IRP ID: 0xffff83030ba93460
    IRP USBD_STATUS: USBD_STATUS_SUCCESS (0x00000000)
    URB Function: URB_FUNCTION_CONTROL_TRANSFER (0x0008)
    IRP information: 0x01, Direction: PDO -> FDO
        0000 000. = Reserved: 0x00
        .... ...1 = Direction: PDO -> FDO (0x1)
    URB bus id: 1
    Device address: 9
    Endpoint: 0x80, Direction: IN
        1... .... = Direction: IN (1)
        .... 0000 = Endpoint number: 0
    URB transfer type: URB_CONTROL (0x02)
    Packet Data Length: 42
    [Request in: 1672303]
    [Time from request: 0.000232000 seconds]
    Control transfer stage: Complete (3)
STRING DESCRIPTOR
    bLength: 42
    bDescriptorType: 0x03 (STRING)
    bString: Controlpad (Gateron)

0000  1c 00 60 34 a9 0b 03 83 ff ff 00 00 00 00 08 00   ..`4............
0010  01 01 00 09 00 80 02 2a 00 00 00 03 2a 03 43 00   .......*....*.C.
0020  6f 00 6e 00 74 00 72 00 6f 00 6c 00 70 00 61 00   o.n.t.r.o.l.p.a.
0030  64 00 20 00 28 00 47 00 61 00 74 00 65 00 72 00   d. .(.G.a.t.e.r.
0040  6f 00 6e 00 29 00                                 o.n.).

No.     Time           Source                Destination           Protocol Length Info
1672305 6510.491559    host                  1.9.0                 USB      36     GET DESCRIPTOR Request STRING

Frame 1672305: 36 bytes on wire (288 bits), 36 bytes captured (288 bits) on interface \\.\USBPcap1, id 0
USB URB
    [Source: host]
    [Destination: 1.9.0]
    USBPcap pseudoheader length: 28
    IRP ID: 0xffff830310a8da60
    IRP USBD_STATUS: USBD_STATUS_SUCCESS (0x00000000)
    URB Function: URB_FUNCTION_GET_DESCRIPTOR_FROM_DEVICE (0x000b)
    IRP information: 0x00, Direction: FDO -> PDO
        0000 000. = Reserved: 0x00
        .... ...0 = Direction: FDO -> PDO (0x0)
    URB bus id: 1
    Device address: 9
    Endpoint: 0x80, Direction: IN
        1... .... = Direction: IN (1)
        .... 0000 = Endpoint number: 0
    URB transfer type: URB_CONTROL (0x02)
    Packet Data Length: 8
    [Response in: 1672306]
    Control transfer stage: Setup (0)
Setup Data
    bmRequestType: 0x80
        1... .... = Direction: Device-to-host
        .00. .... = Type: Standard (0x0)
        ...0 0000 = Recipient: Device (0x00)
    bRequest: GET DESCRIPTOR (6)
    Descriptor Index: 0x03
    bDescriptorType: STRING (0x03)
    Language Id: English (United States) (0x0409)
    wLength: 1026

0000  1c 00 60 da a8 10 03 83 ff ff 00 00 00 00 0b 00   ..`.............
0010  00 01 00 09 00 80 02 08 00 00 00 00 80 06 03 03   ................
0020  09 04 02 04                                       ....

No.     Time           Source                Destination           Protocol Length Info
1672306 6510.491770    1.9.0                 host                  USB      88     GET DESCRIPTOR Response STRING

Frame 1672306: 88 bytes on wire (704 bits), 88 bytes captured (704 bits) on interface \\.\USBPcap1, id 0
USB URB
    [Source: 1.9.0]
    [Destination: host]
    USBPcap pseudoheader length: 28
    IRP ID: 0xffff830310a8da60
    IRP USBD_STATUS: USBD_STATUS_SUCCESS (0x00000000)
    URB Function: URB_FUNCTION_CONTROL_TRANSFER (0x0008)
    IRP information: 0x01, Direction: PDO -> FDO
        0000 000. = Reserved: 0x00
        .... ...1 = Direction: PDO -> FDO (0x1)
    URB bus id: 1
    Device address: 9
    Endpoint: 0x80, Direction: IN
        1... .... = Direction: IN (1)
        .... 0000 = Endpoint number: 0
    URB transfer type: URB_CONTROL (0x02)
    Packet Data Length: 60
    [Request in: 1672305]
    [Time from request: 0.000211000 seconds]
    Control transfer stage: Complete (3)
STRING DESCRIPTOR
    bLength: 60
    bDescriptorType: 0x03 (STRING)
    bString: Cooler Master Technology Inc.

0000  1c 00 60 da a8 10 03 83 ff ff 00 00 00 00 08 00   ..`.............
0010  01 01 00 09 00 80 02 3c 00 00 00 03 3c 03 43 00   .......<....<.C.
0020  6f 00 6f 00 6c 00 65 00 72 00 20 00 4d 00 61 00   o.o.l.e.r. .M.a.
0030  73 00 74 00 65 00 72 00 20 00 54 00 65 00 63 00   s.t.e.r. .T.e.c.
0040  68 00 6e 00 6f 00 6c 00 6f 00 67 00 79 00 20 00   h.n.o.l.o.g.y. .
0050  49 00 6e 00 63 00 2e 00                           I.n.c...

No.     Time           Source                Destination           Protocol Length Info
1672307 6510.491834    host                  1.9.0                 USB      36     GET DESCRIPTOR Request STRING

Frame 1672307: 36 bytes on wire (288 bits), 36 bytes captured (288 bits) on interface \\.\USBPcap1, id 0
USB URB
    [Source: host]
    [Destination: 1.9.0]
    USBPcap pseudoheader length: 28
    IRP ID: 0xffff83030f8d0460
    IRP USBD_STATUS: USBD_STATUS_SUCCESS (0x00000000)
    URB Function: URB_FUNCTION_GET_DESCRIPTOR_FROM_DEVICE (0x000b)
    IRP information: 0x00, Direction: FDO -> PDO
        0000 000. = Reserved: 0x00
        .... ...0 = Direction: FDO -> PDO (0x0)
    URB bus id: 1
    Device address: 9
    Endpoint: 0x80, Direction: IN
        1... .... = Direction: IN (1)
        .... 0000 = Endpoint number: 0
    URB transfer type: URB_CONTROL (0x02)
    Packet Data Length: 8
    [Response in: 1672308]
    Control transfer stage: Setup (0)
Setup Data
    bmRequestType: 0x80
        1... .... = Direction: Device-to-host
        .00. .... = Type: Standard (0x0)
        ...0 0000 = Recipient: Device (0x00)
    bRequest: GET DESCRIPTOR (6)
    Descriptor Index: 0x01
    bDescriptorType: STRING (0x03)
    Language Id: English (United States) (0x0409)
    wLength: 1026

0000  1c 00 60 04 8d 0f 03 83 ff ff 00 00 00 00 0b 00   ..`.............
0010  00 01 00 09 00 80 02 08 00 00 00 00 80 06 01 03   ................
0020  09 04 02 04                                       ....

No.     Time           Source                Destination           Protocol Length Info
1672308 6510.492043    1.9.0                 host                  USB      70     GET DESCRIPTOR Response STRING

Frame 1672308: 70 bytes on wire (560 bits), 70 bytes captured (560 bits) on interface \\.\USBPcap1, id 0
USB URB
    [Source: 1.9.0]
    [Destination: host]
    USBPcap pseudoheader length: 28
    IRP ID: 0xffff83030f8d0460
    IRP USBD_STATUS: USBD_STATUS_SUCCESS (0x00000000)
    URB Function: URB_FUNCTION_CONTROL_TRANSFER (0x0008)
    IRP information: 0x01, Direction: PDO -> FDO
        0000 000. = Reserved: 0x00
        .... ...1 = Direction: PDO -> FDO (0x1)
    URB bus id: 1
    Device address: 9
    Endpoint: 0x80, Direction: IN
        1... .... = Direction: IN (1)
        .... 0000 = Endpoint number: 0
    URB transfer type: URB_CONTROL (0x02)
    Packet Data Length: 42
    [Request in: 1672307]
    [Time from request: 0.000209000 seconds]
    Control transfer stage: Complete (3)
STRING DESCRIPTOR
    bLength: 42
    bDescriptorType: 0x03 (STRING)
    bString: Controlpad (Gateron)

0000  1c 00 60 04 8d 0f 03 83 ff ff 00 00 00 00 08 00   ..`.............
0010  01 01 00 09 00 80 02 2a 00 00 00 03 2a 03 43 00   .......*....*.C.
0020  6f 00 6e 00 74 00 72 00 6f 00 6c 00 70 00 61 00   o.n.t.r.o.l.p.a.
0030  64 00 20 00 28 00 47 00 61 00 74 00 65 00 72 00   d. .(.G.a.t.e.r.
0040  6f 00 6e 00 29 00                                 o.n.).

No.     Time           Source                Destination           Protocol Length Info
1672309 6510.492621    host                  1.9.0                 USBHID   37     SET_REPORT Request

Frame 1672309: 37 bytes on wire (296 bits), 37 bytes captured (296 bits) on interface \\.\USBPcap1, id 0
USB URB
    [Source: host]
    [Destination: 1.9.0]
    USBPcap pseudoheader length: 28
    IRP ID: 0xffff830311930010
    IRP USBD_STATUS: USBD_STATUS_SUCCESS (0x00000000)
    URB Function: URB_FUNCTION_CONTROL_TRANSFER_EX (0x0032)
    IRP information: 0x00, Direction: FDO -> PDO
        0000 000. = Reserved: 0x00
        .... ...0 = Direction: FDO -> PDO (0x0)
    URB bus id: 1
    Device address: 9
    Endpoint: 0x00, Direction: OUT
        0... .... = Direction: OUT (0)
        .... 0000 = Endpoint number: 0
    URB transfer type: URB_CONTROL (0x02)
    Packet Data Length: 9
    [Response in: 1672311]
    Control transfer stage: Setup (0)
    [bInterfaceClass: HID (0x03)]
Setup Data
    bmRequestType: 0x21
        0... .... = Direction: Host-to-device
        .01. .... = Type: Class (0x1)
        ...0 0001 = Recipient: Interface (0x01)
    bRequest: SET_REPORT (0x09)
    wValue: 0x0200
    wIndex: 0
    wLength: 1
    Data Fragment: 00

Frame (37 bytes):
0000  1c 00 10 00 93 11 03 83 ff ff 00 00 00 00 32 00   ..............2.
0010  00 01 00 09 00 00 02 09 00 00 00 00 21 09 00 02   ............!...
0020  00 00 01 00 00                                    .....
USB Control (8 bytes):
0000  09 00 02 00 00 01 00 00                           ........

No.     Time           Source                Destination           Protocol Length Info
1672311 6510.492723    1.9.0                 host                  USBHID   28     SET_REPORT Response

Frame 1672311: 28 bytes on wire (224 bits), 28 bytes captured (224 bits) on interface \\.\USBPcap1, id 0
USB URB
    [Source: 1.9.0]
    [Destination: host]
    USBPcap pseudoheader length: 28
    IRP ID: 0xffff830311930010
    IRP USBD_STATUS: USBD_STATUS_SUCCESS (0x00000000)
    URB Function: URB_FUNCTION_CONTROL_TRANSFER_EX (0x0032)
    IRP information: 0x01, Direction: PDO -> FDO
        0000 000. = Reserved: 0x00
        .... ...1 = Direction: PDO -> FDO (0x1)
    URB bus id: 1
    Device address: 9
    Endpoint: 0x00, Direction: OUT
        0... .... = Direction: OUT (0)
        .... 0000 = Endpoint number: 0
    URB transfer type: URB_CONTROL (0x02)
    Packet Data Length: 0
    [Request in: 1672309]
    [Time from request: 0.000102000 seconds]
    Control transfer stage: Complete (3)
    [bInterfaceClass: HID (0x03)]

0000  1c 00 10 00 93 11 03 83 ff ff 00 00 00 00 32 00   ..............2.
0010  01 01 00 09 00 00 02 00 00 00 00 03               ............

No.     Time           Source                Destination           Protocol Length Info
1672312 6510.492790    host                  1.9.0                 USB      36     GET DESCRIPTOR Request STRING

Frame 1672312: 36 bytes on wire (288 bits), 36 bytes captured (288 bits) on interface \\.\USBPcap1, id 0
USB URB
    [Source: host]
    [Destination: 1.9.0]
    USBPcap pseudoheader length: 28
    IRP ID: 0xffff830310a8da60
    IRP USBD_STATUS: USBD_STATUS_SUCCESS (0x00000000)
    URB Function: URB_FUNCTION_GET_DESCRIPTOR_FROM_DEVICE (0x000b)
    IRP information: 0x00, Direction: FDO -> PDO
        0000 000. = Reserved: 0x00
        .... ...0 = Direction: FDO -> PDO (0x0)
    URB bus id: 1
    Device address: 9
    Endpoint: 0x80, Direction: IN
        1... .... = Direction: IN (1)
        .... 0000 = Endpoint number: 0
    URB transfer type: URB_CONTROL (0x02)
    Packet Data Length: 8
    [Response in: 1672313]
    Control transfer stage: Setup (0)
Setup Data
    bmRequestType: 0x80
        1... .... = Direction: Device-to-host
        .00. .... = Type: Standard (0x0)
        ...0 0000 = Recipient: Device (0x00)
    bRequest: GET DESCRIPTOR (6)
    Descriptor Index: 0x03
    bDescriptorType: STRING (0x03)
    Language Id: English (United States) (0x0409)
    wLength: 1026

0000  1c 00 60 da a8 10 03 83 ff ff 00 00 00 00 0b 00   ..`.............
0010  00 01 00 09 00 80 02 08 00 00 00 00 80 06 03 03   ................
0020  09 04 02 04                                       ....

No.     Time           Source                Destination           Protocol Length Info
1672313 6510.492957    1.9.0                 host                  USB      88     GET DESCRIPTOR Response STRING

Frame 1672313: 88 bytes on wire (704 bits), 88 bytes captured (704 bits) on interface \\.\USBPcap1, id 0
USB URB
    [Source: 1.9.0]
    [Destination: host]
    USBPcap pseudoheader length: 28
    IRP ID: 0xffff830310a8da60
    IRP USBD_STATUS: USBD_STATUS_SUCCESS (0x00000000)
    URB Function: URB_FUNCTION_CONTROL_TRANSFER (0x0008)
    IRP information: 0x01, Direction: PDO -> FDO
        0000 000. = Reserved: 0x00
        .... ...1 = Direction: PDO -> FDO (0x1)
    URB bus id: 1
    Device address: 9
    Endpoint: 0x80, Direction: IN
        1... .... = Direction: IN (1)
        .... 0000 = Endpoint number: 0
    URB transfer type: URB_CONTROL (0x02)
    Packet Data Length: 60
    [Request in: 1672312]
    [Time from request: 0.000167000 seconds]
    Control transfer stage: Complete (3)
STRING DESCRIPTOR
    bLength: 60
    bDescriptorType: 0x03 (STRING)
    bString: Cooler Master Technology Inc.

0000  1c 00 60 da a8 10 03 83 ff ff 00 00 00 00 08 00   ..`.............
0010  01 01 00 09 00 80 02 3c 00 00 00 03 3c 03 43 00   .......<....<.C.
0020  6f 00 6f 00 6c 00 65 00 72 00 20 00 4d 00 61 00   o.o.l.e.r. .M.a.
0030  73 00 74 00 65 00 72 00 20 00 54 00 65 00 63 00   s.t.e.r. .T.e.c.
0040  68 00 6e 00 6f 00 6c 00 6f 00 67 00 79 00 20 00   h.n.o.l.o.g.y. .
0050  49 00 6e 00 63 00 2e 00                           I.n.c...

No.     Time           Source                Destination           Protocol Length Info
1672314 6510.492970    1.9.1                 host                  USB      35     URB_INTERRUPT in

Frame 1672314: 35 bytes on wire (280 bits), 35 bytes captured (280 bits) on interface \\.\USBPcap1, id 0
USB URB
    [Source: 1.9.1]
    [Destination: host]
    USBPcap pseudoheader length: 27
    IRP ID: 0xffff83030f8cda20
    IRP USBD_STATUS: USBD_STATUS_SUCCESS (0x00000000)
    URB Function: URB_FUNCTION_BULK_OR_INTERRUPT_TRANSFER (0x0009)
    IRP information: 0x01, Direction: PDO -> FDO
        0000 000. = Reserved: 0x00
        .... ...1 = Direction: PDO -> FDO (0x1)
    URB bus id: 1
    Device address: 9
    Endpoint: 0x81, Direction: IN
        1... .... = Direction: IN (1)
        .... 0001 = Endpoint number: 1
    URB transfer type: URB_INTERRUPT (0x01)
    Packet Data Length: 8
    [Request in: 1672283]
    [Time from request: 0.029276000 seconds]
    [bInterfaceClass: HID (0x03)]
HID Data: 0000000000000000
    .... ...0 = Key: LeftControl (0xe0): UP
    .... ..0. = Key: LeftShift (0xe1): UP
    .... .0.. = Key: LeftAlt (0xe2): UP
    .... 0... = Key: LeftGUI (0xe3): UP
    ...0 .... = Key: RightControl (0xe4): UP
    ..0. .... = Key: RightShift (0xe5): UP
    .0.. .... = Key: RightAlt (0xe6): UP
    0... .... = Key: RightGUI (0xe7): UP
    Padding: 00
    Array: 000000000000

0000  1b 00 20 da 8c 0f 03 83 ff ff 00 00 00 00 09 00   .. .............
0010  01 01 00 09 00 81 01 08 00 00 00 00 00 00 00 00   ................
0020  00 00 00                                          ...

No.     Time           Source                Destination           Protocol Length Info
1672315 6510.492989    host                  1.9.1                 USB      27     URB_INTERRUPT in

Frame 1672315: 27 bytes on wire (216 bits), 27 bytes captured (216 bits) on interface \\.\USBPcap1, id 0
USB URB
    [Source: host]
    [Destination: 1.9.1]
    USBPcap pseudoheader length: 27
    IRP ID: 0xffff83030f8cda20
    IRP USBD_STATUS: USBD_STATUS_SUCCESS (0x00000000)
    URB Function: URB_FUNCTION_BULK_OR_INTERRUPT_TRANSFER (0x0009)
    IRP information: 0x00, Direction: FDO -> PDO
        0000 000. = Reserved: 0x00
        .... ...0 = Direction: FDO -> PDO (0x0)
    URB bus id: 1
    Device address: 9
    Endpoint: 0x81, Direction: IN
        1... .... = Direction: IN (1)
        .... 0001 = Endpoint number: 1
    URB transfer type: URB_INTERRUPT (0x01)
    Packet Data Length: 0
    [bInterfaceClass: HID (0x03)]

0000  1b 00 20 da 8c 0f 03 83 ff ff 00 00 00 00 09 00   .. .............
0010  00 01 00 09 00 81 01 00 00 00 00                  ...........

No.     Time           Source                Destination           Protocol Length Info
1672316 6510.493010    host                  1.9.0                 USB      36     GET DESCRIPTOR Request STRING

Frame 1672316: 36 bytes on wire (288 bits), 36 bytes captured (288 bits) on interface \\.\USBPcap1, id 0
USB URB
    [Source: host]
    [Destination: 1.9.0]
    USBPcap pseudoheader length: 28
    IRP ID: 0xffff8303109f64e0
    IRP USBD_STATUS: USBD_STATUS_SUCCESS (0x00000000)
    URB Function: URB_FUNCTION_GET_DESCRIPTOR_FROM_DEVICE (0x000b)
    IRP information: 0x00, Direction: FDO -> PDO
        0000 000. = Reserved: 0x00
        .... ...0 = Direction: FDO -> PDO (0x0)
    URB bus id: 1
    Device address: 9
    Endpoint: 0x80, Direction: IN
        1... .... = Direction: IN (1)
        .... 0000 = Endpoint number: 0
    URB transfer type: URB_CONTROL (0x02)
    Packet Data Length: 8
    [Response in: 1672319]
    Control transfer stage: Setup (0)
Setup Data
    bmRequestType: 0x80
        1... .... = Direction: Device-to-host
        .00. .... = Type: Standard (0x0)
        ...0 0000 = Recipient: Device (0x00)
    bRequest: GET DESCRIPTOR (6)
    Descriptor Index: 0x02
    bDescriptorType: STRING (0x03)
    Language Id: English (United States) (0x0409)
    wLength: 1026

0000  1c 00 e0 64 9f 10 03 83 ff ff 00 00 00 00 0b 00   ...d............
0010  00 01 00 09 00 80 02 08 00 00 00 00 80 06 02 03   ................
0020  09 04 02 04                                       ....

No.     Time           Source                Destination           Protocol Length Info
1672318 6510.493266    host                  1.9.0                 USB      36     GET DESCRIPTOR Request STRING

Frame 1672318: 36 bytes on wire (288 bits), 36 bytes captured (288 bits) on interface \\.\USBPcap1, id 0
USB URB
    [Source: host]
    [Destination: 1.9.0]
    USBPcap pseudoheader length: 28
    IRP ID: 0xffff8303109f4460
    IRP USBD_STATUS: USBD_STATUS_SUCCESS (0x00000000)
    URB Function: URB_FUNCTION_GET_DESCRIPTOR_FROM_DEVICE (0x000b)
    IRP information: 0x00, Direction: FDO -> PDO
        0000 000. = Reserved: 0x00
        .... ...0 = Direction: FDO -> PDO (0x0)
    URB bus id: 1
    Device address: 9
    Endpoint: 0x80, Direction: IN
        1... .... = Direction: IN (1)
        .... 0000 = Endpoint number: 0
    URB transfer type: URB_CONTROL (0x02)
    Packet Data Length: 8
    [Response in: 1672321]
    Control transfer stage: Setup (0)
Setup Data
    bmRequestType: 0x80
        1... .... = Direction: Device-to-host
        .00. .... = Type: Standard (0x0)
        ...0 0000 = Recipient: Device (0x00)
    bRequest: GET DESCRIPTOR (6)
    Descriptor Index: 0x03
    bDescriptorType: STRING (0x03)
    Language Id: English (United States) (0x0409)
    wLength: 1026

0000  1c 00 60 44 9f 10 03 83 ff ff 00 00 00 00 0b 00   ..`D............
0010  00 01 00 09 00 80 02 08 00 00 00 00 80 06 03 03   ................
0020  09 04 02 04                                       ....

No.     Time           Source                Destination           Protocol Length Info
1672319 6510.493268    1.9.0                 host                  USB      66     GET DESCRIPTOR Response STRING

Frame 1672319: 66 bytes on wire (528 bits), 66 bytes captured (528 bits) on interface \\.\USBPcap1, id 0
USB URB
    [Source: 1.9.0]
    [Destination: host]
    USBPcap pseudoheader length: 28
    IRP ID: 0xffff8303109f64e0
    IRP USBD_STATUS: USBD_STATUS_SUCCESS (0x00000000)
    URB Function: URB_FUNCTION_CONTROL_TRANSFER (0x0008)
    IRP information: 0x01, Direction: PDO -> FDO
        0000 000. = Reserved: 0x00
        .... ...1 = Direction: PDO -> FDO (0x1)
    URB bus id: 1
    Device address: 9
    Endpoint: 0x80, Direction: IN
        1... .... = Direction: IN (1)
        .... 0000 = Endpoint number: 0
    URB transfer type: URB_CONTROL (0x02)
    Packet Data Length: 38
    [Request in: 1672316]
    [Time from request: 0.000258000 seconds]
    Control transfer stage: Complete (3)
STRING DESCRIPTOR
    bLength: 38
    bDescriptorType: 0x03 (STRING)
    bString: CY040338016A0700 G

0000  1c 00 e0 64 9f 10 03 83 ff ff 00 00 00 00 08 00   ...d............
0010  01 01 00 09 00 80 02 26 00 00 00 03 26 03 43 00   .......&....&.C.
0020  59 00 30 00 34 00 30 00 33 00 33 00 38 00 30 00   Y.0.4.0.3.3.8.0.
0030  31 00 36 00 41 00 30 00 37 00 30 00 30 00 20 00   1.6.A.0.7.0.0. .
0040  47 00                                             G.

No.     Time           Source                Destination           Protocol Length Info
1672320 6510.493409    host                  1.9.0                 USB      36     GET DESCRIPTOR Request STRING

Frame 1672320: 36 bytes on wire (288 bits), 36 bytes captured (288 bits) on interface \\.\USBPcap1, id 0
USB URB
    [Source: host]
    [Destination: 1.9.0]
    USBPcap pseudoheader length: 28
    IRP ID: 0xffff83030ba93460
    IRP USBD_STATUS: USBD_STATUS_SUCCESS (0x00000000)
    URB Function: URB_FUNCTION_GET_DESCRIPTOR_FROM_DEVICE (0x000b)
    IRP information: 0x00, Direction: FDO -> PDO
        0000 000. = Reserved: 0x00
        .... ...0 = Direction: FDO -> PDO (0x0)
    URB bus id: 1
    Device address: 9
    Endpoint: 0x80, Direction: IN
        1... .... = Direction: IN (1)
        .... 0000 = Endpoint number: 0
    URB transfer type: URB_CONTROL (0x02)
    Packet Data Length: 8
    [Response in: 1672323]
    Control transfer stage: Setup (0)
Setup Data
    bmRequestType: 0x80
        1... .... = Direction: Device-to-host
        .00. .... = Type: Standard (0x0)
        ...0 0000 = Recipient: Device (0x00)
    bRequest: GET DESCRIPTOR (6)
    Descriptor Index: 0x02
    bDescriptorType: STRING (0x03)
    Language Id: English (United States) (0x0409)
    wLength: 2050

0000  1c 00 60 34 a9 0b 03 83 ff ff 00 00 00 00 0b 00   ..`4............
0010  00 01 00 09 00 80 02 08 00 00 00 00 80 06 02 03   ................
0020  09 04 02 08                                       ....

No.     Time           Source                Destination           Protocol Length Info
1672321 6510.493434    1.9.0                 host                  USB      88     GET DESCRIPTOR Response STRING

Frame 1672321: 88 bytes on wire (704 bits), 88 bytes captured (704 bits) on interface \\.\USBPcap1, id 0
USB URB
    [Source: 1.9.0]
    [Destination: host]
    USBPcap pseudoheader length: 28
    IRP ID: 0xffff8303109f4460
    IRP USBD_STATUS: USBD_STATUS_SUCCESS (0x00000000)
    URB Function: URB_FUNCTION_CONTROL_TRANSFER (0x0008)
    IRP information: 0x01, Direction: PDO -> FDO
        0000 000. = Reserved: 0x00
        .... ...1 = Direction: PDO -> FDO (0x1)
    URB bus id: 1
    Device address: 9
    Endpoint: 0x80, Direction: IN
        1... .... = Direction: IN (1)
        .... 0000 = Endpoint number: 0
    URB transfer type: URB_CONTROL (0x02)
    Packet Data Length: 60
    [Request in: 1672318]
    [Time from request: 0.000168000 seconds]
    Control transfer stage: Complete (3)
STRING DESCRIPTOR
    bLength: 60
    bDescriptorType: 0x03 (STRING)
    bString: Cooler Master Technology Inc.

0000  1c 00 60 44 9f 10 03 83 ff ff 00 00 00 00 08 00   ..`D............
0010  01 01 00 09 00 80 02 3c 00 00 00 03 3c 03 43 00   .......<....<.C.
0020  6f 00 6f 00 6c 00 65 00 72 00 20 00 4d 00 61 00   o.o.l.e.r. .M.a.
0030  73 00 74 00 65 00 72 00 20 00 54 00 65 00 63 00   s.t.e.r. .T.e.c.
0040  68 00 6e 00 6f 00 6c 00 6f 00 67 00 79 00 20 00   h.n.o.l.o.g.y. .
0050  49 00 6e 00 63 00 2e 00                           I.n.c...

No.     Time           Source                Destination           Protocol Length Info
1672322 6510.493497    host                  1.9.0                 USB      36     GET DESCRIPTOR Request STRING

Frame 1672322: 36 bytes on wire (288 bits), 36 bytes captured (288 bits) on interface \\.\USBPcap1, id 0
USB URB
    [Source: host]
    [Destination: 1.9.0]
    USBPcap pseudoheader length: 28
    IRP ID: 0xffff830310a8da60
    IRP USBD_STATUS: USBD_STATUS_SUCCESS (0x00000000)
    URB Function: URB_FUNCTION_GET_DESCRIPTOR_FROM_DEVICE (0x000b)
    IRP information: 0x00, Direction: FDO -> PDO
        0000 000. = Reserved: 0x00
        .... ...0 = Direction: FDO -> PDO (0x0)
    URB bus id: 1
    Device address: 9
    Endpoint: 0x80, Direction: IN
        1... .... = Direction: IN (1)
        .... 0000 = Endpoint number: 0
    URB transfer type: URB_CONTROL (0x02)
    Packet Data Length: 8
    [Response in: 1672324]
    Control transfer stage: Setup (0)
Setup Data
    bmRequestType: 0x80
        1... .... = Direction: Device-to-host
        .00. .... = Type: Standard (0x0)
        ...0 0000 = Recipient: Device (0x00)
    bRequest: GET DESCRIPTOR (6)
    Descriptor Index: 0x01
    bDescriptorType: STRING (0x03)
    Language Id: English (United States) (0x0409)
    wLength: 1026

0000  1c 00 60 da a8 10 03 83 ff ff 00 00 00 00 0b 00   ..`.............
0010  00 01 00 09 00 80 02 08 00 00 00 00 80 06 01 03   ................
0020  09 04 02 04                                       ....

No.     Time           Source                Destination           Protocol Length Info
1672323 6510.493581    1.9.0                 host                  USB      66     GET DESCRIPTOR Response STRING

Frame 1672323: 66 bytes on wire (528 bits), 66 bytes captured (528 bits) on interface \\.\USBPcap1, id 0
USB URB
    [Source: 1.9.0]
    [Destination: host]
    USBPcap pseudoheader length: 28
    IRP ID: 0xffff83030ba93460
    IRP USBD_STATUS: USBD_STATUS_SUCCESS (0x00000000)
    URB Function: URB_FUNCTION_CONTROL_TRANSFER (0x0008)
    IRP information: 0x01, Direction: PDO -> FDO
        0000 000. = Reserved: 0x00
        .... ...1 = Direction: PDO -> FDO (0x1)
    URB bus id: 1
    Device address: 9
    Endpoint: 0x80, Direction: IN
        1... .... = Direction: IN (1)
        .... 0000 = Endpoint number: 0
    URB transfer type: URB_CONTROL (0x02)
    Packet Data Length: 38
    [Request in: 1672320]
    [Time from request: 0.000172000 seconds]
    Control transfer stage: Complete (3)
STRING DESCRIPTOR
    bLength: 38
    bDescriptorType: 0x03 (STRING)
    bString: CY040338016A0700 G

0000  1c 00 60 34 a9 0b 03 83 ff ff 00 00 00 00 08 00   ..`4............
0010  01 01 00 09 00 80 02 26 00 00 00 03 26 03 43 00   .......&....&.C.
0020  59 00 30 00 34 00 30 00 33 00 33 00 38 00 30 00   Y.0.4.0.3.3.8.0.
0030  31 00 36 00 41 00 30 00 37 00 30 00 30 00 20 00   1.6.A.0.7.0.0. .
0040  47 00                                             G.

No.     Time           Source                Destination           Protocol Length Info
1672324 6510.493727    1.9.0                 host                  USB      70     GET DESCRIPTOR Response STRING

Frame 1672324: 70 bytes on wire (560 bits), 70 bytes captured (560 bits) on interface \\.\USBPcap1, id 0
USB URB
    [Source: 1.9.0]
    [Destination: host]
    USBPcap pseudoheader length: 28
    IRP ID: 0xffff830310a8da60
    IRP USBD_STATUS: USBD_STATUS_SUCCESS (0x00000000)
    URB Function: URB_FUNCTION_CONTROL_TRANSFER (0x0008)
    IRP information: 0x01, Direction: PDO -> FDO
        0000 000. = Reserved: 0x00
        .... ...1 = Direction: PDO -> FDO (0x1)
    URB bus id: 1
    Device address: 9
    Endpoint: 0x80, Direction: IN
        1... .... = Direction: IN (1)
        .... 0000 = Endpoint number: 0
    URB transfer type: URB_CONTROL (0x02)
    Packet Data Length: 42
    [Request in: 1672322]
    [Time from request: 0.000230000 seconds]
    Control transfer stage: Complete (3)
STRING DESCRIPTOR
    bLength: 42
    bDescriptorType: 0x03 (STRING)
    bString: Controlpad (Gateron)

0000  1c 00 60 da a8 10 03 83 ff ff 00 00 00 00 08 00   ..`.............
0010  01 01 00 09 00 80 02 2a 00 00 00 03 2a 03 43 00   .......*....*.C.
0020  6f 00 6e 00 74 00 72 00 6f 00 6c 00 70 00 61 00   o.n.t.r.o.l.p.a.
0030  64 00 20 00 28 00 47 00 61 00 74 00 65 00 72 00   d. .(.G.a.t.e.r.
0040  6f 00 6e 00 29 00                                 o.n.).

No.     Time           Source                Destination           Protocol Length Info
1672327 6510.494555    host                  1.9.0                 USB      36     GET DESCRIPTOR Request STRING

Frame 1672327: 36 bytes on wire (288 bits), 36 bytes captured (288 bits) on interface \\.\USBPcap1, id 0
USB URB
    [Source: host]
    [Destination: 1.9.0]
    USBPcap pseudoheader length: 28
    IRP ID: 0xffff8303109f4460
    IRP USBD_STATUS: USBD_STATUS_SUCCESS (0x00000000)
    URB Function: URB_FUNCTION_GET_DESCRIPTOR_FROM_DEVICE (0x000b)
    IRP information: 0x00, Direction: FDO -> PDO
        0000 000. = Reserved: 0x00
        .... ...0 = Direction: FDO -> PDO (0x0)
    URB bus id: 1
    Device address: 9
    Endpoint: 0x80, Direction: IN
        1... .... = Direction: IN (1)
        .... 0000 = Endpoint number: 0
    URB transfer type: URB_CONTROL (0x02)
    Packet Data Length: 8
    [Response in: 1672329]
    Control transfer stage: Setup (0)
Setup Data
    bmRequestType: 0x80
        1... .... = Direction: Device-to-host
        .00. .... = Type: Standard (0x0)
        ...0 0000 = Recipient: Device (0x00)
    bRequest: GET DESCRIPTOR (6)
    Descriptor Index: 0x01
    bDescriptorType: STRING (0x03)
    Language Id: English (United States) (0x0409)
    wLength: 2050

0000  1c 00 60 44 9f 10 03 83 ff ff 00 00 00 00 0b 00   ..`D............
0010  00 01 00 09 00 80 02 08 00 00 00 00 80 06 01 03   ................
0020  09 04 02 08                                       ....

No.     Time           Source                Destination           Protocol Length Info
1672329 6510.494672    1.9.0                 host                  USB      70     GET DESCRIPTOR Response STRING

Frame 1672329: 70 bytes on wire (560 bits), 70 bytes captured (560 bits) on interface \\.\USBPcap1, id 0
USB URB
    [Source: 1.9.0]
    [Destination: host]
    USBPcap pseudoheader length: 28
    IRP ID: 0xffff8303109f4460
    IRP USBD_STATUS: USBD_STATUS_SUCCESS (0x00000000)
    URB Function: URB_FUNCTION_CONTROL_TRANSFER (0x0008)
    IRP information: 0x01, Direction: PDO -> FDO
        0000 000. = Reserved: 0x00
        .... ...1 = Direction: PDO -> FDO (0x1)
    URB bus id: 1
    Device address: 9
    Endpoint: 0x80, Direction: IN
        1... .... = Direction: IN (1)
        .... 0000 = Endpoint number: 0
    URB transfer type: URB_CONTROL (0x02)
    Packet Data Length: 42
    [Request in: 1672327]
    [Time from request: 0.000117000 seconds]
    Control transfer stage: Complete (3)
STRING DESCRIPTOR
    bLength: 42
    bDescriptorType: 0x03 (STRING)
    bString: Controlpad (Gateron)

0000  1c 00 60 44 9f 10 03 83 ff ff 00 00 00 00 08 00   ..`D............
0010  01 01 00 09 00 80 02 2a 00 00 00 03 2a 03 43 00   .......*....*.C.
0020  6f 00 6e 00 74 00 72 00 6f 00 6c 00 70 00 61 00   o.n.t.r.o.l.p.a.
0030  64 00 20 00 28 00 47 00 61 00 74 00 65 00 72 00   d. .(.G.a.t.e.r.
0040  6f 00 6e 00 29 00                                 o.n.).

No.     Time           Source                Destination           Protocol Length Info
1672334 6510.495911    host                  1.9.0                 USB      36     GET DESCRIPTOR Request STRING

Frame 1672334: 36 bytes on wire (288 bits), 36 bytes captured (288 bits) on interface \\.\USBPcap1, id 0
USB URB
    [Source: host]
    [Destination: 1.9.0]
    USBPcap pseudoheader length: 28
    IRP ID: 0xffff830310a8da60
    IRP USBD_STATUS: USBD_STATUS_SUCCESS (0x00000000)
    URB Function: URB_FUNCTION_GET_DESCRIPTOR_FROM_DEVICE (0x000b)
    IRP information: 0x00, Direction: FDO -> PDO
        0000 000. = Reserved: 0x00
        .... ...0 = Direction: FDO -> PDO (0x0)
    URB bus id: 1
    Device address: 9
    Endpoint: 0x80, Direction: IN
        1... .... = Direction: IN (1)
        .... 0000 = Endpoint number: 0
    URB transfer type: URB_CONTROL (0x02)
    Packet Data Length: 8
    [Response in: 1672335]
    Control transfer stage: Setup (0)
Setup Data
    bmRequestType: 0x80
        1... .... = Direction: Device-to-host
        .00. .... = Type: Standard (0x0)
        ...0 0000 = Recipient: Device (0x00)
    bRequest: GET DESCRIPTOR (6)
    Descriptor Index: 0x03
    bDescriptorType: STRING (0x03)
    Language Id: English (United States) (0x0409)
    wLength: 1026

0000  1c 00 60 da a8 10 03 83 ff ff 00 00 00 00 0b 00   ..`.............
0010  00 01 00 09 00 80 02 08 00 00 00 00 80 06 03 03   ................
0020  09 04 02 04                                       ....

No.     Time           Source                Destination           Protocol Length Info
1672335 6510.496099    1.9.0                 host                  USB      88     GET DESCRIPTOR Response STRING

Frame 1672335: 88 bytes on wire (704 bits), 88 bytes captured (704 bits) on interface \\.\USBPcap1, id 0
USB URB
    [Source: 1.9.0]
    [Destination: host]
    USBPcap pseudoheader length: 28
    IRP ID: 0xffff830310a8da60
    IRP USBD_STATUS: USBD_STATUS_SUCCESS (0x00000000)
    URB Function: URB_FUNCTION_CONTROL_TRANSFER (0x0008)
    IRP information: 0x01, Direction: PDO -> FDO
        0000 000. = Reserved: 0x00
        .... ...1 = Direction: PDO -> FDO (0x1)
    URB bus id: 1
    Device address: 9
    Endpoint: 0x80, Direction: IN
        1... .... = Direction: IN (1)
        .... 0000 = Endpoint number: 0
    URB transfer type: URB_CONTROL (0x02)
    Packet Data Length: 60
    [Request in: 1672334]
    [Time from request: 0.000188000 seconds]
    Control transfer stage: Complete (3)
STRING DESCRIPTOR
    bLength: 60
    bDescriptorType: 0x03 (STRING)
    bString: Cooler Master Technology Inc.

0000  1c 00 60 da a8 10 03 83 ff ff 00 00 00 00 08 00   ..`.............
0010  01 01 00 09 00 80 02 3c 00 00 00 03 3c 03 43 00   .......<....<.C.
0020  6f 00 6f 00 6c 00 65 00 72 00 20 00 4d 00 61 00   o.o.l.e.r. .M.a.
0030  73 00 74 00 65 00 72 00 20 00 54 00 65 00 63 00   s.t.e.r. .T.e.c.
0040  68 00 6e 00 6f 00 6c 00 6f 00 67 00 79 00 20 00   h.n.o.l.o.g.y. .
0050  49 00 6e 00 63 00 2e 00                           I.n.c...

