No.     Time           Source                Destination           Protocol Length Info
      1 0.000000       host                  1.13.0                USB      36     GET DESCRIPTOR Request DEVICE

Frame 1: 36 bytes on wire (288 bits), 36 bytes captured (288 bits) on interface \\.\USBPcap1, id 0
USB URB
    [Source: host]
    [Destination: 1.13.0]
    USBPcap pseudoheader length: 28
    IRP ID: 0x0000000000000000
    IRP USBD_STATUS: USBD_STATUS_SUCCESS (0x00000000)
    URB Function: URB_FUNCTION_GET_DESCRIPTOR_FROM_DEVICE (0x000b)
    IRP information: 0x00, Direction: FDO -> PDO
        0000 000. = Reserved: 0x00
        .... ...0 = Direction: FDO -> PDO (0x0)
    URB bus id: 1
    Device address: 13
    Endpoint: 0x80, Direction: IN
        1... .... = Direction: IN (1)
        .... 0000 = Endpoint number: 0
    URB transfer type: URB_CONTROL (0x02)
    Packet Data Length: 8
    [Response in: 2]
    Control transfer stage: Setup (0)
Setup Data
    bmRequestType: 0x80
        1... .... = Direction: Device-to-host
        .00. .... = Type: Standard (0x0)
        ...0 0000 = Recipient: Device (0x00)
    bRequest: GET DESCRIPTOR (6)
    Descriptor Index: 0x00
    bDescriptorType: DEVICE (0x01)
    Language Id: no language specified (0x0000)
    wLength: 18

0000  1c 00 00 00 00 00 00 00 00 00 00 00 00 00 0b 00   ................
0010  00 01 00 0d 00 80 02 08 00 00 00 00 80 06 00 01   ................
0020  00 00 12 00                                       ....

No.     Time           Source                Destination           Protocol Length Info
      2 0.000000       1.13.0                host                  USB      46     GET DESCRIPTOR Response DEVICE

Frame 2: 46 bytes on wire (368 bits), 46 bytes captured (368 bits) on interface \\.\USBPcap1, id 0
USB URB
    [Source: 1.13.0]
    [Destination: host]
    USBPcap pseudoheader length: 28
    IRP ID: 0x0000000000000000
    IRP USBD_STATUS: USBD_STATUS_SUCCESS (0x00000000)
    URB Function: URB_FUNCTION_CONTROL_TRANSFER (0x0008)
    IRP information: 0x01, Direction: PDO -> FDO
        0000 000. = Reserved: 0x00
        .... ...1 = Direction: PDO -> FDO (0x1)
    URB bus id: 1
    Device address: 13
    Endpoint: 0x80, Direction: IN
        1... .... = Direction: IN (1)
        .... 0000 = Endpoint number: 0
    URB transfer type: URB_CONTROL (0x02)
    Packet Data Length: 18
    [Request in: 1]
    [Time from request: 0.000000000 seconds]
    Control transfer stage: Complete (3)
DEVICE DESCRIPTOR
    bLength: 18
    bDescriptorType: 0x01 (DEVICE)
    bcdUSB: 0x0200
    bDeviceClass: Device (0x00)
    bDeviceSubClass: 0
    bDeviceProtocol: 0 (Use class code info from Interface Descriptors)
    bMaxPacketSize0: 64
    idVendor: Cooler Master Co., Ltd. (0x2516)
    idProduct: Unknown (0x012d)
    bcdDevice: 0x0720
    iManufacturer: 3
    iProduct: 1
    iSerialNumber: 0
    bNumConfigurations: 1

0000  1c 00 00 00 00 00 00 00 00 00 00 00 00 00 08 00   ................
0010  01 01 00 0d 00 80 02 12 00 00 00 03 12 01 00 02   ................
0020  00 00 00 40 16 25 2d 01 20 07 03 01 00 01         ...@.%-. .....

No.     Time           Source                Destination           Protocol Length Info
      3 0.000000       host                  1.13.0                USB      36     GET DESCRIPTOR Request CONFIGURATION

Frame 3: 36 bytes on wire (288 bits), 36 bytes captured (288 bits) on interface \\.\USBPcap1, id 0
USB URB
    [Source: host]
    [Destination: 1.13.0]
    USBPcap pseudoheader length: 28
    IRP ID: 0x0000000000000000
    IRP USBD_STATUS: USBD_STATUS_SUCCESS (0x00000000)
    URB Function: URB_FUNCTION_GET_DESCRIPTOR_FROM_DEVICE (0x000b)
    IRP information: 0x00, Direction: FDO -> PDO
        0000 000. = Reserved: 0x00
        .... ...0 = Direction: FDO -> PDO (0x0)
    URB bus id: 1
    Device address: 13
    Endpoint: 0x80, Direction: IN
        1... .... = Direction: IN (1)
        .... 0000 = Endpoint number: 0
    URB transfer type: URB_CONTROL (0x02)
    Packet Data Length: 8
    [Response in: 4]
    Control transfer stage: Setup (0)
Setup Data
    bmRequestType: 0x80
        1... .... = Direction: Device-to-host
        .00. .... = Type: Standard (0x0)
        ...0 0000 = Recipient: Device (0x00)
    bRequest: GET DESCRIPTOR (6)
    Descriptor Index: 0x00
    bDescriptorType: CONFIGURATION (0x02)
    Language Id: no language specified (0x0000)
    wLength: 91

0000  1c 00 00 00 00 00 00 00 00 00 00 00 00 00 0b 00   ................
0010  00 01 00 0d 00 80 02 08 00 00 00 00 80 06 00 02   ................
0020  00 00 5b 00                                       ..[.

No.     Time           Source                Destination           Protocol Length Info
      4 0.000000       1.13.0                host                  USB      119    GET DESCRIPTOR Response CONFIGURATION

Frame 4: 119 bytes on wire (952 bits), 119 bytes captured (952 bits) on interface \\.\USBPcap1, id 0
USB URB
    [Source: 1.13.0]
    [Destination: host]
    USBPcap pseudoheader length: 28
    IRP ID: 0x0000000000000000
    IRP USBD_STATUS: USBD_STATUS_SUCCESS (0x00000000)
    URB Function: URB_FUNCTION_CONTROL_TRANSFER (0x0008)
    IRP information: 0x01, Direction: PDO -> FDO
        0000 000. = Reserved: 0x00
        .... ...1 = Direction: PDO -> FDO (0x1)
    URB bus id: 1
    Device address: 13
    Endpoint: 0x80, Direction: IN
        1... .... = Direction: IN (1)
        .... 0000 = Endpoint number: 0
    URB transfer type: URB_CONTROL (0x02)
    Packet Data Length: 91
    [Request in: 3]
    [Time from request: 0.000000000 seconds]
    Control transfer stage: Complete (3)
CONFIGURATION DESCRIPTOR
    bLength: 9
    bDescriptorType: 0x02 (CONFIGURATION)
    wTotalLength: 91
    bNumInterfaces: 3
    bConfigurationValue: 1
    iConfiguration: 0
    Configuration bmAttributes: 0xa0  NOT SELF-POWERED  REMOTE-WAKEUP
    bMaxPower: 50  (100mA)
INTERFACE DESCRIPTOR (0.0): class HID
    bLength: 9
    bDescriptorType: 0x04 (INTERFACE)
    bInterfaceNumber: 0
    bAlternateSetting: 0
    bNumEndpoints: 1
    bInterfaceClass: HID (0x03)
    bInterfaceSubClass: Boot Interface (0x01)
    bInterfaceProtocol: Keyboard (0x01)
    iInterface: 0
HID DESCRIPTOR
ENDPOINT DESCRIPTOR
    bLength: 7
    bDescriptorType: 0x05 (ENDPOINT)
    bEndpointAddress: 0x81  IN  Endpoint:1
    bmAttributes: 0x03
    wMaxPacketSize: 8
    bInterval: 1
INTERFACE DESCRIPTOR (1.0): class HID
    bLength: 9
    bDescriptorType: 0x04 (INTERFACE)
    bInterfaceNumber: 1
    bAlternateSetting: 0
    bNumEndpoints: 2
    bInterfaceClass: HID (0x03)
    bInterfaceSubClass: No Subclass (0x00)
    bInterfaceProtocol: 0x00
    iInterface: 2
HID DESCRIPTOR
ENDPOINT DESCRIPTOR
    bLength: 7
    bDescriptorType: 0x05 (ENDPOINT)
    bEndpointAddress: 0x83  IN  Endpoint:3
    bmAttributes: 0x03
    wMaxPacketSize: 64
    bInterval: 1
ENDPOINT DESCRIPTOR
    bLength: 7
    bDescriptorType: 0x05 (ENDPOINT)
    bEndpointAddress: 0x04  OUT  Endpoint:4
    bmAttributes: 0x03
    wMaxPacketSize: 64
    bInterval: 1
INTERFACE DESCRIPTOR (2.0): class HID
    bLength: 9
    bDescriptorType: 0x04 (INTERFACE)
    bInterfaceNumber: 2
    bAlternateSetting: 0
    bNumEndpoints: 1
    bInterfaceClass: HID (0x03)
    bInterfaceSubClass: No Subclass (0x00)
    bInterfaceProtocol: 0x00
    iInterface: 0
HID DESCRIPTOR
ENDPOINT DESCRIPTOR
    bLength: 7
    bDescriptorType: 0x05 (ENDPOINT)
    bEndpointAddress: 0x82  IN  Endpoint:2
    bmAttributes: 0x03
    wMaxPacketSize: 64
    bInterval: 1

0000  1c 00 00 00 00 00 00 00 00 00 00 00 00 00 08 00   ................
0010  01 01 00 0d 00 80 02 5b 00 00 00 03 09 02 5b 00   .......[......[.
0020  03 01 00 a0 32 09 04 00 00 01 03 01 01 00 09 21   ....2..........!
0030  11 01 00 01 22 40 00 07 05 81 03 08 00 01 09 04   ...."@..........
0040  01 00 02 03 00 00 02 09 21 11 01 00 01 22 22 00   ........!...."".
0050  07 05 83 03 40 00 01 07 05 04 03 40 00 01 09 04   ....@......@....
0060  02 00 01 03 00 00 00 09 21 11 01 00 01 22 cb 00   ........!...."..
0070  07 05 82 03 40 00 01                              ....@..

No.     Time           Source                Destination           Protocol Length Info
      5 0.000000       host                  1.13.0                USB      36     SET CONFIGURATION Request

Frame 5: 36 bytes on wire (288 bits), 36 bytes captured (288 bits) on interface \\.\USBPcap1, id 0
USB URB
    [Source: host]
    [Destination: 1.13.0]
    USBPcap pseudoheader length: 28
    IRP ID: 0x0000000000000000
    IRP USBD_STATUS: USBD_STATUS_SUCCESS (0x00000000)
    URB Function: URB_FUNCTION_SELECT_CONFIGURATION (0x0000)
    IRP information: 0x00, Direction: FDO -> PDO
        0000 000. = Reserved: 0x00
        .... ...0 = Direction: FDO -> PDO (0x0)
    URB bus id: 1
    Device address: 13
    Endpoint: 0x00, Direction: OUT
        0... .... = Direction: OUT (0)
        .... 0000 = Endpoint number: 0
    URB transfer type: URB_CONTROL (0x02)
    Packet Data Length: 8
    [Response in: 6]
    Control transfer stage: Setup (0)
Setup Data
    bmRequestType: 0x00
        0... .... = Direction: Host-to-device
        .00. .... = Type: Standard (0x0)
        ...0 0000 = Recipient: Device (0x00)
    bRequest: SET CONFIGURATION (9)
    bConfigurationValue: 1
    wIndex: 0 (0x0000)
    wLength: 0

0000  1c 00 00 00 00 00 00 00 00 00 00 00 00 00 00 00   ................
0010  00 01 00 0d 00 00 02 08 00 00 00 00 00 09 01 00   ................
0020  00 00 00 00                                       ....

No.     Time           Source                Destination           Protocol Length Info
      6 0.000000       1.13.0                host                  USB      28     SET CONFIGURATION Response

Frame 6: 28 bytes on wire (224 bits), 28 bytes captured (224 bits) on interface \\.\USBPcap1, id 0
USB URB
    [Source: 1.13.0]
    [Destination: host]
    USBPcap pseudoheader length: 28
    IRP ID: 0x0000000000000000
    IRP USBD_STATUS: USBD_STATUS_SUCCESS (0x00000000)
    URB Function: URB_FUNCTION_SELECT_CONFIGURATION (0x0000)
    IRP information: 0x01, Direction: PDO -> FDO
        0000 000. = Reserved: 0x00
        .... ...1 = Direction: PDO -> FDO (0x1)
    URB bus id: 1
    Device address: 13
    Endpoint: 0x00, Direction: OUT
        0... .... = Direction: OUT (0)
        .... 0000 = Endpoint number: 0
    URB transfer type: URB_CONTROL (0x02)
    Packet Data Length: 0
    [Request in: 5]
    [Time from request: 0.000000000 seconds]
    Control transfer stage: Complete (3)

0000  1c 00 00 00 00 00 00 00 00 00 00 00 00 00 00 00   ................
0010  01 01 00 0d 00 00 02 00 00 00 00 03               ............

No.     Time           Source                Destination           Protocol Length Info
   1297 11.719791      1.13.3                host                  USB      91     URB_INTERRUPT in

Frame 1297: 91 bytes on wire (728 bits), 91 bytes captured (728 bits) on interface \\.\USBPcap1, id 0
USB URB
    [Source: 1.13.3]
    [Destination: host]
    USBPcap pseudoheader length: 27
    IRP ID: 0xffff83030eb6ba20
    IRP USBD_STATUS: USBD_STATUS_SUCCESS (0x00000000)
    URB Function: URB_FUNCTION_BULK_OR_INTERRUPT_TRANSFER (0x0009)
    IRP information: 0x01, Direction: PDO -> FDO
        0000 000. = Reserved: 0x00
        .... ...1 = Direction: PDO -> FDO (0x1)
    URB bus id: 1
    Device address: 13
    Endpoint: 0x83, Direction: IN
        1... .... = Direction: IN (1)
        .... 0011 = Endpoint number: 3
    URB transfer type: URB_INTERRUPT (0x01)
    Packet Data Length: 64
    [bInterfaceClass: HID (0x03)]
HID Data: 42200000000000010000000000000000000000000000000000000000000000000000000000000000000000000000000000000000000000000000000000000000

0000  1b 00 20 ba b6 0e 03 83 ff ff 00 00 00 00 09 00   .. .............
0010  01 01 00 0d 00 83 01 40 00 00 00 42 20 00 00 00   .......@...B ...
0020  00 00 01 00 00 00 00 00 00 00 00 00 00 00 00 00   ................
0030  00 00 00 00 00 00 00 00 00 00 00 00 00 00 00 00   ................
0040  00 00 00 00 00 00 00 00 00 00 00 00 00 00 00 00   ................
0050  00 00 00 00 00 00 00 00 00 00 00                  ...........

No.     Time           Source                Destination           Protocol Length Info
   1298 11.719840      host                  1.13.3                USB      27     URB_INTERRUPT in

Frame 1298: 27 bytes on wire (216 bits), 27 bytes captured (216 bits) on interface \\.\USBPcap1, id 0
USB URB
    [Source: host]
    [Destination: 1.13.3]
    USBPcap pseudoheader length: 27
    IRP ID: 0xffff83030eb6ba20
    IRP USBD_STATUS: USBD_STATUS_SUCCESS (0x00000000)
    URB Function: URB_FUNCTION_BULK_OR_INTERRUPT_TRANSFER (0x0009)
    IRP information: 0x00, Direction: FDO -> PDO
        0000 000. = Reserved: 0x00
        .... ...0 = Direction: FDO -> PDO (0x0)
    URB bus id: 1
    Device address: 13
    Endpoint: 0x83, Direction: IN
        1... .... = Direction: IN (1)
        .... 0011 = Endpoint number: 3
    URB transfer type: URB_INTERRUPT (0x01)
    Packet Data Length: 0
    [Response in: 1303]
    [bInterfaceClass: HID (0x03)]

0000  1b 00 20 ba b6 0e 03 83 ff ff 00 00 00 00 09 00   .. .............
0010  00 01 00 0d 00 83 01 00 00 00 00                  ...........

No.     Time           Source                Destination           Protocol Length Info
   1299 11.720780      1.13.3                host                  USB      91     URB_INTERRUPT in

Frame 1299: 91 bytes on wire (728 bits), 91 bytes captured (728 bits) on interface \\.\USBPcap1, id 0
USB URB
    [Source: 1.13.3]
    [Destination: host]
    USBPcap pseudoheader length: 27
    IRP ID: 0xffff8303168eda20
    IRP USBD_STATUS: USBD_STATUS_SUCCESS (0x00000000)
    URB Function: URB_FUNCTION_BULK_OR_INTERRUPT_TRANSFER (0x0009)
    IRP information: 0x01, Direction: PDO -> FDO
        0000 000. = Reserved: 0x00
        .... ...1 = Direction: PDO -> FDO (0x1)
    URB bus id: 1
    Device address: 13
    Endpoint: 0x83, Direction: IN
        1... .... = Direction: IN (1)
        .... 0011 = Endpoint number: 3
    URB transfer type: URB_INTERRUPT (0x01)
    Packet Data Length: 64
    [bInterfaceClass: HID (0x03)]
HID Data: 4301000009c000000000000000000000000000000000000000000000000000000000000000000000000000000000000000000000000000000000000000000000

0000  1b 00 20 da 8e 16 03 83 ff ff 00 00 00 00 09 00   .. .............
0010  01 01 00 0d 00 83 01 40 00 00 00 43 01 00 00 09   .......@...C....
0020  c0 00 00 00 00 00 00 00 00 00 00 00 00 00 00 00   ................
0030  00 00 00 00 00 00 00 00 00 00 00 00 00 00 00 00   ................
0040  00 00 00 00 00 00 00 00 00 00 00 00 00 00 00 00   ................
0050  00 00 00 00 00 00 00 00 00 00 00                  ...........

No.     Time           Source                Destination           Protocol Length Info
   1300 11.720810      host                  1.13.3                USB      27     URB_INTERRUPT in

Frame 1300: 27 bytes on wire (216 bits), 27 bytes captured (216 bits) on interface \\.\USBPcap1, id 0
USB URB
    [Source: host]
    [Destination: 1.13.3]
    USBPcap pseudoheader length: 27
    IRP ID: 0xffff8303168eda20
    IRP USBD_STATUS: USBD_STATUS_SUCCESS (0x00000000)
    URB Function: URB_FUNCTION_BULK_OR_INTERRUPT_TRANSFER (0x0009)
    IRP information: 0x00, Direction: FDO -> PDO
        0000 000. = Reserved: 0x00
        .... ...0 = Direction: FDO -> PDO (0x0)
    URB bus id: 1
    Device address: 13
    Endpoint: 0x83, Direction: IN
        1... .... = Direction: IN (1)
        .... 0011 = Endpoint number: 3
    URB transfer type: URB_INTERRUPT (0x01)
    Packet Data Length: 0
    [Response in: 1307]
    [bInterfaceClass: HID (0x03)]

0000  1b 00 20 da 8e 16 03 83 ff ff 00 00 00 00 09 00   .. .............
0010  00 01 00 0d 00 83 01 00 00 00 00                  ...........

No.     Time           Source                Destination           Protocol Length Info
   1301 11.732056      host                  1.13.4                USB      91     URB_INTERRUPT out

Frame 1301: 91 bytes on wire (728 bits), 91 bytes captured (728 bits) on interface \\.\USBPcap1, id 0
USB URB
    [Source: host]
    [Destination: 1.13.4]
    USBPcap pseudoheader length: 27
    IRP ID: 0xffff83030b5f13b0
    IRP USBD_STATUS: USBD_STATUS_SUCCESS (0x00000000)
    URB Function: URB_FUNCTION_BULK_OR_INTERRUPT_TRANSFER (0x0009)
    IRP information: 0x00, Direction: FDO -> PDO
        0000 000. = Reserved: 0x00
        .... ...0 = Direction: FDO -> PDO (0x0)
    URB bus id: 1
    Device address: 13
    Endpoint: 0x04, Direction: OUT
        0... .... = Direction: OUT (0)
        .... 0100 = Endpoint number: 4
    URB transfer type: URB_INTERRUPT (0x01)
    Packet Data Length: 64
    [Response in: 1302]
    [bInterfaceClass: HID (0x03)]
HID Data: 42100000010000010000000000000000000000000000000000000000000000000000000000000000000000000000000000000000000000000000000000000000

0000  1b 00 b0 13 5f 0b 03 83 ff ff 00 00 00 00 09 00   ...._...........
0010  00 01 00 0d 00 04 01 40 00 00 00 42 10 00 00 01   .......@...B....
0020  00 00 01 00 00 00 00 00 00 00 00 00 00 00 00 00   ................
0030  00 00 00 00 00 00 00 00 00 00 00 00 00 00 00 00   ................
0040  00 00 00 00 00 00 00 00 00 00 00 00 00 00 00 00   ................
0050  00 00 00 00 00 00 00 00 00 00 00                  ...........

No.     Time           Source                Destination           Protocol Length Info
   1302 11.732774      1.13.4                host                  USB      27     URB_INTERRUPT out

Frame 1302: 27 bytes on wire (216 bits), 27 bytes captured (216 bits) on interface \\.\USBPcap1, id 0
USB URB
    [Source: 1.13.4]
    [Destination: host]
    USBPcap pseudoheader length: 27
    IRP ID: 0xffff83030b5f13b0
    IRP USBD_STATUS: USBD_STATUS_SUCCESS (0x00000000)
    URB Function: URB_FUNCTION_BULK_OR_INTERRUPT_TRANSFER (0x0009)
    IRP information: 0x01, Direction: PDO -> FDO
        0000 000. = Reserved: 0x00
        .... ...1 = Direction: PDO -> FDO (0x1)
    URB bus id: 1
    Device address: 13
    Endpoint: 0x04, Direction: OUT
        0... .... = Direction: OUT (0)
        .... 0100 = Endpoint number: 4
    URB transfer type: URB_INTERRUPT (0x01)
    Packet Data Length: 0
    [Request in: 1301]
    [Time from request: 0.000718000 seconds]
    [bInterfaceClass: HID (0x03)]

0000  1b 00 b0 13 5f 0b 03 83 ff ff 00 00 00 00 09 00   ...._...........
0010  01 01 00 0d 00 04 01 00 00 00 00                  ...........

No.     Time           Source                Destination           Protocol Length Info
   1303 11.733780      1.13.3                host                  USB      91     URB_INTERRUPT in

Frame 1303: 91 bytes on wire (728 bits), 91 bytes captured (728 bits) on interface \\.\USBPcap1, id 0
USB URB
    [Source: 1.13.3]
    [Destination: host]
    USBPcap pseudoheader length: 27
    IRP ID: 0xffff83030eb6ba20
    IRP USBD_STATUS: USBD_STATUS_SUCCESS (0x00000000)
    URB Function: URB_FUNCTION_BULK_OR_INTERRUPT_TRANSFER (0x0009)
    IRP information: 0x01, Direction: PDO -> FDO
        0000 000. = Reserved: 0x00
        .... ...1 = Direction: PDO -> FDO (0x1)
    URB bus id: 1
    Device address: 13
    Endpoint: 0x83, Direction: IN
        1... .... = Direction: IN (1)
        .... 0011 = Endpoint number: 3
    URB transfer type: URB_INTERRUPT (0x01)
    Packet Data Length: 64
    [Request in: 1298]
    [Time from request: 0.013940000 seconds]
    [bInterfaceClass: HID (0x03)]
HID Data: 42100000000000000000000000000000000000000000000000000000000000000000000000000000000000000000000000000000000000000000000000000000

0000  1b 00 20 ba b6 0e 03 83 ff ff 00 00 00 00 09 00   .. .............
0010  01 01 00 0d 00 83 01 40 00 00 00 42 10 00 00 00   .......@...B....
0020  00 00 00 00 00 00 00 00 00 00 00 00 00 00 00 00   ................
0030  00 00 00 00 00 00 00 00 00 00 00 00 00 00 00 00   ................
0040  00 00 00 00 00 00 00 00 00 00 00 00 00 00 00 00   ................
0050  00 00 00 00 00 00 00 00 00 00 00                  ...........

No.     Time           Source                Destination           Protocol Length Info
   1304 11.733811      host                  1.13.3                USB      27     URB_INTERRUPT in

Frame 1304: 27 bytes on wire (216 bits), 27 bytes captured (216 bits) on interface \\.\USBPcap1, id 0
USB URB
    [Source: host]
    [Destination: 1.13.3]
    USBPcap pseudoheader length: 27
    IRP ID: 0xffff83030eb6ba20
    IRP USBD_STATUS: USBD_STATUS_SUCCESS (0x00000000)
    URB Function: URB_FUNCTION_BULK_OR_INTERRUPT_TRANSFER (0x0009)
    IRP information: 0x00, Direction: FDO -> PDO
        0000 000. = Reserved: 0x00
        .... ...0 = Direction: FDO -> PDO (0x0)
    URB bus id: 1
    Device address: 13
    Endpoint: 0x83, Direction: IN
        1... .... = Direction: IN (1)
        .... 0011 = Endpoint number: 3
    URB transfer type: URB_INTERRUPT (0x01)
    Packet Data Length: 0
    [Response in: 1311]
    [bInterfaceClass: HID (0x03)]

0000  1b 00 20 ba b6 0e 03 83 ff ff 00 00 00 00 09 00   .. .............
0010  00 01 00 0d 00 83 01 00 00 00 00                  ...........

No.     Time           Source                Destination           Protocol Length Info
   1305 11.740690      host                  1.13.4                USB      91     URB_INTERRUPT out

Frame 1305: 91 bytes on wire (728 bits), 91 bytes captured (728 bits) on interface \\.\USBPcap1, id 0
USB URB
    [Source: host]
    [Destination: 1.13.4]
    USBPcap pseudoheader length: 27
    IRP ID: 0xffff83030ed69010
    IRP USBD_STATUS: USBD_STATUS_SUCCESS (0x00000000)
    URB Function: URB_FUNCTION_BULK_OR_INTERRUPT_TRANSFER (0x0009)
    IRP information: 0x00, Direction: FDO -> PDO
        0000 000. = Reserved: 0x00
        .... ...0 = Direction: FDO -> PDO (0x0)
    URB bus id: 1
    Device address: 13
    Endpoint: 0x04, Direction: OUT
        0... .... = Direction: OUT (0)
        .... 0100 = Endpoint number: 4
    URB transfer type: URB_INTERRUPT (0x01)
    Packet Data Length: 64
    [Response in: 1306]
    [bInterfaceClass: HID (0x03)]
HID Data: 42100000010000010000000000000000000000000000000000000000000000000000000000000000000000000000000000000000000000000000000000000000

0000  1b 00 10 90 d6 0e 03 83 ff ff 00 00 00 00 09 00   ................
0010  00 01 00 0d 00 04 01 40 00 00 00 42 10 00 00 01   .......@...B....
0020  00 00 01 00 00 00 00 00 00 00 00 00 00 00 00 00   ................
0030  00 00 00 00 00 00 00 00 00 00 00 00 00 00 00 00   ................
0040  00 00 00 00 00 00 00 00 00 00 00 00 00 00 00 00   ................
0050  00 00 00 00 00 00 00 00 00 00 00                  ...........

No.     Time           Source                Destination           Protocol Length Info
   1306 11.741776      1.13.4                host                  USB      27     URB_INTERRUPT out

Frame 1306: 27 bytes on wire (216 bits), 27 bytes captured (216 bits) on interface \\.\USBPcap1, id 0
USB URB
    [Source: 1.13.4]
    [Destination: host]
    USBPcap pseudoheader length: 27
    IRP ID: 0xffff83030ed69010
    IRP USBD_STATUS: USBD_STATUS_SUCCESS (0x00000000)
    URB Function: URB_FUNCTION_BULK_OR_INTERRUPT_TRANSFER (0x0009)
    IRP information: 0x01, Direction: PDO -> FDO
        0000 000. = Reserved: 0x00
        .... ...1 = Direction: PDO -> FDO (0x1)
    URB bus id: 1
    Device address: 13
    Endpoint: 0x04, Direction: OUT
        0... .... = Direction: OUT (0)
        .... 0100 = Endpoint number: 4
    URB transfer type: URB_INTERRUPT (0x01)
    Packet Data Length: 0
    [Request in: 1305]
    [Time from request: 0.001086000 seconds]
    [bInterfaceClass: HID (0x03)]

0000  1b 00 10 90 d6 0e 03 83 ff ff 00 00 00 00 09 00   ................
0010  01 01 00 0d 00 04 01 00 00 00 00                  ...........

No.     Time           Source                Destination           Protocol Length Info
   1307 11.742782      1.13.3                host                  USB      91     URB_INTERRUPT in

Frame 1307: 91 bytes on wire (728 bits), 91 bytes captured (728 bits) on interface \\.\USBPcap1, id 0
USB URB
    [Source: 1.13.3]
    [Destination: host]
    USBPcap pseudoheader length: 27
    IRP ID: 0xffff8303168eda20
    IRP USBD_STATUS: USBD_STATUS_SUCCESS (0x00000000)
    URB Function: URB_FUNCTION_BULK_OR_INTERRUPT_TRANSFER (0x0009)
    IRP information: 0x01, Direction: PDO -> FDO
        0000 000. = Reserved: 0x00
        .... ...1 = Direction: PDO -> FDO (0x1)
    URB bus id: 1
    Device address: 13
    Endpoint: 0x83, Direction: IN
        1... .... = Direction: IN (1)
        .... 0011 = Endpoint number: 3
    URB transfer type: URB_INTERRUPT (0x01)
    Packet Data Length: 64
    [Request in: 1300]
    [Time from request: 0.021972000 seconds]
    [bInterfaceClass: HID (0x03)]
HID Data: 42100000000000000000000000000000000000000000000000000000000000000000000000000000000000000000000000000000000000000000000000000000

0000  1b 00 20 da 8e 16 03 83 ff ff 00 00 00 00 09 00   .. .............
0010  01 01 00 0d 00 83 01 40 00 00 00 42 10 00 00 00   .......@...B....
0020  00 00 00 00 00 00 00 00 00 00 00 00 00 00 00 00   ................
0030  00 00 00 00 00 00 00 00 00 00 00 00 00 00 00 00   ................
0040  00 00 00 00 00 00 00 00 00 00 00 00 00 00 00 00   ................
0050  00 00 00 00 00 00 00 00 00 00 00                  ...........

No.     Time           Source                Destination           Protocol Length Info
   1308 11.742812      host                  1.13.3                USB      27     URB_INTERRUPT in

Frame 1308: 27 bytes on wire (216 bits), 27 bytes captured (216 bits) on interface \\.\USBPcap1, id 0
USB URB
    [Source: host]
    [Destination: 1.13.3]
    USBPcap pseudoheader length: 27
    IRP ID: 0xffff8303168eda20
    IRP USBD_STATUS: USBD_STATUS_SUCCESS (0x00000000)
    URB Function: URB_FUNCTION_BULK_OR_INTERRUPT_TRANSFER (0x0009)
    IRP information: 0x00, Direction: FDO -> PDO
        0000 000. = Reserved: 0x00
        .... ...0 = Direction: FDO -> PDO (0x0)
    URB bus id: 1
    Device address: 13
    Endpoint: 0x83, Direction: IN
        1... .... = Direction: IN (1)
        .... 0011 = Endpoint number: 3
    URB transfer type: URB_INTERRUPT (0x01)
    Packet Data Length: 0
    [Response in: 1315]
    [bInterfaceClass: HID (0x03)]

0000  1b 00 20 da 8e 16 03 83 ff ff 00 00 00 00 09 00   .. .............
0010  00 01 00 0d 00 83 01 00 00 00 00                  ...........

No.     Time           Source                Destination           Protocol Length Info
   1309 11.760291      host                  1.13.4                USB      91     URB_INTERRUPT out

Frame 1309: 91 bytes on wire (728 bits), 91 bytes captured (728 bits) on interface \\.\USBPcap1, id 0
USB URB
    [Source: host]
    [Destination: 1.13.4]
    USBPcap pseudoheader length: 27
    IRP ID: 0xffff83030ed7e010
    IRP USBD_STATUS: USBD_STATUS_SUCCESS (0x00000000)
    URB Function: URB_FUNCTION_BULK_OR_INTERRUPT_TRANSFER (0x0009)
    IRP information: 0x00, Direction: FDO -> PDO
        0000 000. = Reserved: 0x00
        .... ...0 = Direction: FDO -> PDO (0x0)
    URB bus id: 1
    Device address: 13
    Endpoint: 0x04, Direction: OUT
        0... .... = Direction: OUT (0)
        .... 0100 = Endpoint number: 4
    URB transfer type: URB_INTERRUPT (0x01)
    Packet Data Length: 64
    [Response in: 1310]
    [bInterfaceClass: HID (0x03)]
HID Data: 41800000000000000000000000000000000000000000000000000000000000000000000000000000000000000000000000000000000000000000000000000000

0000  1b 00 10 e0 d7 0e 03 83 ff ff 00 00 00 00 09 00   ................
0010  00 01 00 0d 00 04 01 40 00 00 00 41 80 00 00 00   .......@...A....
0020  00 00 00 00 00 00 00 00 00 00 00 00 00 00 00 00   ................
0030  00 00 00 00 00 00 00 00 00 00 00 00 00 00 00 00   ................
0040  00 00 00 00 00 00 00 00 00 00 00 00 00 00 00 00   ................
0050  00 00 00 00 00 00 00 00 00 00 00                  ...........

No.     Time           Source                Destination           Protocol Length Info
   1310 11.760805      1.13.4                host                  USB      27     URB_INTERRUPT out

Frame 1310: 27 bytes on wire (216 bits), 27 bytes captured (216 bits) on interface \\.\USBPcap1, id 0
USB URB
    [Source: 1.13.4]
    [Destination: host]
    USBPcap pseudoheader length: 27
    IRP ID: 0xffff83030ed7e010
    IRP USBD_STATUS: USBD_STATUS_SUCCESS (0x00000000)
    URB Function: URB_FUNCTION_BULK_OR_INTERRUPT_TRANSFER (0x0009)
    IRP information: 0x01, Direction: PDO -> FDO
        0000 000. = Reserved: 0x00
        .... ...1 = Direction: PDO -> FDO (0x1)
    URB bus id: 1
    Device address: 13
    Endpoint: 0x04, Direction: OUT
        0... .... = Direction: OUT (0)
        .... 0100 = Endpoint number: 4
    URB transfer type: URB_INTERRUPT (0x01)
    Packet Data Length: 0
    [Request in: 1309]
    [Time from request: 0.000514000 seconds]
    [bInterfaceClass: HID (0x03)]

0000  1b 00 10 e0 d7 0e 03 83 ff ff 00 00 00 00 09 00   ................
0010  01 01 00 0d 00 04 01 00 00 00 00                  ...........

No.     Time           Source                Destination           Protocol Length Info
   1311 11.761778      1.13.3                host                  USB      91     URB_INTERRUPT in

Frame 1311: 91 bytes on wire (728 bits), 91 bytes captured (728 bits) on interface \\.\USBPcap1, id 0
USB URB
    [Source: 1.13.3]
    [Destination: host]
    USBPcap pseudoheader length: 27
    IRP ID: 0xffff83030eb6ba20
    IRP USBD_STATUS: USBD_STATUS_SUCCESS (0x00000000)
    URB Function: URB_FUNCTION_BULK_OR_INTERRUPT_TRANSFER (0x0009)
    IRP information: 0x01, Direction: PDO -> FDO
        0000 000. = Reserved: 0x00
        .... ...1 = Direction: PDO -> FDO (0x1)
    URB bus id: 1
    Device address: 13
    Endpoint: 0x83, Direction: IN
        1... .... = Direction: IN (1)
        .... 0011 = Endpoint number: 3
    URB transfer type: URB_INTERRUPT (0x01)
    Packet Data Length: 64
    [Request in: 1304]
    [Time from request: 0.027967000 seconds]
    [bInterfaceClass: HID (0x03)]
HID Data: 41800000000000000000000000000000000000000000000000000000000000000000000000000000000000000000000000000000000000000000000000000000

0000  1b 00 20 ba b6 0e 03 83 ff ff 00 00 00 00 09 00   .. .............
0010  01 01 00 0d 00 83 01 40 00 00 00 41 80 00 00 00   .......@...A....
0020  00 00 00 00 00 00 00 00 00 00 00 00 00 00 00 00   ................
0030  00 00 00 00 00 00 00 00 00 00 00 00 00 00 00 00   ................
0040  00 00 00 00 00 00 00 00 00 00 00 00 00 00 00 00   ................
0050  00 00 00 00 00 00 00 00 00 00 00                  ...........

No.     Time           Source                Destination           Protocol Length Info
   1312 11.761816      host                  1.13.3                USB      27     URB_INTERRUPT in

Frame 1312: 27 bytes on wire (216 bits), 27 bytes captured (216 bits) on interface \\.\USBPcap1, id 0
USB URB
    [Source: host]
    [Destination: 1.13.3]
    USBPcap pseudoheader length: 27
    IRP ID: 0xffff83030eb6ba20
    IRP USBD_STATUS: USBD_STATUS_SUCCESS (0x00000000)
    URB Function: URB_FUNCTION_BULK_OR_INTERRUPT_TRANSFER (0x0009)
    IRP information: 0x00, Direction: FDO -> PDO
        0000 000. = Reserved: 0x00
        .... ...0 = Direction: FDO -> PDO (0x0)
    URB bus id: 1
    Device address: 13
    Endpoint: 0x83, Direction: IN
        1... .... = Direction: IN (1)
        .... 0011 = Endpoint number: 3
    URB transfer type: URB_INTERRUPT (0x01)
    Packet Data Length: 0
    [Response in: 1319]
    [bInterfaceClass: HID (0x03)]

0000  1b 00 20 ba b6 0e 03 83 ff ff 00 00 00 00 09 00   .. .............
0010  00 01 00 0d 00 83 01 00 00 00 00                  ...........

No.     Time           Source                Destination           Protocol Length Info
   1313 11.767987      host                  1.13.4                USB      91     URB_INTERRUPT out

Frame 1313: 91 bytes on wire (728 bits), 91 bytes captured (728 bits) on interface \\.\USBPcap1, id 0
USB URB
    [Source: host]
    [Destination: 1.13.4]
    USBPcap pseudoheader length: 27
    IRP ID: 0xffff83030b5f13b0
    IRP USBD_STATUS: USBD_STATUS_SUCCESS (0x00000000)
    URB Function: URB_FUNCTION_BULK_OR_INTERRUPT_TRANSFER (0x0009)
    IRP information: 0x00, Direction: FDO -> PDO
        0000 000. = Reserved: 0x00
        .... ...0 = Direction: FDO -> PDO (0x0)
    URB bus id: 1
    Device address: 13
    Endpoint: 0x04, Direction: OUT
        0... .... = Direction: OUT (0)
        .... 0100 = Endpoint number: 4
    URB transfer type: URB_INTERRUPT (0x01)
    Packet Data Length: 64
    [Response in: 1314]
    [bInterfaceClass: HID (0x03)]
HID Data: 41800000000000000000000000000000000000000000000000000000000000000000000000000000000000000000000000000000000000000000000000000000

0000  1b 00 b0 13 5f 0b 03 83 ff ff 00 00 00 00 09 00   ...._...........
0010  00 01 00 0d 00 04 01 40 00 00 00 41 80 00 00 00   .......@...A....
0020  00 00 00 00 00 00 00 00 00 00 00 00 00 00 00 00   ................
0030  00 00 00 00 00 00 00 00 00 00 00 00 00 00 00 00   ................
0040  00 00 00 00 00 00 00 00 00 00 00 00 00 00 00 00   ................
0050  00 00 00 00 00 00 00 00 00 00 00                  ...........

No.     Time           Source                Destination           Protocol Length Info
   1314 11.768788      1.13.4                host                  USB      27     URB_INTERRUPT out

Frame 1314: 27 bytes on wire (216 bits), 27 bytes captured (216 bits) on interface \\.\USBPcap1, id 0
USB URB
    [Source: 1.13.4]
    [Destination: host]
    USBPcap pseudoheader length: 27
    IRP ID: 0xffff83030b5f13b0
    IRP USBD_STATUS: USBD_STATUS_SUCCESS (0x00000000)
    URB Function: URB_FUNCTION_BULK_OR_INTERRUPT_TRANSFER (0x0009)
    IRP information: 0x01, Direction: PDO -> FDO
        0000 000. = Reserved: 0x00
        .... ...1 = Direction: PDO -> FDO (0x1)
    URB bus id: 1
    Device address: 13
    Endpoint: 0x04, Direction: OUT
        0... .... = Direction: OUT (0)
        .... 0100 = Endpoint number: 4
    URB transfer type: URB_INTERRUPT (0x01)
    Packet Data Length: 0
    [Request in: 1313]
    [Time from request: 0.000801000 seconds]
    [bInterfaceClass: HID (0x03)]

0000  1b 00 b0 13 5f 0b 03 83 ff ff 00 00 00 00 09 00   ...._...........
0010  01 01 00 0d 00 04 01 00 00 00 00                  ...........

No.     Time           Source                Destination           Protocol Length Info
   1315 11.769780      1.13.3                host                  USB      91     URB_INTERRUPT in

Frame 1315: 91 bytes on wire (728 bits), 91 bytes captured (728 bits) on interface \\.\USBPcap1, id 0
USB URB
    [Source: 1.13.3]
    [Destination: host]
    USBPcap pseudoheader length: 27
    IRP ID: 0xffff8303168eda20
    IRP USBD_STATUS: USBD_STATUS_SUCCESS (0x00000000)
    URB Function: URB_FUNCTION_BULK_OR_INTERRUPT_TRANSFER (0x0009)
    IRP information: 0x01, Direction: PDO -> FDO
        0000 000. = Reserved: 0x00
        .... ...1 = Direction: PDO -> FDO (0x1)
    URB bus id: 1
    Device address: 13
    Endpoint: 0x83, Direction: IN
        1... .... = Direction: IN (1)
        .... 0011 = Endpoint number: 3
    URB transfer type: URB_INTERRUPT (0x01)
    Packet Data Length: 64
    [Request in: 1308]
    [Time from request: 0.026968000 seconds]
    [bInterfaceClass: HID (0x03)]
HID Data: 41800000000000000000000000000000000000000000000000000000000000000000000000000000000000000000000000000000000000000000000000000000

0000  1b 00 20 da 8e 16 03 83 ff ff 00 00 00 00 09 00   .. .............
0010  01 01 00 0d 00 83 01 40 00 00 00 41 80 00 00 00   .......@...A....
0020  00 00 00 00 00 00 00 00 00 00 00 00 00 00 00 00   ................
0030  00 00 00 00 00 00 00 00 00 00 00 00 00 00 00 00   ................
0040  00 00 00 00 00 00 00 00 00 00 00 00 00 00 00 00   ................
0050  00 00 00 00 00 00 00 00 00 00 00                  ...........

No.     Time           Source                Destination           Protocol Length Info
   1316 11.769798      host                  1.13.3                USB      27     URB_INTERRUPT in

Frame 1316: 27 bytes on wire (216 bits), 27 bytes captured (216 bits) on interface \\.\USBPcap1, id 0
USB URB
    [Source: host]
    [Destination: 1.13.3]
    USBPcap pseudoheader length: 27
    IRP ID: 0xffff8303168eda20
    IRP USBD_STATUS: USBD_STATUS_SUCCESS (0x00000000)
    URB Function: URB_FUNCTION_BULK_OR_INTERRUPT_TRANSFER (0x0009)
    IRP information: 0x00, Direction: FDO -> PDO
        0000 000. = Reserved: 0x00
        .... ...0 = Direction: FDO -> PDO (0x0)
    URB bus id: 1
    Device address: 13
    Endpoint: 0x83, Direction: IN
        1... .... = Direction: IN (1)
        .... 0011 = Endpoint number: 3
    URB transfer type: URB_INTERRUPT (0x01)
    Packet Data Length: 0
    [Response in: 1323]
    [bInterfaceClass: HID (0x03)]

0000  1b 00 20 da 8e 16 03 83 ff ff 00 00 00 00 09 00   .. .............
0010  00 01 00 0d 00 83 01 00 00 00 00                  ...........

No.     Time           Source                Destination           Protocol Length Info
   1317 11.775973      host                  1.13.4                USB      91     URB_INTERRUPT out

Frame 1317: 91 bytes on wire (728 bits), 91 bytes captured (728 bits) on interface \\.\USBPcap1, id 0
USB URB
    [Source: host]
    [Destination: 1.13.4]
    USBPcap pseudoheader length: 27
    IRP ID: 0xffff83030bfe76a0
    IRP USBD_STATUS: USBD_STATUS_SUCCESS (0x00000000)
    URB Function: URB_FUNCTION_BULK_OR_INTERRUPT_TRANSFER (0x0009)
    IRP information: 0x00, Direction: FDO -> PDO
        0000 000. = Reserved: 0x00
        .... ...0 = Direction: FDO -> PDO (0x0)
    URB bus id: 1
    Device address: 13
    Endpoint: 0x04, Direction: OUT
        0... .... = Direction: OUT (0)
        .... 0100 = Endpoint number: 4
    URB transfer type: URB_INTERRUPT (0x01)
    Packet Data Length: 64
    [Response in: 1318]
    [bInterfaceClass: HID (0x03)]
HID Data: 52280000000000000000000000000000000000000000000000000000000000000000000000000000000000000000000000000000000000000000000000000000

0000  1b 00 a0 76 fe 0b 03 83 ff ff 00 00 00 00 09 00   ...v............
0010  00 01 00 0d 00 04 01 40 00 00 00 52 28 00 00 00   .......@...R(...
0020  00 00 00 00 00 00 00 00 00 00 00 00 00 00 00 00   ................
0030  00 00 00 00 00 00 00 00 00 00 00 00 00 00 00 00   ................
0040  00 00 00 00 00 00 00 00 00 00 00 00 00 00 00 00   ................
0050  00 00 00 00 00 00 00 00 00 00 00                  ...........

No.     Time           Source                Destination           Protocol Length Info
   1318 11.776788      1.13.4                host                  USB      27     URB_INTERRUPT out

Frame 1318: 27 bytes on wire (216 bits), 27 bytes captured (216 bits) on interface \\.\USBPcap1, id 0
USB URB
    [Source: 1.13.4]
    [Destination: host]
    USBPcap pseudoheader length: 27
    IRP ID: 0xffff83030bfe76a0
    IRP USBD_STATUS: USBD_STATUS_SUCCESS (0x00000000)
    URB Function: URB_FUNCTION_BULK_OR_INTERRUPT_TRANSFER (0x0009)
    IRP information: 0x01, Direction: PDO -> FDO
        0000 000. = Reserved: 0x00
        .... ...1 = Direction: PDO -> FDO (0x1)
    URB bus id: 1
    Device address: 13
    Endpoint: 0x04, Direction: OUT
        0... .... = Direction: OUT (0)
        .... 0100 = Endpoint number: 4
    URB transfer type: URB_INTERRUPT (0x01)
    Packet Data Length: 0
    [Request in: 1317]
    [Time from request: 0.000815000 seconds]
    [bInterfaceClass: HID (0x03)]

0000  1b 00 a0 76 fe 0b 03 83 ff ff 00 00 00 00 09 00   ...v............
0010  01 01 00 0d 00 04 01 00 00 00 00                  ...........

No.     Time           Source                Destination           Protocol Length Info
   1319 11.777779      1.13.3                host                  USB      91     URB_INTERRUPT in

Frame 1319: 91 bytes on wire (728 bits), 91 bytes captured (728 bits) on interface \\.\USBPcap1, id 0
USB URB
    [Source: 1.13.3]
    [Destination: host]
    USBPcap pseudoheader length: 27
    IRP ID: 0xffff83030eb6ba20
    IRP USBD_STATUS: USBD_STATUS_SUCCESS (0x00000000)
    URB Function: URB_FUNCTION_BULK_OR_INTERRUPT_TRANSFER (0x0009)
    IRP information: 0x01, Direction: PDO -> FDO
        0000 000. = Reserved: 0x00
        .... ...1 = Direction: PDO -> FDO (0x1)
    URB bus id: 1
    Device address: 13
    Endpoint: 0x83, Direction: IN
        1... .... = Direction: IN (1)
        .... 0011 = Endpoint number: 3
    URB transfer type: URB_INTERRUPT (0x01)
    Packet Data Length: 64
    [Request in: 1312]
    [Time from request: 0.015963000 seconds]
    [bInterfaceClass: HID (0x03)]
HID Data: 52280000010000000000000000000000000000000000000000000000000000000000000000000000000000000000000000000000000000000000000000000000

0000  1b 00 20 ba b6 0e 03 83 ff ff 00 00 00 00 09 00   .. .............
0010  01 01 00 0d 00 83 01 40 00 00 00 52 28 00 00 01   .......@...R(...
0020  00 00 00 00 00 00 00 00 00 00 00 00 00 00 00 00   ................
0030  00 00 00 00 00 00 00 00 00 00 00 00 00 00 00 00   ................
0040  00 00 00 00 00 00 00 00 00 00 00 00 00 00 00 00   ................
0050  00 00 00 00 00 00 00 00 00 00 00                  ...........

No.     Time           Source                Destination           Protocol Length Info
   1320 11.777798      host                  1.13.3                USB      27     URB_INTERRUPT in

Frame 1320: 27 bytes on wire (216 bits), 27 bytes captured (216 bits) on interface \\.\USBPcap1, id 0
USB URB
    [Source: host]
    [Destination: 1.13.3]
    USBPcap pseudoheader length: 27
    IRP ID: 0xffff83030eb6ba20
    IRP USBD_STATUS: USBD_STATUS_SUCCESS (0x00000000)
    URB Function: URB_FUNCTION_BULK_OR_INTERRUPT_TRANSFER (0x0009)
    IRP information: 0x00, Direction: FDO -> PDO
        0000 000. = Reserved: 0x00
        .... ...0 = Direction: FDO -> PDO (0x0)
    URB bus id: 1
    Device address: 13
    Endpoint: 0x83, Direction: IN
        1... .... = Direction: IN (1)
        .... 0011 = Endpoint number: 3
    URB transfer type: URB_INTERRUPT (0x01)
    Packet Data Length: 0
    [Response in: 1325]
    [bInterfaceClass: HID (0x03)]

0000  1b 00 20 ba b6 0e 03 83 ff ff 00 00 00 00 09 00   .. .............
0010  00 01 00 0d 00 83 01 00 00 00 00                  ...........

No.     Time           Source                Destination           Protocol Length Info
   1321 11.783936      host                  1.13.4                USB      91     URB_INTERRUPT out

Frame 1321: 91 bytes on wire (728 bits), 91 bytes captured (728 bits) on interface \\.\USBPcap1, id 0
USB URB
    [Source: host]
    [Destination: 1.13.4]
    USBPcap pseudoheader length: 27
    IRP ID: 0xffff83030bb61940
    IRP USBD_STATUS: USBD_STATUS_SUCCESS (0x00000000)
    URB Function: URB_FUNCTION_BULK_OR_INTERRUPT_TRANSFER (0x0009)
    IRP information: 0x00, Direction: FDO -> PDO
        0000 000. = Reserved: 0x00
        .... ...0 = Direction: FDO -> PDO (0x0)
    URB bus id: 1
    Device address: 13
    Endpoint: 0x04, Direction: OUT
        0... .... = Direction: OUT (0)
        .... 0100 = Endpoint number: 4
    URB transfer type: URB_INTERRUPT (0x01)
    Packet Data Length: 64
    [Response in: 1322]
    [bInterfaceClass: HID (0x03)]
HID Data: 52280000000000000000000000000000000000000000000000000000000000000000000000000000000000000000000000000000000000000000000000000000

0000  1b 00 40 19 b6 0b 03 83 ff ff 00 00 00 00 09 00   ..@.............
0010  00 01 00 0d 00 04 01 40 00 00 00 52 28 00 00 00   .......@...R(...
0020  00 00 00 00 00 00 00 00 00 00 00 00 00 00 00 00   ................
0030  00 00 00 00 00 00 00 00 00 00 00 00 00 00 00 00   ................
0040  00 00 00 00 00 00 00 00 00 00 00 00 00 00 00 00   ................
0050  00 00 00 00 00 00 00 00 00 00 00                  ...........

No.     Time           Source                Destination           Protocol Length Info
   1322 11.784789      1.13.4                host                  USB      27     URB_INTERRUPT out

Frame 1322: 27 bytes on wire (216 bits), 27 bytes captured (216 bits) on interface \\.\USBPcap1, id 0
USB URB
    [Source: 1.13.4]
    [Destination: host]
    USBPcap pseudoheader length: 27
    IRP ID: 0xffff83030bb61940
    IRP USBD_STATUS: USBD_STATUS_SUCCESS (0x00000000)
    URB Function: URB_FUNCTION_BULK_OR_INTERRUPT_TRANSFER (0x0009)
    IRP information: 0x01, Direction: PDO -> FDO
        0000 000. = Reserved: 0x00
        .... ...1 = Direction: PDO -> FDO (0x1)
    URB bus id: 1
    Device address: 13
    Endpoint: 0x04, Direction: OUT
        0... .... = Direction: OUT (0)
        .... 0100 = Endpoint number: 4
    URB transfer type: URB_INTERRUPT (0x01)
    Packet Data Length: 0
    [Request in: 1321]
    [Time from request: 0.000853000 seconds]
    [bInterfaceClass: HID (0x03)]

0000  1b 00 40 19 b6 0b 03 83 ff ff 00 00 00 00 09 00   ..@.............
0010  01 01 00 0d 00 04 01 00 00 00 00                  ...........

No.     Time           Source                Destination           Protocol Length Info
   1323 11.785778      1.13.3                host                  USB      91     URB_INTERRUPT in

Frame 1323: 91 bytes on wire (728 bits), 91 bytes captured (728 bits) on interface \\.\USBPcap1, id 0
USB URB
    [Source: 1.13.3]
    [Destination: host]
    USBPcap pseudoheader length: 27
    IRP ID: 0xffff8303168eda20
    IRP USBD_STATUS: USBD_STATUS_SUCCESS (0x00000000)
    URB Function: URB_FUNCTION_BULK_OR_INTERRUPT_TRANSFER (0x0009)
    IRP information: 0x01, Direction: PDO -> FDO
        0000 000. = Reserved: 0x00
        .... ...1 = Direction: PDO -> FDO (0x1)
    URB bus id: 1
    Device address: 13
    Endpoint: 0x83, Direction: IN
        1... .... = Direction: IN (1)
        .... 0011 = Endpoint number: 3
    URB transfer type: URB_INTERRUPT (0x01)
    Packet Data Length: 64
    [Request in: 1316]
    [Time from request: 0.015980000 seconds]
    [bInterfaceClass: HID (0x03)]
HID Data: 52280000010000000000000000000000000000000000000000000000000000000000000000000000000000000000000000000000000000000000000000000000

0000  1b 00 20 da 8e 16 03 83 ff ff 00 00 00 00 09 00   .. .............
0010  01 01 00 0d 00 83 01 40 00 00 00 52 28 00 00 01   .......@...R(...
0020  00 00 00 00 00 00 00 00 00 00 00 00 00 00 00 00   ................
0030  00 00 00 00 00 00 00 00 00 00 00 00 00 00 00 00   ................
0040  00 00 00 00 00 00 00 00 00 00 00 00 00 00 00 00   ................
0050  00 00 00 00 00 00 00 00 00 00 00                  ...........

No.     Time           Source                Destination           Protocol Length Info
   1324 11.785819      host                  1.13.3                USB      27     URB_INTERRUPT in

Frame 1324: 27 bytes on wire (216 bits), 27 bytes captured (216 bits) on interface \\.\USBPcap1, id 0
USB URB
    [Source: host]
    [Destination: 1.13.3]
    USBPcap pseudoheader length: 27
    IRP ID: 0xffff8303168eda20
    IRP USBD_STATUS: USBD_STATUS_SUCCESS (0x00000000)
    URB Function: URB_FUNCTION_BULK_OR_INTERRUPT_TRANSFER (0x0009)
    IRP information: 0x00, Direction: FDO -> PDO
        0000 000. = Reserved: 0x00
        .... ...0 = Direction: FDO -> PDO (0x0)
    URB bus id: 1
    Device address: 13
    Endpoint: 0x83, Direction: IN
        1... .... = Direction: IN (1)
        .... 0011 = Endpoint number: 3
    URB transfer type: URB_INTERRUPT (0x01)
    Packet Data Length: 0
    [Response in: 1329]
    [bInterfaceClass: HID (0x03)]

0000  1b 00 20 da 8e 16 03 83 ff ff 00 00 00 00 09 00   .. .............
0010  00 01 00 0d 00 83 01 00 00 00 00                  ...........

No.     Time           Source                Destination           Protocol Length Info
   1325 11.805781      1.13.3                host                  USB      91     URB_INTERRUPT in

Frame 1325: 91 bytes on wire (728 bits), 91 bytes captured (728 bits) on interface \\.\USBPcap1, id 0
USB URB
    [Source: 1.13.3]
    [Destination: host]
    USBPcap pseudoheader length: 27
    IRP ID: 0xffff83030eb6ba20
    IRP USBD_STATUS: USBD_STATUS_SUCCESS (0x00000000)
    URB Function: URB_FUNCTION_BULK_OR_INTERRUPT_TRANSFER (0x0009)
    IRP information: 0x01, Direction: PDO -> FDO
        0000 000. = Reserved: 0x00
        .... ...1 = Direction: PDO -> FDO (0x1)
    URB bus id: 1
    Device address: 13
    Endpoint: 0x83, Direction: IN
        1... .... = Direction: IN (1)
        .... 0011 = Endpoint number: 3
    URB transfer type: URB_INTERRUPT (0x01)
    Packet Data Length: 64
    [Request in: 1320]
    [Time from request: 0.027983000 seconds]
    [bInterfaceClass: HID (0x03)]
HID Data: 43010000094000000000000000000000000000000000000000000000000000000000000000000000000000000000000000000000000000000000000000000000

0000  1b 00 20 ba b6 0e 03 83 ff ff 00 00 00 00 09 00   .. .............
0010  01 01 00 0d 00 83 01 40 00 00 00 43 01 00 00 09   .......@...C....
0020  40 00 00 00 00 00 00 00 00 00 00 00 00 00 00 00   @...............
0030  00 00 00 00 00 00 00 00 00 00 00 00 00 00 00 00   ................
0040  00 00 00 00 00 00 00 00 00 00 00 00 00 00 00 00   ................
0050  00 00 00 00 00 00 00 00 00 00 00                  ...........

No.     Time           Source                Destination           Protocol Length Info
   1326 11.805819      host                  1.13.3                USB      27     URB_INTERRUPT in

Frame 1326: 27 bytes on wire (216 bits), 27 bytes captured (216 bits) on interface \\.\USBPcap1, id 0
USB URB
    [Source: host]
    [Destination: 1.13.3]
    USBPcap pseudoheader length: 27
    IRP ID: 0xffff83030eb6ba20
    IRP USBD_STATUS: USBD_STATUS_SUCCESS (0x00000000)
    URB Function: URB_FUNCTION_BULK_OR_INTERRUPT_TRANSFER (0x0009)
    IRP information: 0x00, Direction: FDO -> PDO
        0000 000. = Reserved: 0x00
        .... ...0 = Direction: FDO -> PDO (0x0)
    URB bus id: 1
    Device address: 13
    Endpoint: 0x83, Direction: IN
        1... .... = Direction: IN (1)
        .... 0011 = Endpoint number: 3
    URB transfer type: URB_INTERRUPT (0x01)
    Packet Data Length: 0
    [Response in: 1333]
    [bInterfaceClass: HID (0x03)]

0000  1b 00 20 ba b6 0e 03 83 ff ff 00 00 00 00 09 00   .. .............
0010  00 01 00 0d 00 83 01 00 00 00 00                  ...........

No.     Time           Source                Destination           Protocol Length Info
   1327 11.807787      host                  1.13.4                USB      91     URB_INTERRUPT out

Frame 1327: 91 bytes on wire (728 bits), 91 bytes captured (728 bits) on interface \\.\USBPcap1, id 0
USB URB
    [Source: host]
    [Destination: 1.13.4]
    USBPcap pseudoheader length: 27
    IRP ID: 0xffff8303163668e0
    IRP USBD_STATUS: USBD_STATUS_SUCCESS (0x00000000)
    URB Function: URB_FUNCTION_BULK_OR_INTERRUPT_TRANSFER (0x0009)
    IRP information: 0x00, Direction: FDO -> PDO
        0000 000. = Reserved: 0x00
        .... ...0 = Direction: FDO -> PDO (0x0)
    URB bus id: 1
    Device address: 13
    Endpoint: 0x04, Direction: OUT
        0... .... = Direction: OUT (0)
        .... 0100 = Endpoint number: 4
    URB transfer type: URB_INTERRUPT (0x01)
    Packet Data Length: 64
    [Response in: 1328]
    [bInterfaceClass: HID (0x03)]
HID Data: 41800000000000000000000000000000000000000000000000000000000000000000000000000000000000000000000000000000000000000000000000000000

0000  1b 00 e0 68 36 16 03 83 ff ff 00 00 00 00 09 00   ...h6...........
0010  00 01 00 0d 00 04 01 40 00 00 00 41 80 00 00 00   .......@...A....
0020  00 00 00 00 00 00 00 00 00 00 00 00 00 00 00 00   ................
0030  00 00 00 00 00 00 00 00 00 00 00 00 00 00 00 00   ................
0040  00 00 00 00 00 00 00 00 00 00 00 00 00 00 00 00   ................
0050  00 00 00 00 00 00 00 00 00 00 00                  ...........

No.     Time           Source                Destination           Protocol Length Info
   1328 11.808774      1.13.4                host                  USB      27     URB_INTERRUPT out

Frame 1328: 27 bytes on wire (216 bits), 27 bytes captured (216 bits) on interface \\.\USBPcap1, id 0
USB URB
    [Source: 1.13.4]
    [Destination: host]
    USBPcap pseudoheader length: 27
    IRP ID: 0xffff8303163668e0
    IRP USBD_STATUS: USBD_STATUS_SUCCESS (0x00000000)
    URB Function: URB_FUNCTION_BULK_OR_INTERRUPT_TRANSFER (0x0009)
    IRP information: 0x01, Direction: PDO -> FDO
        0000 000. = Reserved: 0x00
        .... ...1 = Direction: PDO -> FDO (0x1)
    URB bus id: 1
    Device address: 13
    Endpoint: 0x04, Direction: OUT
        0... .... = Direction: OUT (0)
        .... 0100 = Endpoint number: 4
    URB transfer type: URB_INTERRUPT (0x01)
    Packet Data Length: 0
    [Request in: 1327]
    [Time from request: 0.000987000 seconds]
    [bInterfaceClass: HID (0x03)]

0000  1b 00 e0 68 36 16 03 83 ff ff 00 00 00 00 09 00   ...h6...........
0010  01 01 00 0d 00 04 01 00 00 00 00                  ...........

No.     Time           Source                Destination           Protocol Length Info
   1329 11.809783      1.13.3                host                  USB      91     URB_INTERRUPT in

Frame 1329: 91 bytes on wire (728 bits), 91 bytes captured (728 bits) on interface \\.\USBPcap1, id 0
USB URB
    [Source: 1.13.3]
    [Destination: host]
    USBPcap pseudoheader length: 27
    IRP ID: 0xffff8303168eda20
    IRP USBD_STATUS: USBD_STATUS_SUCCESS (0x00000000)
    URB Function: URB_FUNCTION_BULK_OR_INTERRUPT_TRANSFER (0x0009)
    IRP information: 0x01, Direction: PDO -> FDO
        0000 000. = Reserved: 0x00
        .... ...1 = Direction: PDO -> FDO (0x1)
    URB bus id: 1
    Device address: 13
    Endpoint: 0x83, Direction: IN
        1... .... = Direction: IN (1)
        .... 0011 = Endpoint number: 3
    URB transfer type: URB_INTERRUPT (0x01)
    Packet Data Length: 64
    [Request in: 1324]
    [Time from request: 0.023964000 seconds]
    [bInterfaceClass: HID (0x03)]
HID Data: 41800000000000000000000000000000000000000000000000000000000000000000000000000000000000000000000000000000000000000000000000000000

0000  1b 00 20 da 8e 16 03 83 ff ff 00 00 00 00 09 00   .. .............
0010  01 01 00 0d 00 83 01 40 00 00 00 41 80 00 00 00   .......@...A....
0020  00 00 00 00 00 00 00 00 00 00 00 00 00 00 00 00   ................
0030  00 00 00 00 00 00 00 00 00 00 00 00 00 00 00 00   ................
0040  00 00 00 00 00 00 00 00 00 00 00 00 00 00 00 00   ................
0050  00 00 00 00 00 00 00 00 00 00 00                  ...........

No.     Time           Source                Destination           Protocol Length Info
   1330 11.809805      host                  1.13.3                USB      27     URB_INTERRUPT in

Frame 1330: 27 bytes on wire (216 bits), 27 bytes captured (216 bits) on interface \\.\USBPcap1, id 0
USB URB
    [Source: host]
    [Destination: 1.13.3]
    USBPcap pseudoheader length: 27
    IRP ID: 0xffff8303168eda20
    IRP USBD_STATUS: USBD_STATUS_SUCCESS (0x00000000)
    URB Function: URB_FUNCTION_BULK_OR_INTERRUPT_TRANSFER (0x0009)
    IRP information: 0x00, Direction: FDO -> PDO
        0000 000. = Reserved: 0x00
        .... ...0 = Direction: FDO -> PDO (0x0)
    URB bus id: 1
    Device address: 13
    Endpoint: 0x83, Direction: IN
        1... .... = Direction: IN (1)
        .... 0011 = Endpoint number: 3
    URB transfer type: URB_INTERRUPT (0x01)
    Packet Data Length: 0
    [Response in: 1431]
    [bInterfaceClass: HID (0x03)]

0000  1b 00 20 da 8e 16 03 83 ff ff 00 00 00 00 09 00   .. .............
0010  00 01 00 0d 00 83 01 00 00 00 00                  ...........

No.     Time           Source                Destination           Protocol Length Info
   1331 11.825050      host                  1.13.4                USB      91     URB_INTERRUPT out

Frame 1331: 91 bytes on wire (728 bits), 91 bytes captured (728 bits) on interface \\.\USBPcap1, id 0
USB URB
    [Source: host]
    [Destination: 1.13.4]
    USBPcap pseudoheader length: 27
    IRP ID: 0xffff83030d104740
    IRP USBD_STATUS: USBD_STATUS_SUCCESS (0x00000000)
    URB Function: URB_FUNCTION_BULK_OR_INTERRUPT_TRANSFER (0x0009)
    IRP information: 0x00, Direction: FDO -> PDO
        0000 000. = Reserved: 0x00
        .... ...0 = Direction: FDO -> PDO (0x0)
    URB bus id: 1
    Device address: 13
    Endpoint: 0x04, Direction: OUT
        0... .... = Direction: OUT (0)
        .... 0100 = Endpoint number: 4
    URB transfer type: URB_INTERRUPT (0x01)
    Packet Data Length: 64
    [Response in: 1332]
    [bInterfaceClass: HID (0x03)]
HID Data: 52280000000000000000000000000000000000000000000000000000000000000000000000000000000000000000000000000000000000000000000000000000

0000  1b 00 40 47 10 0d 03 83 ff ff 00 00 00 00 09 00   ..@G............
0010  00 01 00 0d 00 04 01 40 00 00 00 52 28 00 00 00   .......@...R(...
0020  00 00 00 00 00 00 00 00 00 00 00 00 00 00 00 00   ................
0030  00 00 00 00 00 00 00 00 00 00 00 00 00 00 00 00   ................
0040  00 00 00 00 00 00 00 00 00 00 00 00 00 00 00 00   ................
0050  00 00 00 00 00 00 00 00 00 00 00                  ...........

No.     Time           Source                Destination           Protocol Length Info
   1332 11.825775      1.13.4                host                  USB      27     URB_INTERRUPT out

Frame 1332: 27 bytes on wire (216 bits), 27 bytes captured (216 bits) on interface \\.\USBPcap1, id 0
USB URB
    [Source: 1.13.4]
    [Destination: host]
    USBPcap pseudoheader length: 27
    IRP ID: 0xffff83030d104740
    IRP USBD_STATUS: USBD_STATUS_SUCCESS (0x00000000)
    URB Function: URB_FUNCTION_BULK_OR_INTERRUPT_TRANSFER (0x0009)
    IRP information: 0x01, Direction: PDO -> FDO
        0000 000. = Reserved: 0x00
        .... ...1 = Direction: PDO -> FDO (0x1)
    URB bus id: 1
    Device address: 13
    Endpoint: 0x04, Direction: OUT
        0... .... = Direction: OUT (0)
        .... 0100 = Endpoint number: 4
    URB transfer type: URB_INTERRUPT (0x01)
    Packet Data Length: 0
    [Request in: 1331]
    [Time from request: 0.000725000 seconds]
    [bInterfaceClass: HID (0x03)]

0000  1b 00 40 47 10 0d 03 83 ff ff 00 00 00 00 09 00   ..@G............
0010  01 01 00 0d 00 04 01 00 00 00 00                  ...........

No.     Time           Source                Destination           Protocol Length Info
   1333 11.826781      1.13.3                host                  USB      91     URB_INTERRUPT in

Frame 1333: 91 bytes on wire (728 bits), 91 bytes captured (728 bits) on interface \\.\USBPcap1, id 0
USB URB
    [Source: 1.13.3]
    [Destination: host]
    USBPcap pseudoheader length: 27
    IRP ID: 0xffff83030eb6ba20
    IRP USBD_STATUS: USBD_STATUS_SUCCESS (0x00000000)
    URB Function: URB_FUNCTION_BULK_OR_INTERRUPT_TRANSFER (0x0009)
    IRP information: 0x01, Direction: PDO -> FDO
        0000 000. = Reserved: 0x00
        .... ...1 = Direction: PDO -> FDO (0x1)
    URB bus id: 1
    Device address: 13
    Endpoint: 0x83, Direction: IN
        1... .... = Direction: IN (1)
        .... 0011 = Endpoint number: 3
    URB transfer type: URB_INTERRUPT (0x01)
    Packet Data Length: 64
    [Request in: 1326]
    [Time from request: 0.020962000 seconds]
    [bInterfaceClass: HID (0x03)]
HID Data: 52280000010000000000000000000000000000000000000000000000000000000000000000000000000000000000000000000000000000000000000000000000

0000  1b 00 20 ba b6 0e 03 83 ff ff 00 00 00 00 09 00   .. .............
0010  01 01 00 0d 00 83 01 40 00 00 00 52 28 00 00 01   .......@...R(...
0020  00 00 00 00 00 00 00 00 00 00 00 00 00 00 00 00   ................
0030  00 00 00 00 00 00 00 00 00 00 00 00 00 00 00 00   ................
0040  00 00 00 00 00 00 00 00 00 00 00 00 00 00 00 00   ................
0050  00 00 00 00 00 00 00 00 00 00 00                  ...........

No.     Time           Source                Destination           Protocol Length Info
   1334 11.826859      host                  1.13.3                USB      27     URB_INTERRUPT in

Frame 1334: 27 bytes on wire (216 bits), 27 bytes captured (216 bits) on interface \\.\USBPcap1, id 0
USB URB
    [Source: host]
    [Destination: 1.13.3]
    USBPcap pseudoheader length: 27
    IRP ID: 0xffff83030eb6ba20
    IRP USBD_STATUS: USBD_STATUS_SUCCESS (0x00000000)
    URB Function: URB_FUNCTION_BULK_OR_INTERRUPT_TRANSFER (0x0009)
    IRP information: 0x00, Direction: FDO -> PDO
        0000 000. = Reserved: 0x00
        .... ...0 = Direction: FDO -> PDO (0x0)
    URB bus id: 1
    Device address: 13
    Endpoint: 0x83, Direction: IN
        1... .... = Direction: IN (1)
        .... 0011 = Endpoint number: 3
    URB transfer type: URB_INTERRUPT (0x01)
    Packet Data Length: 0
    [Response in: 1433]
    [bInterfaceClass: HID (0x03)]

0000  1b 00 20 ba b6 0e 03 83 ff ff 00 00 00 00 09 00   .. .............
0010  00 01 00 0d 00 83 01 00 00 00 00                  ...........

No.     Time           Source                Destination           Protocol Length Info
   1431 17.609834      1.13.3                host                  USB      91     URB_INTERRUPT in

Frame 1431: 91 bytes on wire (728 bits), 91 bytes captured (728 bits) on interface \\.\USBPcap1, id 0
USB URB
    [Source: 1.13.3]
    [Destination: host]
    USBPcap pseudoheader length: 27
    IRP ID: 0xffff8303168eda20
    IRP USBD_STATUS: USBD_STATUS_SUCCESS (0x00000000)
    URB Function: URB_FUNCTION_BULK_OR_INTERRUPT_TRANSFER (0x0009)
    IRP information: 0x01, Direction: PDO -> FDO
        0000 000. = Reserved: 0x00
        .... ...1 = Direction: PDO -> FDO (0x1)
    URB bus id: 1
    Device address: 13
    Endpoint: 0x83, Direction: IN
        1... .... = Direction: IN (1)
        .... 0011 = Endpoint number: 3
    URB transfer type: URB_INTERRUPT (0x01)
    Packet Data Length: 64
    [Request in: 1330]
    [Time from request: 5.800029000 seconds]
    [bInterfaceClass: HID (0x03)]
HID Data: 42200000000000010000000000000000000000000000000000000000000000000000000000000000000000000000000000000000000000000000000000000000

0000  1b 00 20 da 8e 16 03 83 ff ff 00 00 00 00 09 00   .. .............
0010  01 01 00 0d 00 83 01 40 00 00 00 42 20 00 00 00   .......@...B ...
0020  00 00 01 00 00 00 00 00 00 00 00 00 00 00 00 00   ................
0030  00 00 00 00 00 00 00 00 00 00 00 00 00 00 00 00   ................
0040  00 00 00 00 00 00 00 00 00 00 00 00 00 00 00 00   ................
0050  00 00 00 00 00 00 00 00 00 00 00                  ...........

No.     Time           Source                Destination           Protocol Length Info
   1432 17.609916      host                  1.13.3                USB      27     URB_INTERRUPT in

Frame 1432: 27 bytes on wire (216 bits), 27 bytes captured (216 bits) on interface \\.\USBPcap1, id 0
USB URB
    [Source: host]
    [Destination: 1.13.3]
    USBPcap pseudoheader length: 27
    IRP ID: 0xffff8303168eda20
    IRP USBD_STATUS: USBD_STATUS_SUCCESS (0x00000000)
    URB Function: URB_FUNCTION_BULK_OR_INTERRUPT_TRANSFER (0x0009)
    IRP information: 0x00, Direction: FDO -> PDO
        0000 000. = Reserved: 0x00
        .... ...0 = Direction: FDO -> PDO (0x0)
    URB bus id: 1
    Device address: 13
    Endpoint: 0x83, Direction: IN
        1... .... = Direction: IN (1)
        .... 0011 = Endpoint number: 3
    URB transfer type: URB_INTERRUPT (0x01)
    Packet Data Length: 0
    [Response in: 1437]
    [bInterfaceClass: HID (0x03)]

0000  1b 00 20 da 8e 16 03 83 ff ff 00 00 00 00 09 00   .. .............
0010  00 01 00 0d 00 83 01 00 00 00 00                  ...........

No.     Time           Source                Destination           Protocol Length Info
   1433 17.610827      1.13.3                host                  USB      91     URB_INTERRUPT in

Frame 1433: 91 bytes on wire (728 bits), 91 bytes captured (728 bits) on interface \\.\USBPcap1, id 0
USB URB
    [Source: 1.13.3]
    [Destination: host]
    USBPcap pseudoheader length: 27
    IRP ID: 0xffff83030eb6ba20
    IRP USBD_STATUS: USBD_STATUS_SUCCESS (0x00000000)
    URB Function: URB_FUNCTION_BULK_OR_INTERRUPT_TRANSFER (0x0009)
    IRP information: 0x01, Direction: PDO -> FDO
        0000 000. = Reserved: 0x00
        .... ...1 = Direction: PDO -> FDO (0x1)
    URB bus id: 1
    Device address: 13
    Endpoint: 0x83, Direction: IN
        1... .... = Direction: IN (1)
        .... 0011 = Endpoint number: 3
    URB transfer type: URB_INTERRUPT (0x01)
    Packet Data Length: 64
    [Request in: 1334]
    [Time from request: 5.783968000 seconds]
    [bInterfaceClass: HID (0x03)]
HID Data: 4301000009c000000000000000000000000000000000000000000000000000000000000000000000000000000000000000000000000000000000000000000000

0000  1b 00 20 ba b6 0e 03 83 ff ff 00 00 00 00 09 00   .. .............
0010  01 01 00 0d 00 83 01 40 00 00 00 43 01 00 00 09   .......@...C....
0020  c0 00 00 00 00 00 00 00 00 00 00 00 00 00 00 00   ................
0030  00 00 00 00 00 00 00 00 00 00 00 00 00 00 00 00   ................
0040  00 00 00 00 00 00 00 00 00 00 00 00 00 00 00 00   ................
0050  00 00 00 00 00 00 00 00 00 00 00                  ...........

No.     Time           Source                Destination           Protocol Length Info
   1434 17.610888      host                  1.13.3                USB      27     URB_INTERRUPT in

Frame 1434: 27 bytes on wire (216 bits), 27 bytes captured (216 bits) on interface \\.\USBPcap1, id 0
USB URB
    [Source: host]
    [Destination: 1.13.3]
    USBPcap pseudoheader length: 27
    IRP ID: 0xffff83030eb6ba20
    IRP USBD_STATUS: USBD_STATUS_SUCCESS (0x00000000)
    URB Function: URB_FUNCTION_BULK_OR_INTERRUPT_TRANSFER (0x0009)
    IRP information: 0x00, Direction: FDO -> PDO
        0000 000. = Reserved: 0x00
        .... ...0 = Direction: FDO -> PDO (0x0)
    URB bus id: 1
    Device address: 13
    Endpoint: 0x83, Direction: IN
        1... .... = Direction: IN (1)
        .... 0011 = Endpoint number: 3
    URB transfer type: URB_INTERRUPT (0x01)
    Packet Data Length: 0
    [Response in: 1441]
    [bInterfaceClass: HID (0x03)]

0000  1b 00 20 ba b6 0e 03 83 ff ff 00 00 00 00 09 00   .. .............
0010  00 01 00 0d 00 83 01 00 00 00 00                  ...........

No.     Time           Source                Destination           Protocol Length Info
   1435 17.633858      host                  1.13.4                USB      91     URB_INTERRUPT out

Frame 1435: 91 bytes on wire (728 bits), 91 bytes captured (728 bits) on interface \\.\USBPcap1, id 0
USB URB
    [Source: host]
    [Destination: 1.13.4]
    USBPcap pseudoheader length: 27
    IRP ID: 0xffff8303119a74b0
    IRP USBD_STATUS: USBD_STATUS_SUCCESS (0x00000000)
    URB Function: URB_FUNCTION_BULK_OR_INTERRUPT_TRANSFER (0x0009)
    IRP information: 0x00, Direction: FDO -> PDO
        0000 000. = Reserved: 0x00
        .... ...0 = Direction: FDO -> PDO (0x0)
    URB bus id: 1
    Device address: 13
    Endpoint: 0x04, Direction: OUT
        0... .... = Direction: OUT (0)
        .... 0100 = Endpoint number: 4
    URB transfer type: URB_INTERRUPT (0x01)
    Packet Data Length: 64
    [Response in: 1436]
    [bInterfaceClass: HID (0x03)]
HID Data: 42100000010000010000000000000000000000000000000000000000000000000000000000000000000000000000000000000000000000000000000000000000

0000  1b 00 b0 74 9a 11 03 83 ff ff 00 00 00 00 09 00   ...t............
0010  00 01 00 0d 00 04 01 40 00 00 00 42 10 00 00 01   .......@...B....
0020  00 00 01 00 00 00 00 00 00 00 00 00 00 00 00 00   ................
0030  00 00 00 00 00 00 00 00 00 00 00 00 00 00 00 00   ................
0040  00 00 00 00 00 00 00 00 00 00 00 00 00 00 00 00   ................
0050  00 00 00 00 00 00 00 00 00 00 00                  ...........

No.     Time           Source                Destination           Protocol Length Info
   1436 17.634822      1.13.4                host                  USB      27     URB_INTERRUPT out

Frame 1436: 27 bytes on wire (216 bits), 27 bytes captured (216 bits) on interface \\.\USBPcap1, id 0
USB URB
    [Source: 1.13.4]
    [Destination: host]
    USBPcap pseudoheader length: 27
    IRP ID: 0xffff8303119a74b0
    IRP USBD_STATUS: USBD_STATUS_SUCCESS (0x00000000)
    URB Function: URB_FUNCTION_BULK_OR_INTERRUPT_TRANSFER (0x0009)
    IRP information: 0x01, Direction: PDO -> FDO
        0000 000. = Reserved: 0x00
        .... ...1 = Direction: PDO -> FDO (0x1)
    URB bus id: 1
    Device address: 13
    Endpoint: 0x04, Direction: OUT
        0... .... = Direction: OUT (0)
        .... 0100 = Endpoint number: 4
    URB transfer type: URB_INTERRUPT (0x01)
    Packet Data Length: 0
    [Request in: 1435]
    [Time from request: 0.000964000 seconds]
    [bInterfaceClass: HID (0x03)]

0000  1b 00 b0 74 9a 11 03 83 ff ff 00 00 00 00 09 00   ...t............
0010  01 01 00 0d 00 04 01 00 00 00 00                  ...........

No.     Time           Source                Destination           Protocol Length Info
   1437 17.635811      1.13.3                host                  USB      91     URB_INTERRUPT in

Frame 1437: 91 bytes on wire (728 bits), 91 bytes captured (728 bits) on interface \\.\USBPcap1, id 0
USB URB
    [Source: 1.13.3]
    [Destination: host]
    USBPcap pseudoheader length: 27
    IRP ID: 0xffff8303168eda20
    IRP USBD_STATUS: USBD_STATUS_SUCCESS (0x00000000)
    URB Function: URB_FUNCTION_BULK_OR_INTERRUPT_TRANSFER (0x0009)
    IRP information: 0x01, Direction: PDO -> FDO
        0000 000. = Reserved: 0x00
        .... ...1 = Direction: PDO -> FDO (0x1)
    URB bus id: 1
    Device address: 13
    Endpoint: 0x83, Direction: IN
        1... .... = Direction: IN (1)
        .... 0011 = Endpoint number: 3
    URB transfer type: URB_INTERRUPT (0x01)
    Packet Data Length: 64
    [Request in: 1432]
    [Time from request: 0.025895000 seconds]
    [bInterfaceClass: HID (0x03)]
HID Data: 42100000000000000000000000000000000000000000000000000000000000000000000000000000000000000000000000000000000000000000000000000000

0000  1b 00 20 da 8e 16 03 83 ff ff 00 00 00 00 09 00   .. .............
0010  01 01 00 0d 00 83 01 40 00 00 00 42 10 00 00 00   .......@...B....
0020  00 00 00 00 00 00 00 00 00 00 00 00 00 00 00 00   ................
0030  00 00 00 00 00 00 00 00 00 00 00 00 00 00 00 00   ................
0040  00 00 00 00 00 00 00 00 00 00 00 00 00 00 00 00   ................
0050  00 00 00 00 00 00 00 00 00 00 00                  ...........

No.     Time           Source                Destination           Protocol Length Info
   1438 17.635980      host                  1.13.3                USB      27     URB_INTERRUPT in

Frame 1438: 27 bytes on wire (216 bits), 27 bytes captured (216 bits) on interface \\.\USBPcap1, id 0
USB URB
    [Source: host]
    [Destination: 1.13.3]
    USBPcap pseudoheader length: 27
    IRP ID: 0xffff8303168eda20
    IRP USBD_STATUS: USBD_STATUS_SUCCESS (0x00000000)
    URB Function: URB_FUNCTION_BULK_OR_INTERRUPT_TRANSFER (0x0009)
    IRP information: 0x00, Direction: FDO -> PDO
        0000 000. = Reserved: 0x00
        .... ...0 = Direction: FDO -> PDO (0x0)
    URB bus id: 1
    Device address: 13
    Endpoint: 0x83, Direction: IN
        1... .... = Direction: IN (1)
        .... 0011 = Endpoint number: 3
    URB transfer type: URB_INTERRUPT (0x01)
    Packet Data Length: 0
    [Response in: 1445]
    [bInterfaceClass: HID (0x03)]

0000  1b 00 20 da 8e 16 03 83 ff ff 00 00 00 00 09 00   .. .............
0010  00 01 00 0d 00 83 01 00 00 00 00                  ...........

No.     Time           Source                Destination           Protocol Length Info
   1439 17.649300      host                  1.13.4                USB      91     URB_INTERRUPT out

Frame 1439: 91 bytes on wire (728 bits), 91 bytes captured (728 bits) on interface \\.\USBPcap1, id 0
USB URB
    [Source: host]
    [Destination: 1.13.4]
    USBPcap pseudoheader length: 27
    IRP ID: 0xffff8303119a74b0
    IRP USBD_STATUS: USBD_STATUS_SUCCESS (0x00000000)
    URB Function: URB_FUNCTION_BULK_OR_INTERRUPT_TRANSFER (0x0009)
    IRP information: 0x00, Direction: FDO -> PDO
        0000 000. = Reserved: 0x00
        .... ...0 = Direction: FDO -> PDO (0x0)
    URB bus id: 1
    Device address: 13
    Endpoint: 0x04, Direction: OUT
        0... .... = Direction: OUT (0)
        .... 0100 = Endpoint number: 4
    URB transfer type: URB_INTERRUPT (0x01)
    Packet Data Length: 64
    [Response in: 1440]
    [bInterfaceClass: HID (0x03)]
HID Data: 42100000010000010000000000000000000000000000000000000000000000000000000000000000000000000000000000000000000000000000000000000000

0000  1b 00 b0 74 9a 11 03 83 ff ff 00 00 00 00 09 00   ...t............
0010  00 01 00 0d 00 04 01 40 00 00 00 42 10 00 00 01   .......@...B....
0020  00 00 01 00 00 00 00 00 00 00 00 00 00 00 00 00   ................
0030  00 00 00 00 00 00 00 00 00 00 00 00 00 00 00 00   ................
0040  00 00 00 00 00 00 00 00 00 00 00 00 00 00 00 00   ................
0050  00 00 00 00 00 00 00 00 00 00 00                  ...........

No.     Time           Source                Destination           Protocol Length Info
   1440 17.649803      1.13.4                host                  USB      27     URB_INTERRUPT out

Frame 1440: 27 bytes on wire (216 bits), 27 bytes captured (216 bits) on interface \\.\USBPcap1, id 0
USB URB
    [Source: 1.13.4]
    [Destination: host]
    USBPcap pseudoheader length: 27
    IRP ID: 0xffff8303119a74b0
    IRP USBD_STATUS: USBD_STATUS_SUCCESS (0x00000000)
    URB Function: URB_FUNCTION_BULK_OR_INTERRUPT_TRANSFER (0x0009)
    IRP information: 0x01, Direction: PDO -> FDO
        0000 000. = Reserved: 0x00
        .... ...1 = Direction: PDO -> FDO (0x1)
    URB bus id: 1
    Device address: 13
    Endpoint: 0x04, Direction: OUT
        0... .... = Direction: OUT (0)
        .... 0100 = Endpoint number: 4
    URB transfer type: URB_INTERRUPT (0x01)
    Packet Data Length: 0
    [Request in: 1439]
    [Time from request: 0.000503000 seconds]
    [bInterfaceClass: HID (0x03)]

0000  1b 00 b0 74 9a 11 03 83 ff ff 00 00 00 00 09 00   ...t............
0010  01 01 00 0d 00 04 01 00 00 00 00                  ...........

No.     Time           Source                Destination           Protocol Length Info
   1441 17.650827      1.13.3                host                  USB      91     URB_INTERRUPT in

Frame 1441: 91 bytes on wire (728 bits), 91 bytes captured (728 bits) on interface \\.\USBPcap1, id 0
USB URB
    [Source: 1.13.3]
    [Destination: host]
    USBPcap pseudoheader length: 27
    IRP ID: 0xffff83030eb6ba20
    IRP USBD_STATUS: USBD_STATUS_SUCCESS (0x00000000)
    URB Function: URB_FUNCTION_BULK_OR_INTERRUPT_TRANSFER (0x0009)
    IRP information: 0x01, Direction: PDO -> FDO
        0000 000. = Reserved: 0x00
        .... ...1 = Direction: PDO -> FDO (0x1)
    URB bus id: 1
    Device address: 13
    Endpoint: 0x83, Direction: IN
        1... .... = Direction: IN (1)
        .... 0011 = Endpoint number: 3
    URB transfer type: URB_INTERRUPT (0x01)
    Packet Data Length: 64
    [Request in: 1434]
    [Time from request: 0.039939000 seconds]
    [bInterfaceClass: HID (0x03)]
HID Data: 42100000000000000000000000000000000000000000000000000000000000000000000000000000000000000000000000000000000000000000000000000000

0000  1b 00 20 ba b6 0e 03 83 ff ff 00 00 00 00 09 00   .. .............
0010  01 01 00 0d 00 83 01 40 00 00 00 42 10 00 00 00   .......@...B....
0020  00 00 00 00 00 00 00 00 00 00 00 00 00 00 00 00   ................
0030  00 00 00 00 00 00 00 00 00 00 00 00 00 00 00 00   ................
0040  00 00 00 00 00 00 00 00 00 00 00 00 00 00 00 00   ................
0050  00 00 00 00 00 00 00 00 00 00 00                  ...........

No.     Time           Source                Destination           Protocol Length Info
   1442 17.650892      host                  1.13.3                USB      27     URB_INTERRUPT in

Frame 1442: 27 bytes on wire (216 bits), 27 bytes captured (216 bits) on interface \\.\USBPcap1, id 0
USB URB
    [Source: host]
    [Destination: 1.13.3]
    USBPcap pseudoheader length: 27
    IRP ID: 0xffff83030eb6ba20
    IRP USBD_STATUS: USBD_STATUS_SUCCESS (0x00000000)
    URB Function: URB_FUNCTION_BULK_OR_INTERRUPT_TRANSFER (0x0009)
    IRP information: 0x00, Direction: FDO -> PDO
        0000 000. = Reserved: 0x00
        .... ...0 = Direction: FDO -> PDO (0x0)
    URB bus id: 1
    Device address: 13
    Endpoint: 0x83, Direction: IN
        1... .... = Direction: IN (1)
        .... 0011 = Endpoint number: 3
    URB transfer type: URB_INTERRUPT (0x01)
    Packet Data Length: 0
    [Response in: 1447]
    [bInterfaceClass: HID (0x03)]

0000  1b 00 20 ba b6 0e 03 83 ff ff 00 00 00 00 09 00   .. .............
0010  00 01 00 0d 00 83 01 00 00 00 00                  ...........

No.     Time           Source                Destination           Protocol Length Info
   1443 17.681680      host                  1.13.4                USB      91     URB_INTERRUPT out

Frame 1443: 91 bytes on wire (728 bits), 91 bytes captured (728 bits) on interface \\.\USBPcap1, id 0
USB URB
    [Source: host]
    [Destination: 1.13.4]
    USBPcap pseudoheader length: 27
    IRP ID: 0xffff8303119a74b0
    IRP USBD_STATUS: USBD_STATUS_SUCCESS (0x00000000)
    URB Function: URB_FUNCTION_BULK_OR_INTERRUPT_TRANSFER (0x0009)
    IRP information: 0x00, Direction: FDO -> PDO
        0000 000. = Reserved: 0x00
        .... ...0 = Direction: FDO -> PDO (0x0)
    URB bus id: 1
    Device address: 13
    Endpoint: 0x04, Direction: OUT
        0... .... = Direction: OUT (0)
        .... 0100 = Endpoint number: 4
    URB transfer type: URB_INTERRUPT (0x01)
    Packet Data Length: 64
    [Response in: 1444]
    [bInterfaceClass: HID (0x03)]
HID Data: 41800000000000000000000000000000000000000000000000000000000000000000000000000000000000000000000000000000000000000000000000000000

0000  1b 00 b0 74 9a 11 03 83 ff ff 00 00 00 00 09 00   ...t............
0010  00 01 00 0d 00 04 01 40 00 00 00 41 80 00 00 00   .......@...A....
0020  00 00 00 00 00 00 00 00 00 00 00 00 00 00 00 00   ................
0030  00 00 00 00 00 00 00 00 00 00 00 00 00 00 00 00   ................
0040  00 00 00 00 00 00 00 00 00 00 00 00 00 00 00 00   ................
0050  00 00 00 00 00 00 00 00 00 00 00                  ...........

No.     Time           Source                Destination           Protocol Length Info
   1444 17.682804      1.13.4                host                  USB      27     URB_INTERRUPT out

Frame 1444: 27 bytes on wire (216 bits), 27 bytes captured (216 bits) on interface \\.\USBPcap1, id 0
USB URB
    [Source: 1.13.4]
    [Destination: host]
    USBPcap pseudoheader length: 27
    IRP ID: 0xffff8303119a74b0
    IRP USBD_STATUS: USBD_STATUS_SUCCESS (0x00000000)
    URB Function: URB_FUNCTION_BULK_OR_INTERRUPT_TRANSFER (0x0009)
    IRP information: 0x01, Direction: PDO -> FDO
        0000 000. = Reserved: 0x00
        .... ...1 = Direction: PDO -> FDO (0x1)
    URB bus id: 1
    Device address: 13
    Endpoint: 0x04, Direction: OUT
        0... .... = Direction: OUT (0)
        .... 0100 = Endpoint number: 4
    URB transfer type: URB_INTERRUPT (0x01)
    Packet Data Length: 0
    [Request in: 1443]
    [Time from request: 0.001124000 seconds]
    [bInterfaceClass: HID (0x03)]

0000  1b 00 b0 74 9a 11 03 83 ff ff 00 00 00 00 09 00   ...t............
0010  01 01 00 0d 00 04 01 00 00 00 00                  ...........

No.     Time           Source                Destination           Protocol Length Info
   1445 17.683808      1.13.3                host                  USB      91     URB_INTERRUPT in

Frame 1445: 91 bytes on wire (728 bits), 91 bytes captured (728 bits) on interface \\.\USBPcap1, id 0
USB URB
    [Source: 1.13.3]
    [Destination: host]
    USBPcap pseudoheader length: 27
    IRP ID: 0xffff8303168eda20
    IRP USBD_STATUS: USBD_STATUS_SUCCESS (0x00000000)
    URB Function: URB_FUNCTION_BULK_OR_INTERRUPT_TRANSFER (0x0009)
    IRP information: 0x01, Direction: PDO -> FDO
        0000 000. = Reserved: 0x00
        .... ...1 = Direction: PDO -> FDO (0x1)
    URB bus id: 1
    Device address: 13
    Endpoint: 0x83, Direction: IN
        1... .... = Direction: IN (1)
        .... 0011 = Endpoint number: 3
    URB transfer type: URB_INTERRUPT (0x01)
    Packet Data Length: 64
    [Request in: 1438]
    [Time from request: 0.047828000 seconds]
    [bInterfaceClass: HID (0x03)]
HID Data: 41800000000000000000000000000000000000000000000000000000000000000000000000000000000000000000000000000000000000000000000000000000

0000  1b 00 20 da 8e 16 03 83 ff ff 00 00 00 00 09 00   .. .............
0010  01 01 00 0d 00 83 01 40 00 00 00 41 80 00 00 00   .......@...A....
0020  00 00 00 00 00 00 00 00 00 00 00 00 00 00 00 00   ................
0030  00 00 00 00 00 00 00 00 00 00 00 00 00 00 00 00   ................
0040  00 00 00 00 00 00 00 00 00 00 00 00 00 00 00 00   ................
0050  00 00 00 00 00 00 00 00 00 00 00                  ...........

No.     Time           Source                Destination           Protocol Length Info
   1446 17.683847      host                  1.13.3                USB      27     URB_INTERRUPT in

Frame 1446: 27 bytes on wire (216 bits), 27 bytes captured (216 bits) on interface \\.\USBPcap1, id 0
USB URB
    [Source: host]
    [Destination: 1.13.3]
    USBPcap pseudoheader length: 27
    IRP ID: 0xffff8303168eda20
    IRP USBD_STATUS: USBD_STATUS_SUCCESS (0x00000000)
    URB Function: URB_FUNCTION_BULK_OR_INTERRUPT_TRANSFER (0x0009)
    IRP information: 0x00, Direction: FDO -> PDO
        0000 000. = Reserved: 0x00
        .... ...0 = Direction: FDO -> PDO (0x0)
    URB bus id: 1
    Device address: 13
    Endpoint: 0x83, Direction: IN
        1... .... = Direction: IN (1)
        .... 0011 = Endpoint number: 3
    URB transfer type: URB_INTERRUPT (0x01)
    Packet Data Length: 0
    [Response in: 1451]
    [bInterfaceClass: HID (0x03)]

0000  1b 00 20 da 8e 16 03 83 ff ff 00 00 00 00 09 00   .. .............
0010  00 01 00 0d 00 83 01 00 00 00 00                  ...........

No.     Time           Source                Destination           Protocol Length Info
   1447 17.684805      1.13.3                host                  USB      91     URB_INTERRUPT in

Frame 1447: 91 bytes on wire (728 bits), 91 bytes captured (728 bits) on interface \\.\USBPcap1, id 0
USB URB
    [Source: 1.13.3]
    [Destination: host]
    USBPcap pseudoheader length: 27
    IRP ID: 0xffff83030eb6ba20
    IRP USBD_STATUS: USBD_STATUS_SUCCESS (0x00000000)
    URB Function: URB_FUNCTION_BULK_OR_INTERRUPT_TRANSFER (0x0009)
    IRP information: 0x01, Direction: PDO -> FDO
        0000 000. = Reserved: 0x00
        .... ...1 = Direction: PDO -> FDO (0x1)
    URB bus id: 1
    Device address: 13
    Endpoint: 0x83, Direction: IN
        1... .... = Direction: IN (1)
        .... 0011 = Endpoint number: 3
    URB transfer type: URB_INTERRUPT (0x01)
    Packet Data Length: 64
    [Request in: 1442]
    [Time from request: 0.033913000 seconds]
    [bInterfaceClass: HID (0x03)]
HID Data: 43010000094000000000000000000000000000000000000000000000000000000000000000000000000000000000000000000000000000000000000000000000

0000  1b 00 20 ba b6 0e 03 83 ff ff 00 00 00 00 09 00   .. .............
0010  01 01 00 0d 00 83 01 40 00 00 00 43 01 00 00 09   .......@...C....
0020  40 00 00 00 00 00 00 00 00 00 00 00 00 00 00 00   @...............
0030  00 00 00 00 00 00 00 00 00 00 00 00 00 00 00 00   ................
0040  00 00 00 00 00 00 00 00 00 00 00 00 00 00 00 00   ................
0050  00 00 00 00 00 00 00 00 00 00 00                  ...........

No.     Time           Source                Destination           Protocol Length Info
   1448 17.684830      host                  1.13.3                USB      27     URB_INTERRUPT in

Frame 1448: 27 bytes on wire (216 bits), 27 bytes captured (216 bits) on interface \\.\USBPcap1, id 0
USB URB
    [Source: host]
    [Destination: 1.13.3]
    USBPcap pseudoheader length: 27
    IRP ID: 0xffff83030eb6ba20
    IRP USBD_STATUS: USBD_STATUS_SUCCESS (0x00000000)
    URB Function: URB_FUNCTION_BULK_OR_INTERRUPT_TRANSFER (0x0009)
    IRP information: 0x00, Direction: FDO -> PDO
        0000 000. = Reserved: 0x00
        .... ...0 = Direction: FDO -> PDO (0x0)
    URB bus id: 1
    Device address: 13
    Endpoint: 0x83, Direction: IN
        1... .... = Direction: IN (1)
        .... 0011 = Endpoint number: 3
    URB transfer type: URB_INTERRUPT (0x01)
    Packet Data Length: 0
    [Response in: 1455]
    [bInterfaceClass: HID (0x03)]

0000  1b 00 20 ba b6 0e 03 83 ff ff 00 00 00 00 09 00   .. .............
0010  00 01 00 0d 00 83 01 00 00 00 00                  ...........

No.     Time           Source                Destination           Protocol Length Info
   1449 17.701086      host                  1.13.4                USB      91     URB_INTERRUPT out

Frame 1449: 91 bytes on wire (728 bits), 91 bytes captured (728 bits) on interface \\.\USBPcap1, id 0
USB URB
    [Source: host]
    [Destination: 1.13.4]
    USBPcap pseudoheader length: 27
    IRP ID: 0xffff8303119a74b0
    IRP USBD_STATUS: USBD_STATUS_SUCCESS (0x00000000)
    URB Function: URB_FUNCTION_BULK_OR_INTERRUPT_TRANSFER (0x0009)
    IRP information: 0x00, Direction: FDO -> PDO
        0000 000. = Reserved: 0x00
        .... ...0 = Direction: FDO -> PDO (0x0)
    URB bus id: 1
    Device address: 13
    Endpoint: 0x04, Direction: OUT
        0... .... = Direction: OUT (0)
        .... 0100 = Endpoint number: 4
    URB transfer type: URB_INTERRUPT (0x01)
    Packet Data Length: 64
    [Response in: 1450]
    [bInterfaceClass: HID (0x03)]
HID Data: 52280000000000000000000000000000000000000000000000000000000000000000000000000000000000000000000000000000000000000000000000000000

0000  1b 00 b0 74 9a 11 03 83 ff ff 00 00 00 00 09 00   ...t............
0010  00 01 00 0d 00 04 01 40 00 00 00 52 28 00 00 00   .......@...R(...
0020  00 00 00 00 00 00 00 00 00 00 00 00 00 00 00 00   ................
0030  00 00 00 00 00 00 00 00 00 00 00 00 00 00 00 00   ................
0040  00 00 00 00 00 00 00 00 00 00 00 00 00 00 00 00   ................
0050  00 00 00 00 00 00 00 00 00 00 00                  ...........

No.     Time           Source                Destination           Protocol Length Info
   1450 17.701801      1.13.4                host                  USB      27     URB_INTERRUPT out

Frame 1450: 27 bytes on wire (216 bits), 27 bytes captured (216 bits) on interface \\.\USBPcap1, id 0
USB URB
    [Source: 1.13.4]
    [Destination: host]
    USBPcap pseudoheader length: 27
    IRP ID: 0xffff8303119a74b0
    IRP USBD_STATUS: USBD_STATUS_SUCCESS (0x00000000)
    URB Function: URB_FUNCTION_BULK_OR_INTERRUPT_TRANSFER (0x0009)
    IRP information: 0x01, Direction: PDO -> FDO
        0000 000. = Reserved: 0x00
        .... ...1 = Direction: PDO -> FDO (0x1)
    URB bus id: 1
    Device address: 13
    Endpoint: 0x04, Direction: OUT
        0... .... = Direction: OUT (0)
        .... 0100 = Endpoint number: 4
    URB transfer type: URB_INTERRUPT (0x01)
    Packet Data Length: 0
    [Request in: 1449]
    [Time from request: 0.000715000 seconds]
    [bInterfaceClass: HID (0x03)]

0000  1b 00 b0 74 9a 11 03 83 ff ff 00 00 00 00 09 00   ...t............
0010  01 01 00 0d 00 04 01 00 00 00 00                  ...........

No.     Time           Source                Destination           Protocol Length Info
   1451 17.702800      1.13.3                host                  USB      91     URB_INTERRUPT in

Frame 1451: 91 bytes on wire (728 bits), 91 bytes captured (728 bits) on interface \\.\USBPcap1, id 0
USB URB
    [Source: 1.13.3]
    [Destination: host]
    USBPcap pseudoheader length: 27
    IRP ID: 0xffff8303168eda20
    IRP USBD_STATUS: USBD_STATUS_SUCCESS (0x00000000)
    URB Function: URB_FUNCTION_BULK_OR_INTERRUPT_TRANSFER (0x0009)
    IRP information: 0x01, Direction: PDO -> FDO
        0000 000. = Reserved: 0x00
        .... ...1 = Direction: PDO -> FDO (0x1)
    URB bus id: 1
    Device address: 13
    Endpoint: 0x83, Direction: IN
        1... .... = Direction: IN (1)
        .... 0011 = Endpoint number: 3
    URB transfer type: URB_INTERRUPT (0x01)
    Packet Data Length: 64
    [Request in: 1446]
    [Time from request: 0.018953000 seconds]
    [bInterfaceClass: HID (0x03)]
HID Data: 52280000020000000000000000000000000000000000000000000000000000000000000000000000000000000000000000000000000000000000000000000000

0000  1b 00 20 da 8e 16 03 83 ff ff 00 00 00 00 09 00   .. .............
0010  01 01 00 0d 00 83 01 40 00 00 00 52 28 00 00 02   .......@...R(...
0020  00 00 00 00 00 00 00 00 00 00 00 00 00 00 00 00   ................
0030  00 00 00 00 00 00 00 00 00 00 00 00 00 00 00 00   ................
0040  00 00 00 00 00 00 00 00 00 00 00 00 00 00 00 00   ................
0050  00 00 00 00 00 00 00 00 00 00 00                  ...........

No.     Time           Source                Destination           Protocol Length Info
   1452 17.702839      host                  1.13.3                USB      27     URB_INTERRUPT in

Frame 1452: 27 bytes on wire (216 bits), 27 bytes captured (216 bits) on interface \\.\USBPcap1, id 0
USB URB
    [Source: host]
    [Destination: 1.13.3]
    USBPcap pseudoheader length: 27
    IRP ID: 0xffff8303168eda20
    IRP USBD_STATUS: USBD_STATUS_SUCCESS (0x00000000)
    URB Function: URB_FUNCTION_BULK_OR_INTERRUPT_TRANSFER (0x0009)
    IRP information: 0x00, Direction: FDO -> PDO
        0000 000. = Reserved: 0x00
        .... ...0 = Direction: FDO -> PDO (0x0)
    URB bus id: 1
    Device address: 13
    Endpoint: 0x83, Direction: IN
        1... .... = Direction: IN (1)
        .... 0011 = Endpoint number: 3
    URB transfer type: URB_INTERRUPT (0x01)
    Packet Data Length: 0
    [Response in: 1459]
    [bInterfaceClass: HID (0x03)]

0000  1b 00 20 da 8e 16 03 83 ff ff 00 00 00 00 09 00   .. .............
0010  00 01 00 0d 00 83 01 00 00 00 00                  ...........

No.     Time           Source                Destination           Protocol Length Info
   1453 17.711276      host                  1.13.4                USB      91     URB_INTERRUPT out

Frame 1453: 91 bytes on wire (728 bits), 91 bytes captured (728 bits) on interface \\.\USBPcap1, id 0
USB URB
    [Source: host]
    [Destination: 1.13.4]
    USBPcap pseudoheader length: 27
    IRP ID: 0xffff8303119a74b0
    IRP USBD_STATUS: USBD_STATUS_SUCCESS (0x00000000)
    URB Function: URB_FUNCTION_BULK_OR_INTERRUPT_TRANSFER (0x0009)
    IRP information: 0x00, Direction: FDO -> PDO
        0000 000. = Reserved: 0x00
        .... ...0 = Direction: FDO -> PDO (0x0)
    URB bus id: 1
    Device address: 13
    Endpoint: 0x04, Direction: OUT
        0... .... = Direction: OUT (0)
        .... 0100 = Endpoint number: 4
    URB transfer type: URB_INTERRUPT (0x01)
    Packet Data Length: 64
    [Response in: 1454]
    [bInterfaceClass: HID (0x03)]
HID Data: 41800000000000000000000000000000000000000000000000000000000000000000000000000000000000000000000000000000000000000000000000000000

0000  1b 00 b0 74 9a 11 03 83 ff ff 00 00 00 00 09 00   ...t............
0010  00 01 00 0d 00 04 01 40 00 00 00 41 80 00 00 00   .......@...A....
0020  00 00 00 00 00 00 00 00 00 00 00 00 00 00 00 00   ................
0030  00 00 00 00 00 00 00 00 00 00 00 00 00 00 00 00   ................
0040  00 00 00 00 00 00 00 00 00 00 00 00 00 00 00 00   ................
0050  00 00 00 00 00 00 00 00 00 00 00                  ...........

No.     Time           Source                Destination           Protocol Length Info
   1454 17.711794      1.13.4                host                  USB      27     URB_INTERRUPT out

Frame 1454: 27 bytes on wire (216 bits), 27 bytes captured (216 bits) on interface \\.\USBPcap1, id 0
USB URB
    [Source: 1.13.4]
    [Destination: host]
    USBPcap pseudoheader length: 27
    IRP ID: 0xffff8303119a74b0
    IRP USBD_STATUS: USBD_STATUS_SUCCESS (0x00000000)
    URB Function: URB_FUNCTION_BULK_OR_INTERRUPT_TRANSFER (0x0009)
    IRP information: 0x01, Direction: PDO -> FDO
        0000 000. = Reserved: 0x00
        .... ...1 = Direction: PDO -> FDO (0x1)
    URB bus id: 1
    Device address: 13
    Endpoint: 0x04, Direction: OUT
        0... .... = Direction: OUT (0)
        .... 0100 = Endpoint number: 4
    URB transfer type: URB_INTERRUPT (0x01)
    Packet Data Length: 0
    [Request in: 1453]
    [Time from request: 0.000518000 seconds]
    [bInterfaceClass: HID (0x03)]

0000  1b 00 b0 74 9a 11 03 83 ff ff 00 00 00 00 09 00   ...t............
0010  01 01 00 0d 00 04 01 00 00 00 00                  ...........

No.     Time           Source                Destination           Protocol Length Info
   1455 17.712807      1.13.3                host                  USB      91     URB_INTERRUPT in

Frame 1455: 91 bytes on wire (728 bits), 91 bytes captured (728 bits) on interface \\.\USBPcap1, id 0
USB URB
    [Source: 1.13.3]
    [Destination: host]
    USBPcap pseudoheader length: 27
    IRP ID: 0xffff83030eb6ba20
    IRP USBD_STATUS: USBD_STATUS_SUCCESS (0x00000000)
    URB Function: URB_FUNCTION_BULK_OR_INTERRUPT_TRANSFER (0x0009)
    IRP information: 0x01, Direction: PDO -> FDO
        0000 000. = Reserved: 0x00
        .... ...1 = Direction: PDO -> FDO (0x1)
    URB bus id: 1
    Device address: 13
    Endpoint: 0x83, Direction: IN
        1... .... = Direction: IN (1)
        .... 0011 = Endpoint number: 3
    URB transfer type: URB_INTERRUPT (0x01)
    Packet Data Length: 64
    [Request in: 1448]
    [Time from request: 0.027977000 seconds]
    [bInterfaceClass: HID (0x03)]
HID Data: 41800000000000000000000000000000000000000000000000000000000000000000000000000000000000000000000000000000000000000000000000000000

0000  1b 00 20 ba b6 0e 03 83 ff ff 00 00 00 00 09 00   .. .............
0010  01 01 00 0d 00 83 01 40 00 00 00 41 80 00 00 00   .......@...A....
0020  00 00 00 00 00 00 00 00 00 00 00 00 00 00 00 00   ................
0030  00 00 00 00 00 00 00 00 00 00 00 00 00 00 00 00   ................
0040  00 00 00 00 00 00 00 00 00 00 00 00 00 00 00 00   ................
0050  00 00 00 00 00 00 00 00 00 00 00                  ...........

No.     Time           Source                Destination           Protocol Length Info
   1456 17.712843      host                  1.13.3                USB      27     URB_INTERRUPT in

Frame 1456: 27 bytes on wire (216 bits), 27 bytes captured (216 bits) on interface \\.\USBPcap1, id 0
USB URB
    [Source: host]
    [Destination: 1.13.3]
    USBPcap pseudoheader length: 27
    IRP ID: 0xffff83030eb6ba20
    IRP USBD_STATUS: USBD_STATUS_SUCCESS (0x00000000)
    URB Function: URB_FUNCTION_BULK_OR_INTERRUPT_TRANSFER (0x0009)
    IRP information: 0x00, Direction: FDO -> PDO
        0000 000. = Reserved: 0x00
        .... ...0 = Direction: FDO -> PDO (0x0)
    URB bus id: 1
    Device address: 13
    Endpoint: 0x83, Direction: IN
        1... .... = Direction: IN (1)
        .... 0011 = Endpoint number: 3
    URB transfer type: URB_INTERRUPT (0x01)
    Packet Data Length: 0
    [Response in: 1463]
    [bInterfaceClass: HID (0x03)]

0000  1b 00 20 ba b6 0e 03 83 ff ff 00 00 00 00 09 00   .. .............
0010  00 01 00 0d 00 83 01 00 00 00 00                  ...........

No.     Time           Source                Destination           Protocol Length Info
   1457 17.720694      host                  1.13.4                USB      91     URB_INTERRUPT out

Frame 1457: 91 bytes on wire (728 bits), 91 bytes captured (728 bits) on interface \\.\USBPcap1, id 0
USB URB
    [Source: host]
    [Destination: 1.13.4]
    USBPcap pseudoheader length: 27
    IRP ID: 0xffff83030b5f13b0
    IRP USBD_STATUS: USBD_STATUS_SUCCESS (0x00000000)
    URB Function: URB_FUNCTION_BULK_OR_INTERRUPT_TRANSFER (0x0009)
    IRP information: 0x00, Direction: FDO -> PDO
        0000 000. = Reserved: 0x00
        .... ...0 = Direction: FDO -> PDO (0x0)
    URB bus id: 1
    Device address: 13
    Endpoint: 0x04, Direction: OUT
        0... .... = Direction: OUT (0)
        .... 0100 = Endpoint number: 4
    URB transfer type: URB_INTERRUPT (0x01)
    Packet Data Length: 64
    [Response in: 1458]
    [bInterfaceClass: HID (0x03)]
HID Data: 52280000000000000000000000000000000000000000000000000000000000000000000000000000000000000000000000000000000000000000000000000000

0000  1b 00 b0 13 5f 0b 03 83 ff ff 00 00 00 00 09 00   ...._...........
0010  00 01 00 0d 00 04 01 40 00 00 00 52 28 00 00 00   .......@...R(...
0020  00 00 00 00 00 00 00 00 00 00 00 00 00 00 00 00   ................
0030  00 00 00 00 00 00 00 00 00 00 00 00 00 00 00 00   ................
0040  00 00 00 00 00 00 00 00 00 00 00 00 00 00 00 00   ................
0050  00 00 00 00 00 00 00 00 00 00 00                  ...........

No.     Time           Source                Destination           Protocol Length Info
   1458 17.721802      1.13.4                host                  USB      27     URB_INTERRUPT out

Frame 1458: 27 bytes on wire (216 bits), 27 bytes captured (216 bits) on interface \\.\USBPcap1, id 0
USB URB
    [Source: 1.13.4]
    [Destination: host]
    USBPcap pseudoheader length: 27
    IRP ID: 0xffff83030b5f13b0
    IRP USBD_STATUS: USBD_STATUS_SUCCESS (0x00000000)
    URB Function: URB_FUNCTION_BULK_OR_INTERRUPT_TRANSFER (0x0009)
    IRP information: 0x01, Direction: PDO -> FDO
        0000 000. = Reserved: 0x00
        .... ...1 = Direction: PDO -> FDO (0x1)
    URB bus id: 1
    Device address: 13
    Endpoint: 0x04, Direction: OUT
        0... .... = Direction: OUT (0)
        .... 0100 = Endpoint number: 4
    URB transfer type: URB_INTERRUPT (0x01)
    Packet Data Length: 0
    [Request in: 1457]
    [Time from request: 0.001108000 seconds]
    [bInterfaceClass: HID (0x03)]

0000  1b 00 b0 13 5f 0b 03 83 ff ff 00 00 00 00 09 00   ...._...........
0010  01 01 00 0d 00 04 01 00 00 00 00                  ...........

No.     Time           Source                Destination           Protocol Length Info
   1459 17.722813      1.13.3                host                  USB      91     URB_INTERRUPT in

Frame 1459: 91 bytes on wire (728 bits), 91 bytes captured (728 bits) on interface \\.\USBPcap1, id 0
USB URB
    [Source: 1.13.3]
    [Destination: host]
    USBPcap pseudoheader length: 27
    IRP ID: 0xffff8303168eda20
    IRP USBD_STATUS: USBD_STATUS_SUCCESS (0x00000000)
    URB Function: URB_FUNCTION_BULK_OR_INTERRUPT_TRANSFER (0x0009)
    IRP information: 0x01, Direction: PDO -> FDO
        0000 000. = Reserved: 0x00
        .... ...1 = Direction: PDO -> FDO (0x1)
    URB bus id: 1
    Device address: 13
    Endpoint: 0x83, Direction: IN
        1... .... = Direction: IN (1)
        .... 0011 = Endpoint number: 3
    URB transfer type: URB_INTERRUPT (0x01)
    Packet Data Length: 64
    [Request in: 1452]
    [Time from request: 0.019974000 seconds]
    [bInterfaceClass: HID (0x03)]
HID Data: 52280000020000000000000000000000000000000000000000000000000000000000000000000000000000000000000000000000000000000000000000000000

0000  1b 00 20 da 8e 16 03 83 ff ff 00 00 00 00 09 00   .. .............
0010  01 01 00 0d 00 83 01 40 00 00 00 52 28 00 00 02   .......@...R(...
0020  00 00 00 00 00 00 00 00 00 00 00 00 00 00 00 00   ................
0030  00 00 00 00 00 00 00 00 00 00 00 00 00 00 00 00   ................
0040  00 00 00 00 00 00 00 00 00 00 00 00 00 00 00 00   ................
0050  00 00 00 00 00 00 00 00 00 00 00                  ...........

No.     Time           Source                Destination           Protocol Length Info
   1460 17.722838      host                  1.13.3                USB      27     URB_INTERRUPT in

Frame 1460: 27 bytes on wire (216 bits), 27 bytes captured (216 bits) on interface \\.\USBPcap1, id 0
USB URB
    [Source: host]
    [Destination: 1.13.3]
    USBPcap pseudoheader length: 27
